:1000000015C1000044C1000042C1000040C1000011
:100010003EC100003CC100003AC1000038C10000F0
:1000200036C1000034C1000032C1000030C1000000
:100030002EC100002CC100002AC1000028C1000010
:1000400026C1000024C1000022C1000020C1000020
:100050001EC100001CC100001AC1000086C40000BF
:1000600016C100009FC20000F5C2000010C10000D0
:100070000EC100000CC100000AC1000008C1000050
:1000800006C1000004C1000002C1000000C1000060
:1000900053C200000C94D00AFAC00000B0C40000A3
:1000A000F6C00000F4C00000F2C00000F0C0000084
:1000B000EEC00000ECC00000EAC00000E8C0000094
:1000C000E6C00000E4C00000E2C00000E0C00000A4
:1000D000DEC00000DCC00000DAC00000D8C00000B4
:1000E000D6C00000DD01E001CF01D301D901170224
:1000F000E401E801EE01F201F601FC010002040254
:1001000017020A020E02120200002100240027003A
:100110002A002D0030003300010100000401070116
:100120000A0100002200250028002B002E003100CB
:10013000340002010000050108010B01000020004D
:100140002300260029002C002F00320000010000AF
:10015000030106010901050505050705080808084A
:10016000020202020A0A080804040404010101014F
:10017000010101010303030303030303040707074A
:100180000C0C0C0C0C0C0C0C0202020206060606EF
:10019000060606060B0B0B0B0B0B0B0B01021020BC
:1001A00020080810204010204080020102010804AD
:1001B0000201010204081020408080402010080441
:1001C000020180040201804020100804020108049A
:1001D00002010102040810204080010204081020DE
:1001E000408000000A0B02090C0D0E0807030401F1
:1001F00000000000000000000000000000000000FF
:1002000000000000000000000000000000001211CB
:1002100010000000000000000000000000000000CE
:100220000000000000000000CB178E0F11241FBE3D
:10023000CFEFD1E2DEBFCDBF00E00CBF16E0A0E003
:10024000B2E0E0EDFCE300E00BBF02C007900D92CE
:10025000A235B107D9F729E0A2E5B6E001C01D92A9
:10026000A030B207E1F711E0C5E1D1E000E006C03F
:1002700021970109802FFE010E94161DC431D1076C
:1002800080E00807A9F70E94C70F0C94571EB8CE4C
:10029000FC01538D448D252F30E0842F90E0821B8C
:1002A000930B541710F0CF96089501970895FC0111
:1002B000918D828D981761F0828DDF01A80FB11D9D
:1002C0005D968C91928D9F5F9F73928F90E00895C1
:1002D0008FEF9FEF0895FC01918D828D981731F07B
:1002E000828DE80FF11D858D90E008958FEF9FEFCF
:1002F0000895FC01918D228D892F90E0805C9F4FA5
:10030000821B91098F739927089581EE97E0F1DFA1
:1003100021E0892B09F420E0822F089580E090E00D
:10032000892B19F0F2DF811121C080E090E0892B48
:1003300021F00E94920A81111CC080E090E0892B7C
:1003400041F080E090E0892B21F00E9400008111B3
:1003500013C080E090E0892BA1F080E090E0892B31
:1003600081F00E94000081110AC008950E940000DF
:10037000DCCF0E940000E1CF0E940000EACF0C9485
:100380000000089590E0FC013197E231F10508F09A
:100390004EC08827EE58FF4F8F4F0C94161D80914A
:1003A00080008F7703C0809180008F7D80938000D4
:1003B000089580918000877FF9CF84B58F7702C040
:1003C00084B58F7D84BD08958091B0008F7703C080
:1003D0008091B0008F7D8093B0000895809190004F
:1003E0008F7707C0809190008F7D03C0809190002F
:1003F000877F8093900008958091A0008F7707C039
:100400008091A0008F7D03C08091A000877F8093A2
:10041000A0000895809120018F7707C0809120016E
:100420008F7D03C080912001877F809320010895F4
:100430003FB7F8948091C2069091C306A091C4067C
:10044000B091C50626B5A89B05C02F3F19F00196AF
:10045000A11DB11D3FBFBA2FA92F982F8827820F4A
:10046000911DA11DB11DBC01CD0142E0660F771F9A
:10047000881F991F4A95D1F7089585ED8093BC0098
:100480008091BC0084FDFCCF1092970608954091A6
:100490007306262F30E0240F311D21323105DCF4A4
:1004A000209197062430C9F4FC0180E090E0861783
:1004B00058F4309173062191DC01AD5AB94FA30F66
:1004C000B11D2C930196F3CF80917306680F609352
:1004D000730680E0089581E0089582E0089508950C
:1004E0008FEF9FEF08958FEF9FEF08958091520651
:1004F00090E09195819591090895CF93DF93CB0179
:10050000EA01642FC4DFCE01DF91CF910895CF932C
:10051000DF931F92CDB7DEB7698361E0CE0101960C
:10052000B6DF81E090E00F90DF91CF91089580E0F9
:1005300090E008950E94201E1F920F920FB60F9216
:1005400011240BB60F922F938F939F93EF93FF93EA
:10055000E0915407F09155078081E0915A07F0919E
:100560005B0782FD12C0908180915D078F5F8F7362
:1005700020915E07821751F0E0915D07F0E0EC5B9F
:10058000F84F958F80935D0701C08081FF91EF91B7
:100590009F918F912F910F900BBE0F900FBE0F90D8
:1005A0001F9018951F920F920FB60F9211240BB641
:1005B0000F922F938F939F93EF93FF93E091F10707
:1005C000F091F2078081E091F707F091F80782FD42
:1005D00012C090818091FA078F5F8F732091FB0783
:1005E000821751F0E091FA07F0E0EF51F84F958F44
:1005F0008093FA0701C08081FF91EF919F918F91C5
:100600002F910F900BBE0F900FBE0F901F9018955B
:10061000FC01848DDF01A80FB11DA35ABF4F2C919F
:10062000848D90E001968F739927848FA689B7896E
:100630002C93A089B1898C91837080648C93938D65
:10064000848D981306C00288F389E02D80818F7D08
:10065000808308951F920F920FB60F9211240BB64C
:100660000F922F933F934F935F936F937F938F934B
:100670009F93AF93BF93EF93FF9381EE97E0C8DF13
:10068000FF91EF91BF91AF919F918F917F916F916A
:100690005F914F913F912F910F900BBE0F900FBE26
:1006A0000F901F901895EF92FF920F931F93CF9387
:1006B000DF93EC0181E0888F9B8D8C8D981305C0B2
:1006C000E889F989808185FD25C0F62E0B8D10E023
:1006D0000F5F1F4F0F731127E02E8C8DE8120BC098
:1006E0000FB607FCFACFE889F989808185FFF5CF3D
:1006F000CE018EDFF2CF8B8DFE01E80FF11DE35AA4
:10070000FF4FF0829FB7F8940B8FEA89FB898081B5
:1007100080620AC09FB7F894EE89FF896083E889F8
:10072000F98980818370806480839FBF81E090E03D
:10073000DF91CF911F910F91FF90EF900895CF938C
:10074000DF93EC01888D8823C1F0EA89FB898081E1
:1007500085FD05C0A889B9898C9186FD0EC00FB6AC
:1007600007FCF5CF808185FFF2CFA889B9898C91EC
:1007700085FFEDCFCE014CDFE8CFDF91CF9108951B
:10078000CF93DF93282F30E0F901EE51FE4F849193
:10079000F901E456FE4FD491F901EA5AFE4FC49193
:1007A000CC2389F08111EEDDEC2FF0E0EE0FFF1F7E
:1007B000E45CFE4FA591B491EC91ED2381E090E0D3
:1007C00021F480E002C080E090E0DF91CF910895B5
:1007D0001F93CF93DF93282F30E0F901EE51FE4FA6
:1007E0008491F901E456FE4FD491F901EA5AFE4F83
:1007F000C491CC23B9F0162F8111C4DDEC2FF0E0A9
:10080000EE0FFF1FEE5DFE4FA591B4919FB7F894D8
:10081000111104C08C91D095D82302C0EC91DE2B2D
:10082000DC939FBFDF91CF911F910895CF93DF930A
:1008300090E0FC01E456FE4F2491FC01EA5AFE4F81
:100840008491882361F190E0880F991FFC01E85F93
:10085000FE4FC591D491FC01EE5DFE4FA591B49180
:10086000611109C09FB7F8948881209582238883FD
:10087000EC912E230BC0623061F49FB7F89488810D
:10088000322F309583238883EC912E2B2C939FBF9E
:1008900006C08FB7F894E8812E2B28838FBFDF9195
:1008A000CF910895863308F0865390917B00282FCE
:1008B0002870977F922B90937B0087708064809341
:1008C0007C0080917A00806480937A0080917A0025
:1008D00086FDFCCF809178002091790090E0922BEA
:1008E00008958F929F92AF92BF92CF92DF92EF9234
:1008F000FF926B017C019CDD4B015C01C114D104B2
:10090000E104F104E9F094DDDC01CB0188199909D7
:10091000AA09BB09883E9340A105B10578F321E0FF
:10092000C21AD108E108F10888EE880E83E0981E0B
:10093000A11CB11CC114D104E104F10421F7DECFE4
:10094000FF90EF90DF90CF90BF90AF909F908F90EF
:1009500008952FB7F8946091BE067091BF068091FC
:10096000C0069091C1062FBF08951F920F920FB637
:100970000F9211242F933F938F939F93AF93BF9325
:100980008091BE069091BF06A091C006B091C106AD
:100990003091BD0623E0230F2D3720F40196A11DD1
:1009A000B11D05C026E8230F0296A11DB11D20939D
:1009B000BD068093BE069093BF06A093C006B09379
:1009C000C1068091C2069091C306A091C406B09161
:1009D000C5060196A11DB11D8093C2069093C30662
:1009E000A093C406B093C506BF91AF919F918F911C
:1009F0003F912F910F900FBE0F901F9018951F924F
:100A00000F920FB60F9211240BB60F922F933F93B4
:100A10004F935F936F937F938F939F93AF93BF9306
:100A2000EF93FF938091B900887F803609F49CC0D2
:100A300068F5883209F45BC090F4803109F454C041
:100A400038F4882309F4F2C0883009F44DC0F1C0AD
:100A5000883109F44CC0803209F45DC0EAC08034AA
:100A600009F468C048F4803309F455C0883309F0AC
:100A7000E0C080939606D4C0803509F44FC0883515
:100A800009F45DC0883409F0D4C0D2C0883909F4B3
:100A9000C3C0A8F4883709F467C038F4883609F46D
:100AA00063C0803709F460C0C4C0883809F4B4C09A
:100AB000803909F45FC0803809F0BBC05BC0803B5F
:100AC00009F484C038F4803A09F466C0883A09F41D
:100AD0007DC0AFC0803C09F4A3C0883C09F4A0C02D
:100AE000883B09F486C0A5C08091BC0610C09091D7
:100AF000BB068091BA06981770F5E091BB0681E0BD
:100B00008E0F8093BB06F0E0E656F94F808180930C
:100B1000BB0085EC82C0809396068AC0E091BB063C
:100B200081E08E0F8093BB068091BB00F0E0E6561B
:100B3000F94F80839091BB068091BA066AC0E0911C
:100B4000BB0681E08E0F8093BB068091BB00F0E076
:100B5000E656F94F808380919906811169C081E042
:100B60008093980684EA5DC083E080939706109294
:100B70009506CFCF80919506803208F04DC0E09168
:100B8000950681E08E0F809395068091BB00F0E082
:100B9000EB58F94F8083BDCF85EC8093BC00109259
:100BA000970680919506803230F4E0919506F0E04A
:100BB000EB58F94F10826091950670E085E796E05A
:100BC000E0E0F0E019951092950633C084E0809340
:100BD00097061092740610927306E0E0F0E0199503
:100BE00080917306811105C081E080937306109295
:100BF0005306E091740681E08E0F80937406F0E056
:100C0000ED5AF94F80818093BB00909174068091DA
:100C10007306981708F47DCF85E88093BC0009C05F
:100C200085EC8093BC001092970603C01092960644
:100C300024DCFF91EF91BF91AF919F918F917F91B4
:100C40006F915F914F913F912F910F900BBE0F903D
:100C50000FBE0F901F901895CF92DF92EF92FF92E8
:100C60000F931F93CF93DF93CDB7DEB72C970FB6BB
:100C7000F894DEBF0FBECDBF8C017B016A0166E038
:100C800076E07AD4CE14DF040CF1C7010E94721B07
:100C9000682F70E060537109CE0107968BD6B801BA
:100CA000CE01019661D4BE01695F7F4FCE010196EE
:100CB00003D6BC01C801D5D6CE010196E7D6CE0138
:100CC0000796E4D68FEFE81AF80ADCCFC8012C9615
:100CD0000FB6F894DEBF0FBECDBFDF91CF911F914D
:100CE0000F91FF90EF90DF90CF900895CF92DF9219
:100CF000EF92FF920F931F93CF93DF93CDB7DEB7A1
:100D0000A4970FB6F894DEBF0FBECDBF66E076E0C5
:100D1000CE01499631D466E076E0CE014F962CD4D0
:100D200084E497E0E6DA181619060CF0BBC3CE018E
:100D30000196B1D6BE016F5F7F4FCE014F96CDD5E4
:100D4000CE010196A3D6BE01615E7F4FCE01019612
:100D50000BD4BE016F5F7F4F89E65CD5CE01019653
:100D600095D66AE070E080E090E0BBDD64E372E07D
:100D7000CE01019601D4BE016F5F7F4FCE014F9629
:100D80005FD58C01CE01019681D617FD10C06CE3B2
:100D900072E0CE010196F0D381E38093090261E312
:100DA00080E090E00E947A1B60E572E020C063E57D
:100DB00072E0CE010196E0D3BE016F5F7F4FCE019E
:100DC0004F963ED58C01CE01019660D617FD19C015
:100DD0006BE572E0CE010196CFD380E380930902E8
:100DE00060E380E090E00E947A1B6FE672E0CE0143
:100DF0000796C2D3CE01079635D7CE01079646D6C1
:100E00004EC362E772E0CE010196B6D3BE016F5FBA
:100E10007F4FCE014F9614D58C01CE01019636D668
:100E200017FD57C062E772E0CE010196A5D3BE015F
:100E30006F5F7F4FCE014F9603D58C01CE01019697
:100E400025D69801265F3F4FA8014A5F5F4FBE013C
:100E5000615E7F4FCE0101963FD6CE0101960AD545
:100E60006B017C01672B09F48DC1BE016F5F7F4F61
:100E7000CE01079679D3AE01495F5F4F6EE070E017
:100E80008BE090E06DD4CE01079600D688EE93E01B
:100E90008C9DA0018D9D500D9C9D500D1124052E03
:100EA000000C660B770B409304025093050260938D
:100EB000060270930702CE010796A7D5BE01695FAF
:100EC0007F4F86E6A7D4CE010796E0D56BE872E0A7
:100ED00067C065EA72E0CE0101964ED3BE016F5F36
:100EE0007F4FCE014F96ACD48C01CE010196CED56A
:100EF00017FD63C065EA72E0CE0101963DD3BE01E5
:100F00006F5F7F4FCE014F969BD48C01CE0101962F
:100F1000BDD59801245F3F4FA801485F5F4FBE01D8
:100F2000615E7F4FCE010196D7D5CE010196A2D446
:100F30006B017C01672B09F425C1BE016F5F7F4FF8
:100F4000CE01079611D3AE01495F5F4F62E170E0B9
:100F50008FE090E005D4CE01079698D588EE93E017
:100F60008C9DA0018D9D500D9C9D500D1124052E32
:100F7000000C660B770B40930002509301026093C4
:100F8000020270930302CE0107963FD5BE01695F4E
:100F90007F4F83E63FD4CE01079678D56DEA72E0A5
:100FA000CE010796E9D2BE016F5F7F4FCE01079653
:100FB00083D46CE972E069D41BC164EC72E0CE01A9
:100FC0000196DAD2BE016F5F7F4FCE014F9638D4C3
:100FD0008C01CE0101965AD517FD49C064EC72E030
:100FE000CE010196C9D2BE016F5F7F4FCE014F96F1
:100FF00027D48C01CE01019649D59801235F3F4F3C
:10100000A8014D5F5F4FBE01615E7F4FCE0101962B
:1010100063D5CE0101962ED4672B09F4B3C0BE016F
:101020006F5F7F4FCE0107969FD2AE01495F5F4F42
:101030006AE070E081E090E093D3CE01079626D578
:10104000BE016F5F7F4F8CE998E00BD5BE016F5FEB
:101050007F4FCE01079688D2BE01695F7F4F8EE633
:10106000D9D3CE01079612D568EC72E0B8C060EE15
:1010700072E0CE01019680D2BE016F5F7F4FCE013C
:101080004F96DED38C01CE01019600D517FD49C0E5
:1010900060EE72E0CE0101966FD2BE016F5F7F4FAE
:1010A000CE014F96CDD38C01CE010196EFD498019D
:1010B000235F3F4FA8014D5F5F4FBE01615E7F4FD1
:1010C000CE01019609D5CE010196D4D3672B09F440
:1010D00059C0BE016F5F7F4FCE01079645D2AE016A
:1010E000495F5F4F6CE170E083E190E039D3CE015E
:1010F0000796CCD4BE016F5F7F4F86E998E0B1D4EC
:10110000BE016F5F7F4FCE0107962ED2BE01695F91
:101110007F4F8FE67FD3CE010796B8D464EE72E09E
:101120005EC06CEF72E0CE01019626D2BE016F5F09
:101130007F4FCE014F9684D38C01CE010196A6D469
:1011400017FD60C06CEF72E0CE01019615D2BE01B2
:101150006F5F7F4FCE014F9673D38C01CE01019606
:1011600095D49801235F3F4FA8014D5F5F4FBE01AB
:10117000615E7F4FCE010196AFD4CE0101967AD346
:10118000672B31F468E772E080EC98E0FED337C05B
:10119000BE016F5F7F4FCE010796E6D1AE01495F7A
:1011A0005F4F66E270E08DE190E0DAD2CE01079603
:1011B0006DD4BE016F5F7F4F80E998E052D4BE01CD
:1011C0006F5F7F4FCE010796CFD1BE01695F7F4F22
:1011D00080E720D3CE01079659D460E073E0CE01BA
:1011E0000796CAD1BE016F5F7F4FCE01079664D3C9
:1011F000BC0180EC98E035D4CE01079647D468E86E
:1012000072E0F5CD68E173E0CE010196B5D1BE0183
:101210006F5F7F4FCE014F9613D38C01CE010196A5
:1012200035D417FD7FC06BE173E0CE010196A4D1E8
:101230006BE273E0CE0107969FD1BE01695F7F4FDD
:10124000CE014F96FDD28C01CE0107961FD417FD1B
:1012500008C06CE978E0CE01439686D161E070E089
:1012600018C06FE273E0CE01079686D1BE01695FB8
:101270007F4FCE014F96E4D28C01CE01079606D463
:1012800017FD2BC066E978E0CE0143966DD162E090
:1012900070E0CE010D968ED3BE016F5F7F4FCE0101
:1012A000079662D1BE01635F7F4FCE01079604D3DC
:1012B0006DE476E0EAD2BE016D5E7F4FFDD2BC01E7
:1012C000CE010196CED3CE010796E0D3CE010D9686
:1012D000DDD3CE014396DAD31EC063E373E0CE01C3
:1012E00007964AD1BE01695F7F4FCE014F96A8D2C3
:1012F0008C01CE010796CAD317FD08C060E978E0DB
:10130000CE01439631D163E070E0C3CF67E373E071
:10131000CE0101963AD3BE016F5F7F4F80EC98E01B
:10132000A0D36DCF67E573E0CE01019625D1BE0154
:101330006F5F7F4FCE014F9683D28C01CE01019615
:10134000A5D317FD32C066E076E0CE01079614D132
:1013500066E076E0CE0101960FD18AE011DA0197BE
:1013600041F469E673E0CE0107960FD360E673E0BF
:1013700007C069E873E0CE01079607D363E673E020
:10138000CE01019602D3BE016F5F7F4FCE010D9655
:10139000EBD0CE010D9666D4CE010D9677D3CE015B
:1013A000019674D3CE0107967CC066E673E0CE0149
:1013B0000196E2D0BE016F5F7F4FCE014F9640D2C3
:1013C0008C01CE01019662D317FD13C06DE673E068
:1013D000CE010196D1D063E873E0CE010796CCD060
:1013E000CE0107963FD4CE01079650D384E090E01B
:1013F00023C066E873E0CE010196BED0BE016F5FE8
:101400007F4FCE014F961CD28C01CE0101963ED368
:1014100017FD17C06DE873E0CE010196ADD063EA09
:1014200073E0CE010796A8D0CE0107961BD4CE015B
:1014300007962CD385E090E09093CA068093C90666
:101440002EC066EA73E0CE01019696D0BE016F5FB2
:101450007F4FCE014F96F4D18C01CE01019616D369
:1014600017FD20C06CEA73E0CE01019685D062ECD6
:1014700073E0CE01079680D0CE010796F3D3CE015C
:10148000079604D31092CA061092C9061092C70696
:101490001092C80660E08AE09BD988E071D9CE013D
:1014A0000196F4D2CE014F96F1D2CE014996EED2FA
:1014B000A4960FB6F894DEBF0FBECDBFDF91CF91DB
:1014C0001F910F91FF90EF90DF90CF9008950895B6
:1014D000CF92DF92EF92FF920F931F93CF93DF9300
:1014E0006C017A018B01C0E0D0E0CE15DF0581F000
:1014F000D8016D918D01D601ED91FC910190F081A3
:10150000E02DC6011995892B11F02196EECF7E01B1
:10151000C701DF91CF911F910F91FF90EF90DF9066
:10152000CF90089584E497E00E94790121E0892B0F
:1015300009F420E0822F0895CF93DF931F921F922A
:10154000CDB7DEB7FC0111821082138212821582A0
:10155000148269831A82BE016F5F7F4F16D20F908B
:101560000F90DF91CF910895FC01118210821382B8
:1015700012821582148275C2FC01118210821382BC
:101580001282158214826115710549F0FB010190E8
:101590000020E9F73197AF01461B570BD7C10895DB
:1015A0001F920F920FB60F9211240BB60F922F932A
:1015B0003F934F935F936F937F938F939F93AF93DB
:1015C000BF93EF93FF9384E497E022D8FF91EF91CC
:1015D000BF91AF919F918F917F916F915F914F914B
:1015E0003F912F910F900BBE0F900FBE0F901F9049
:1015F00018950F931F93ADD960934C0770934D07C7
:1016000080934E0790934F0784E497E00E94570120
:1016100097FF1EC09ED900914C0710914D07209155
:101620004E0730914F07DC01CB01801B910BA20BC1
:10163000B30B009148071091490720914A07309158
:101640004B0780179107A207B307F0F28FEF9FEFC8
:101650001F910F910895FC0124813581232B31F4D2
:1016600021E061157105A1F0FB0108C0FC0180813A
:1016700091816115710531F421E0FC01808188239D
:1016800039F005C00E942D1E21E0892B09F020E0D1
:10169000822F0895CF93DF93EC0188819981009781
:1016A00011F00E943319198218821D821C821B823C
:1016B0001A82DF91CF9108950F931F93CF93DF93F9
:1016C000EC0188819981009729F02A813B812617B6
:1016D000370788F48B016F5F7F4F0E94401D009792
:1016E00061F0998388831B830A832C813D81232B9E
:1016F00011F4FC01108281E001C080E0DF91CF9104
:101700001F910F910895EF92FF920F931F93CF9324
:10171000DF936115710511F480E01BC0411551057F
:10172000B9F07B01EC018C819D818A01080F191FA2
:10173000B801CE01C1DF882379F3288139818C81FA
:101740009D81B701820F931F0E94361E1D830C835B
:1017500081E0DF91CF911F910F91FF90EF9008955D
:10176000CF92DF92EF92FF920F931F93CF93DF936D
:101770008C017B016A01EC01EC16FD06F4F0CE0150
:10178000801B910BF601248135818217930750F459
:10179000208131812115310529F0F901E80FF91F68
:1017A000608101C060E0CE010E947A1B64E170E0BC
:1017B00080E090E096D82196DFCFDF91CF911F9106
:1017C0000F91FF90EF90DF90CF9008956115710514
:1017D00049F0FB0101900020E9F73197AF01461B6A
:1017E000570B76CE80E090E00895CF93DF93FC0115
:1017F000448155816081718184E497E069DEEC0168
:1018000064E076E084E497E0E1DF8C0F9D1FDF91D8
:10181000CF910895CF93DF93EB01682F81EE97E08E
:101820000E9453034C815D816881798181EE97E04C
:101830004FDE66EC73E081EE97E0DF91CF91C6CF8B
:10184000CF93DF93FC0124813581232B71F0FB01C1
:10185000DC01CD91DC9160817181CE010E943D1E41
:10186000009719F08C1B9D0B02C08FEF9FEFDF914B
:10187000CF910895FC0180819181009711F00C9423
:10188000BC1960E070E0CB010895CF93DF93EC01C9
:101890006115710559F0FB0101900020E9F73197BE
:1018A000AF01461B570B2FDF811102C0CE01F2DEC4
:1018B000CE01DF91CF910895CF93DF93EC01FB012F
:1018C00044815581608171811EDF811102C0CE018A
:1018D000E1DECE01DF91CF9108950F931F93CF9357
:1018E000DF938C01EB01FC01808191810097B1F0C5
:1018F000688179816115710579F0428153812C816C
:101900003D814217530740F00E94361E8C819D8115
:10191000F8019583848313C00E94331988819981CB
:10192000F801918380838A819B81938382838C8158
:101930009D8195838483198218821B821A821D825D
:101940001C82DF91CF911F910F910895EF92FF922A
:101950000F931F93CF93DF93EC017B018A01BA01B0
:10196000ABDE811103C0CE0195DE07C01D830C8361
:10197000B701888199810E94361ECE01DF91CF91F7
:101980001F910F91FF90EF900895CF93DF93EC019B
:101990006115710551F0FB0101900020E9F73197C5
:1019A000AF01461B570BD2DF01C074DECE01DF91C1
:1019B000CF9108950F931F93CF93DF93CDB7DEB7E9
:1019C00062970FB6F894DEBF0FBECDBF8C01CB017E
:1019D000F8011182108213821282158214824AE069
:1019E000BE016F5F7F4F0E94E219BE016F5F7F4FA4
:1019F000C801CBDF62960FB6F894DEBF0FBECDBF35
:101A0000DF91CF911F910F9108950F931F93CF9363
:101A1000DF93CDB7DEB7A1970FB6F894DEBF0FBE48
:101A2000CDBF8C01CB01BA01F80111821082138263
:101A30001282158214822AE0AE014F5F5F4F0E942E
:101A40000F1ABE016F5F7F4FC8019FDFA1960FB6CF
:101A5000F894DEBF0FBECDBFDF91CF911F910F91E4
:101A60000895CF93DF93EC01FB018617970751F0A0
:101A7000608171816115710521F04481558166DFB6
:101A800001C008DECE01DF91CF910895FC01808175
:101A900091810C9433190F931F93CF93DF931F926F
:101AA0001F92CDB7DEB78C0166E076E065DDA1DD83
:101AB00097FD0AC089831A8241E050E0BE016F5F42
:101AC0007F4FC80120DEF3CFC8010F900F90DF9148
:101AD000CF911F910F910895AF92BF92CF92DF9255
:101AE000EF92FF920F931F93CF93DF936C015B01F3
:101AF0008A0179012417350720F4812F8901E42E0A
:101B0000F82E66E076E0C60137DDD5011496CD915A
:101B1000DC9115970C171D07C0F4EC16FD0608F4B0
:101B2000E701D501ED91FC911197EC0FFD1FF080BD
:101B300010826D917C91600F711FC60126DFF50147
:101B400080819181C80FD91FF882C601DF91CF91A2
:101B50001F910F91FF90EF90DF90CF90BF90AF90CB
:101B600008950F931F93CF93DF93CDB7DEB72C97D4
:101B70000FB6F894DEBF0FBECDBF8C0167E076E0F4
:101B8000CE010796F9DCB801CE01079695DE69E132
:101B900076E07BDEBC01CE010196E6DCBE016F5F24
:101BA0007F4F8AE637DECE01019670DFCE010796C1
:101BB0006DDF61E089E00E94E80368EE73E080E099
:101BC00090E00E94710460E089E00E94E80368E808
:101BD00073E180E090E00E94710464E276E0CE015F
:101BE0000796CADCB801CE01079666DE69E176E0A9
:101BF0004CDEBC01CE010196B7DCBE016F5F7F4FAA
:101C00008AE608DECE01019641DFCE0107963EDF6F
:101C1000CE01019640DFBE016F5F7F4F84E898E000
:101C20005CDECE01019632DF64E878E0CE010196F9
:101C30009BDCBE016F5F7F4F89E6ECDDCE01019634
:101C400025DF6AE070E080E090E00E9471042C964D
:101C50000FB6F894DEBF0FBECDBFDF91CF911F91BD
:101C60000F9108950F931F93CF93DF93CDB7DEB7F6
:101C70006E970FB6F894DEBF0FBECDBF8C0166E045
:101C800076E0CE01499678DC63E376E0CE014996B2
:101C90007CDEBE01675E7F4FCE01019665DCBE0132
:101CA0006F5F7F4F8AE6B6DDCE010196EFDE60E41E
:101CB00076E0CE01439660DC62E476E0CE010D96DC
:101CC0005BDCBE01635F7F4FCE0101964DDCBE0140
:101CD0006D5E7F4FCE010196EFDD6CE978E0ECDDC3
:101CE000BE016D5E7F4FE8DDBC01CE0107963CDC96
:101CF000CE010196CBDE69E574E084E497E066DD11
:101D000064E670E080E090E00E947104CE010796E6
:101D10006CDD64E670E080E090E00E94710460E5B4
:101D200072E0C80198DC882319F08AEE98E008C0B8
:101D30006FE672E0C8018FDC882369F084EE98E0DA
:101D400054DD60910902CE010196F6DBBE016F5FA2
:101D50007F4F8DE68AC067E874E0C8017CDC882389
:101D600031F08EED98E041DD6EED78E077C063E80C
:101D700073E0C80170DC882331F088ED98E035DD30
:101D800068ED78E06BC063EA73E0C80164DC882327
:101D900031F082ED98E029DD62ED78E05FC064E922
:101DA00074E0C80158DC882331F08CEC98E01DDD2C
:101DB0006CEC78E053C06FE476E0C8014CDC88231B
:101DC00031F086EC98E011DD66EC78E047C068E819
:101DD00072E0C80140DC882331F080EC98E005DD3A
:101DE00060EC78E03BC060E673E0C80134DC882337
:101DF00031F08AEB98E0F9DC6AEB78E02FC063E61B
:101E000073E0C80128DC882331F084EB98E0EDDC36
:101E100064EB78E023C062EC73E0C8011CDC88232B
:101E200031F08EEA98E0E1DC6EEA78E017C067E70F
:101E300074E0C80110DC882331F088EA98E0D5DC32
:101E400068EA78E00BC06AE774E0C80104DC882324
:101E500081F082EA98E0C9DC62EA78E0CE0101967E
:101E600083DBBE016F5F7F4F8AE6D4DCCE01019633
:101E70000DDE64E670E080E090E00E9471046AE1AB
:101E800084E497E00E94530364E076E084E497E002
:101E90009DDC64E670E080E090E00E94710464E004
:101EA00076E084E497E092DC68E873E180E090E01B
:101EB0000E947104CE010796E9DDCE010D96E6DDA4
:101EC000CE014396E3DDCE014996E0DD6E960FB676
:101ED000F894DEBF0FBECDBFDF91CF911F910F9160
:101EE0000895CF93DF9300D000D0CDB7DEB7209117
:101EF0000902213351F4BC01CE01019635DBCE013C
:101F00000196B0DECE010196C1DD26960FB6F8949B
:101F1000DEBF0FBECDBFDF91CF9108958EE798E071
:101F2000B5DD84E898E0B2DD8AE898E0AFDD80E9CD
:101F300098E0ACDD86E998E0A9DD8CE998E0A6DDC3
:101F400082EA98E0A3DD88EA98E0A0DD8EEA98E0D6
:101F50009DDD84EB98E09ADD8AEB98E097DD80ECDC
:101F600098E094DD86EC98E091DD8CEC98E08EDDD5
:101F700082ED98E08BDD88ED98E088DD8EED98E0CD
:101F800085DD84EE98E082DD8AEE98E07FCDCF9308
:101F9000DF93CDB7DEB7E4970FB6F894DEBF0FBE80
:101FA000CDBF789484B5826084BD84B5816084BDE2
:101FB00085B5826085BD85B5816085BD80916E00E7
:101FC000816080936E001092810080918100826018
:101FD0008093810080918100816080938100809155
:101FE00080008160809380008091B1008460809344
:101FF000B1008091B00081608093B0008091910029
:102000008260809391008091910081608093910023
:10201000809190008160809390008091A100826007
:102020008093A1008091A10081608093A1008091A4
:10203000A00081608093A000809121018260809344
:1020400021018091210181608093210180912001F3
:1020500081608093200180917A00846080937A006F
:1020600080917A00826080937A0080917A0081600A
:1020700080937A0080917A00806880937A00109231
:10208000C10060E083E00E94160461E08AE00E94E3
:10209000160460E08AE00E94E80362E08BE00E94A0
:1020A000160462E088E00E94160488E00E94C003E3
:1020B00082E090E09093E5068093E4068FE892E456
:1020C000AAE6B3E48093E8069093E906A093EA06B3
:1020D000B093EB068AE999E9A9EDBFE38093F00696
:1020E0009093F106A093F206B093F30680E090E09F
:1020F000A0E0B4E48093040790930507A09306073B
:10210000B0930707E091F107F091F20722E02083F6
:10211000E091ED07F091EE071082E091EF07F0916A
:10212000F0078FEC80831092F907E091F507F091AA
:10213000F60796E09083E091F307F091F407808131
:1021400080618083E091F307F091F40780818860DB
:102150008083E091F307F091F407808180688083A9
:10216000E091F307F091F40780818F7D8083E09107
:102170005407F09155072083E0915007F0915107E3
:102180001082E0915207F091530787E68083109206
:102190005C07E0915807F09159079083E09156074A
:1021A000F0915707808180618083E0915607F0911C
:1021B0005707808188608083E0915607F091570728
:1021C000808180688083E0915607F0915707808175
:1021D0008F7D80830E94A9046B017C0181EE97E0D2
:1021E0000E9479018C010E94A904DC01CB018C19A9
:1021F0009D09AE09BF0981319742A105B10578F467
:102200001016110664F065EC73E081EE97E0DEDAFB
:102210006CE271E080E090E00E947104DFCF6EE735
:1022200078E0CE010196A0D9BE016F5F7F4F8BE6AB
:10223000F1DACE0101962ADC6AE878E0CE01019657
:1022400093D9CE0101968DDCCE0101961FDC68EC9E
:1022500073E0CE01019690D9BE016F5F7F4F84E895
:1022600098E0EEDA8C01CE01019610DC17FD1DC05E
:102270006DEC73E0CE0101967FD9BE016F5F7F4F99
:102280008AE6C8DACE01019601DC62EF73E08AE8E3
:1022900098E07BDB6AE878E0CE01019665D9CE0153
:1022A00001965FDCCE010196F1DB6BEF73E0CE01AE
:1022B000019662D9BE016F5F7F4F8AE6ABDACE012D
:1022C0000196E4DB60E27EE480E090E00E9471042D
:1022D00061E174E0CE0101964FD9BE016F5F7F4F7F
:1022E0008AE698DACE010196D1DB65E274E08EE7EA
:1022F00098E04BDB6EE778E0CE01019635D9BE0160
:102300006F5F7F4F8BE686DACE010196BFDB6BE312
:1023100074E0CE01019630D9BE016F5F7F4F8AE62F
:1023200079DACE010196B2DB69E574E084E497E0E6
:102330004DDA64E670E080E090E00E94710464E6AB
:1023400074E084E497E042DA64E670E080E090E0D4
:102350000E947104CE0101969EDBBE016F5F7F4F2C
:1023600084E898E0BADACE01019690DB64E878E080
:10237000CE010196F9D8BE016F5F7F4F89E64ADA38
:10238000CE01019683DB6AE070E080E090E00E947D
:10239000710480E090E00E94721B8093090266E065
:1023A00076E08CE998E0F1DA4AE050E061E070E034
:1023B000CE0101960E942C06BE016F5F7F4F8CE913
:1023C00098E08BDACE01019661DB4EE050E06BE0E5
:1023D00070E0CE0101960E942C06CE0101964ADAE9
:1023E0009B01AC01A8EEB3E00E94881B609304023D
:1023F000709305028093060290930702CE01019626
:1024000045DB42E150E06FE070E0CE0101960E94B2
:102410002C06CE0101962EDA9B01AC01A8EEB3E0AA
:102420000E94881B60930002709301028093020255
:1024300090930302CE01019629DB40910002509156
:1024400001026091020270910302CE010196DDDA71
:10245000BE016F5F7F4F83E6DDD9CE01019616DBAB
:102460004CE150E063E170E0CE0101960E942C0641
:10247000BE016F5F7F4F86E998E02FDACE010196AB
:1024800005DB46E250E06DE170E0CE0101960E946E
:102490002C06BE016F5F7F4F80E998E01EDACE0107
:1024A0000196F4DA60910902CE01019645D8BE0189
:1024B0006F5F7F4F8DE6AED9CE010196E7DA6CE90A
:1024C00078E0CE01019650D8BE016F5F7F4F8EE657
:1024D000A1D9CE010196DADA66E978E0CE0101965B
:1024E00043D8BE016F5F7F4F8FE694D9CE0101962E
:1024F000CDDA60E978E0CE01019636D8BE016F5F93
:102500007F4F80E787D9CE010196C0DA3EE5309350
:102510007C0080917B00877F80937B0062E070E08D
:1025200080E090E00E94710480917A008064809342
:102530007A0080917A0086FDFCCF8091780020910E
:10254000790030E0322F2227A901330F660B770B79
:102550009A01AB01282B60E070E381E190E00E94DA
:10256000FA1C29AB3AAB4BAB5CAB0E94A9044B0104
:102570005C018091E4060E945204909329078093A5
:102580002807BC01990F880B990B99D76B017C0127
:102590002DEC3CEC4CE054E48CD787FF15C026E6CC
:1025A00036E646EE53E4C701B6010E949F1C18169A
:1025B0005CF40E94A9046DA77EA78FA798AB212C7D
:1025C000312C00E010E042C10E94A904DC01CB01E3
:1025D00088199909AA09BB09813D9740A105B10550
:1025E00040F2E7CFBFEF2B1A3B0A8091FC06909197
:1025F000FD06A091FE06B091FF068093F806909329
:10260000F906A093FA06B093FB068091E4060E94B7
:1026100052049093F5068093F4068091E6060E949A
:1026200052043C019093F7068093F6062091F4063D
:102630003091F5063AA729A7B901330F880B990BFA
:102640003ED76B017C018090040790900507A09015
:102650000607B0900707A50194010E94A11B20E086
:1026600030E040E85AE38AD7A50194010E94A21BFA
:102670009B01AC01609304077093050780930607E4
:1026800090930707C701B6010E94A11B4B015C0193
:102690006093FC067093FD068093FE069093FF0600
:1026A000B301770C880B990B0AD76B017C01409022
:1026B00008075090090760900A0770900B07A30164
:1026C00092010E94A11B20E030E040E85AE356D777
:1026D000A30192010E94A21B9B01AC016093080719
:1026E0007093090780930A0790930B07C701B601FF
:1026F0000E94A11B6B017C0160930007709301078E
:102700008093020790930307A5019401C501B401CA
:1027100035D79B01AC01609310077093110780932C
:102720001207909313076091140770911507809119
:102730001607909117070E94A21B609314077093CD
:1027400015078093160790931707A7019601C701F5
:10275000B60114D79B01AC01609318077093190759
:1027600080931A0790931B0760911C0770911D07B7
:1027700080911E0790911F07E5D760931C07709307
:102780001D0780931E0790931F074090F8065090F6
:10279000F9066090FA067090FB06A3019201C5014C
:1027A000B401CFD72091F0063091F1064091F206A6
:1027B0005091F306E3D6A3019201C4D79B01AC016B
:1027C00060930C0770930D0780930E0790930F078B
:1027D000C701B601D3D69B01AC016093200770936B
:1027E000210780932207909323076091240770911B
:1027F00025078091260790912707A4D76093240787
:1028000070932507809326079093270780912B07C5
:1028100080932A07809128079091290749A55AA5F6
:10282000841795070CF0B1C341E040932B078091CA
:102830002B0751E02516310411F480932A0790915B
:102840002A079813A5C30431110590F40E94A90426
:10285000DC01CB012DA53EA54FA558A9821B930BEA
:10286000A40BB50B803D9740A105B10508F4BACE85
:10287000A9A9BAA9BD01BB0F880B990B20D620E0EE
:1028800030E04AE754E4C2D720E030E040E85AE3C1
:1028900075D64B015C012091E8063091E906409124
:1028A000EA065091EB066AD669A77AA78BA79CA780
:1028B000B10180E090E001D62B013C019B01AC010D
:1028C0006091140770911507809116079091170772
:1028D0009DD70E94A71C9B01AC0169A57AA58BA579
:1028E0009CA54CD66B017C016093DC067093DD06E1
:1028F0008093DE069093DF062091EC063091ED0682
:102900004091EE065091EF06C501B40137D66DA790
:102910007EA78FA798ABA301920160911C077091CD
:102920001D0780911E0790911F0770D70E94A71C5A
:102930009B01AC016DA57EA58FA598A91FD64B0163
:102940005C016093E0067093E1068093E206909349
:10295000E3062DA53EA54FA558A969A57AA58BA587
:102960009CA50CD62091240730912507409126077D
:102970005091270703D6A301920148D72B013C01B0
:102980006093D0067093D1068093D2069093D306BD
:10299000A5019401C701B601F1D59B01AC0160937B
:1029A000D4067093D5068093D6069093D706C301BC
:1029B000B2012CD76093D8067093D9068093DA06BB
:1029C0009093DB06109214071092150710921607C9
:1029D0001092170710921C0710921D0710921E07E5
:1029E00010921F07109224071092250710922607B5
:1029F0001092270720E030E040E450E4C701B60120
:102A0000A0D66B017C0120E030E0A90152D587FF00
:102A100003C0C12CD12C7601C701B6015FD76093EA
:102A2000CC067093CD068093CE069093CF061CA261
:102A30001BA21EA21DA218A61FA22AE0AE014F5F74
:102A40005F4FCAD4BE016F5F7F4FCE0183960E9455
:102A5000C50CBE016D5D7F4F81E70E940A0CCE015F
:102A6000839614D84091CC065091CD066091CE0645
:102A70007091CF068091CB064530510561057105F7
:102A800044F4811117C081E08093CB0667E774E0BE
:102A900006C0882379F01092CB066AE774E0CE0175
:102AA00001960E94BC0ACE0101961BDACE01019666
:102AB0000E94460D8091CB06882319F061E572E0F3
:102AC00002C064EA73E0CE0101960E94BC0ABE0116
:102AD0006F5F7F4F82E70E940A0CCE0101960E9431
:102AE000460D0E94760688E00E94C0037C0181E0CA
:102AF000E114F10409F480E08093C8068091C706D0
:102B0000882309F444C0E114F10449F01092380715
:102B10001092390710923A0710923B076AC08090D2
:102B2000380790903907A0903A07B0903B0781147E
:102B30009104A104B10459F40E94A90460933807D8
:102B40007093390780933A0790933B0752C00E94D5
:102B5000A904DC01CB0188199909AA09BB09809352
:102B6000340790933507A0933607B0933707C0908A
:102B70000002D0900102E0900202F0900302C81619
:102B8000D906EA06FB06D0F51092C70637C0E11455
:102B9000F10409F4BBCF8090380790903907A090DA
:102BA0003A07B0903B0781149104A104B10421F2CB
:102BB0000E94A904DC01CB0188199909AA09BB0963
:102BC0008093340790933507A0933607B093370767
:102BD000C0900002D0900102E0900202F090030247
:102BE000C816D906EA06FB0630F491E09093C706B2
:102BF00002C0EF2819F06DE774E002C062E874E0EB
:102C0000CE0101960E94BC0ABE016F5F7F4F82E633
:102C10000E940A0CCE0101960E94460D40910002CE
:102C2000509101026091020270910302CE0101965F
:102C30000E94050DBE016F5F7F4F83E60E940A0C64
:102C4000CE0101960E94460D409134075091350700
:102C50006091360770913707CE0101960E94050DED
:102C6000BE016F5F7F4F8CE60E940A0CCE01019679
:102C70000E94460D8091C706882309F44DC06DE778
:102C800074E0CE0101960E94BC0ABE016F5F7F4FC7
:102C900088E60E940A0CCE0101960E94460D0E9411
:102CA000A904C0903007D0903107E0903207F0902F
:102CB0003307DC01CB018C199D09AE09BF09C09017
:102CC0002C07D0902D07E0902E07F0902F07C81604
:102CD000D906EA06FB0680F50E94A9046093300736
:102CE00070933107809332079093330720E437E7DE
:102CF0004BE150E020932C0730932D0740932E0793
:102D000050932F0767E874E0CE0101960E94BC0A39
:102D1000CE010196E6D80CC062E874E0CE010196BF
:102D20000E94BC0ABE016F5F7F4F88E60E940A0CBA
:102D3000CE0101960E94460D8BE00E94C0030197D0
:102D400031F431E0309308026AE874E004C0109274
:102D5000080260E974E0CE0101960E94BC0ABE013F
:102D60006F5F7F4F87E60E940A0CCE0101960E949A
:102D7000460D8091C9069091CA068230910551F1A5
:102D800084F40097C1F0019709F09AC060E08AE0EE
:102D90000E94E80382E090E09093CA068093C906FF
:102DA0008FC08430910509F487C054F1059709F06C
:102DB00087C060E082C041E050E05093CA06409373
:102DC000C9061092400710924107109242071092D4
:102DD000430776C080910802882309F471C0A3E0FC
:102DE000B0E0B093CA06A093C9060E94A9046093FC
:102DF0003C0770933D0780933E0790933F0760C068
:102E000080910802811117C010923C0710923D0773
:102E100010923E0710923F07109240071092410710
:102E2000109242071092430722E030E03093CA0626
:102E30002093C90645C00E94A904C0903C07D090C9
:102E40003D07E0903E07F0903F07DC01CB018C1975
:102E50009D09AE09BF098093400790934107A09355
:102E60004207B0934307C0900402D0900502E0905F
:102E70000602F0900702C816D906EA06FB0600F51E
:102E800010923C0710923D0710923E0710923F07A8
:102E900044E050E05093CA064093C90664E974E0E8
:102EA000CE0101960E94BC0ACE0101961AD8CE012D
:102EB00001960E94460D04C061E08AE00E94E8038A
:102EC0008AE00E94C003BC01CE0101960E94DA0C88
:102ED000BE016F5F7F4F81E60E940A0CCE01019612
:102EE0000E94460D6091C9067091CA06CE010196F6
:102EF0000E94DA0CBE016F5F7F4F84E60E940A0CCD
:102F0000CE0101960E94460D409140075091410725
:102F10006091420770914307CE0101960E94050D12
:102F2000BE016F5F7F4F85E60E940A0CCE010196BD
:102F30000E94460D409104025091050260910602E4
:102F400070910702CE0101960E94050DBE016F5FD0
:102F50007F4F86E60E940A0CCE0101960E94460D24
:102F600083E00E94C003BC01CE0101960E94DA0CEE
:102F7000BE016F5F7F4F83E70E940A0CCE0101966E
:102F80000E94460D0E948E01C1CA10922B074FCCA1
:102F90000F5F1F4F58CCE4E4F7E01382128288EEF3
:102FA00093E0A0E0B0E084839583A683B78324E117
:102FB00032E0318320834DEC50E0558744874CEC60
:102FC00050E05787468748EC50E0518B408B49ECE6
:102FD00050E0538B428B4AEC50E0558B448B4EECC7
:102FE00050E0578B468B118E128E138E148EE1EEAD
:102FF000F7E01382128284839583A683B78331839B
:10300000208325EC30E03587248724EC30E03787B7
:10301000268720EC30E0318B208B21EC30E0338BA5
:10302000228B22EC30E0358B248B26EC30E0378B82
:10303000268B118E128E138E148EE0EFF8E0138221
:10304000128284839583A683B78386E292E091837C
:10305000808367E974E08AEE98E00E94BC0A69EA1E
:1030600074E084EE98E00E94BC0A6BEB74E08EED95
:1030700098E00E94BC0A69EE74E088ED98E00E9436
:10308000BC0A6CEF74E082ED98E00E94BC0A6FE02D
:1030900075E08CEC98E00E94BC0A60E575E086EC77
:1030A00098E00E94BC0A66E076E080EC98E00E941E
:1030B000BC0A6DE675E08AEB98E00E94BC0A60E805
:1030C00075E084EB98E00E94BC0A63E975E08EEA43
:1030D00098E00E94BC0A6EEA75E088EA98E00E94D7
:1030E000BC0A62ED75E082EA98E00E94BC0A66E0E4
:1030F00076E08CE998E00E94BC0A66E076E086E91A
:1031000098E00E94BC0A66E076E080E998E00E94C0
:10311000BC0A66E076E08AE898E00E94BC0A66E0B5
:1031200076E084E898E00E94BC0A65EF75E08EE7DF
:1031300098E00C94BC0A0F931F93CF93DF938230D7
:10314000910510F482E090E0E091FE08F091FF0814
:1031500020E030E0A0E0B0E0309719F140815181EB
:103160000281138148175907C8F08417950769F43D
:10317000109731F012960C93129713961C9327C058
:103180000093FE081093FF0822C02115310519F0A5
:103190004217530718F49A01BD01EF01DF01F8014E
:1031A000DBCF21153105F9F0281B390B243031050F
:1031B00080F48A819B816115710521F0FB01938365
:1031C000828304C09093FF088093FE08FE0132962C
:1031D00044C0FE01E20FF31F819391932250310905
:1031E000398328833AC02091FC083091FD08232BB5
:1031F00041F420910C0230910D023093FD08209390
:10320000FC0820910A0230910B022115310541F48E
:103210002DB73EB740910E0250910F02241B350B83
:10322000E091FC08F091FD08E217F307A0F42E1BD3
:103230003F0B2817390778F0AC014E5F5F4F24171A
:10324000350748F04E0F5F1F5093FD084093FC0870
:103250008193919302C0E0E0F0E0CF01DF91CF9144
:103260001F910F910895CF93DF93009709F481C0C8
:10327000FC01329713821282A091FE08B091FF08E0
:10328000109781F420813181820F931F2091FC08D7
:103290003091FD082817390751F5F093FD08E093A8
:1032A000FC0867C0ED0120E030E0CE17DF0740F4F6
:1032B0004A815B819E0141155105F1F0EA01F5CF8C
:1032C000D383C28340815181840F951FC817D907CA
:1032D00059F488819981840F951F02969183808388
:1032E0008A819B81938382832115310529F4F09390
:1032F000FF08E093FE083DC0E901FB83EA834991A2
:103300005991C40FD51FEC17FD0761F4808191819D
:10331000840F951F0296E9019983888382819381A6
:103320009B838A83E0E0F0E012968D919C91139745
:10333000009719F0FD01DC01F7CF8D919C91119759
:103340009D012E5F3F4F820F931F2091FC0830910B
:10335000FD082817390769F4309729F41092FF08FF
:103360001092FE0802C013821282B093FD08A0934F
:10337000FC08DF91CF9108951F93FC0199278827BE
:10338000BC01E89411911032E9F3193010F01E30AD
:10339000C8F31B3249F01D3241F4689405C02AD0AD
:1033A000610F711D811D911D119110531A30B8F3D9
:1033B0003EF490958095709561957F4F8F4F9F4F0C
:1033C0001F910895BB274A3031F4992322F4BDE2BE
:1033D000909581959F4F45C0BB272A3051F4992382
:1033E00042F4BDE290958095709561957F4F8F4F27
:1033F0009F4F16C0592F482F372F262F660F771F44
:10340000881F991F660F771F881F991F620F731FF0
:10341000841F951F660F771F881F991F0895BB276C
:10342000FA01A62F6217710581059105330B30FB58
:1034300066F0AA27660F771F881F991FAA1FA21779
:1034400010F0A21B63953850A9F7A05DAA3308F0CD
:10345000A95DA19336F7B111B1931082CA0119C0C9
:10346000BB27FB015527AA27880F991FAA1FA4175E
:1034700010F0A41B83955051B9F7A05DAA3308F052
:10348000A95DA193009779F7B111B1931192CB0186
:1034900000C0DC01FC01672F71917723E1F73297BF
:1034A00004C07C916D9370836291AE17BF07C8F31F
:1034B000089540D008F481E00895E89409C097FB8E
:1034C0003EF490958095709561957F4F8F4F9F4FFB
:1034D0009923A9F0F92F96E9BB279395F69587953F
:1034E00077956795B795F111F8CFFAF4BB0F11F402
:1034F00060FF1BC06F5F7F4F8F4F9F4F16C08823A9
:1035000011F096E911C0772321F09EE8872F762FDE
:1035100005C0662371F096E8862F70E060E02AF01F
:103520009A95660F771F881FDAF7880F969587950B
:1035300097F90895990F0008550FAA0BE0E8FEEFE0
:1035400016161706E807F907C0F012161306E40767
:10355000F50798F0621B730B840B950B39F40A2660
:1035600061F0232B242B252B21F408950A2609F43E
:10357000A140A6958FEF811D811D08950BD078C0C5
:1035800069D028F06ED018F0952309F05AC05FC0BA
:103590001124A2C07ED0A0F3959FD1F3950F50E0E7
:1035A000551F629FF001729FBB27F00DB11D639FF5
:1035B000AA27F00DB11DAA1F649F6627B00DA11D9B
:1035C000661F829F2227B00DA11D621F739FB00D41
:1035D000A11D621F839FA00D611D221F749F3327B1
:1035E000A00D611D231F849F600D211D822F762F4A
:1035F0006A2F11249F5750408AF0E1F088234AF047
:10360000EE0FFF1FBB1F661F771F881F9150504092
:10361000A9F79E3F510570F014C05EC05F3FECF308
:10362000983EDCF3869577956795B795F795E7957E
:103630009F5FC1F7FE2B880F911D9695879597F98F
:10364000089597F99F6780E870E060E008959FEF24
:1036500080EC089500240A94161617061806090629
:10366000089500240A9412161306140605060895F8
:10367000092E0394000C11F4882352F0BB0F40F480
:10368000BF2B11F460FF04C06F5F7F4F8F4F9F4FC0
:10369000089557FD9058440F551F59F05F3F71F042
:1036A0004795880F97FB991F61F09F3F79F08795A9
:1036B0000895121613061406551FF2CF4695F1DF32
:1036C00008C0161617061806991FF1CF86957105C2
:1036D000610508940895E894BB2766277727CB01F6
:1036E00097F90895F999FECF92BD81BDF89A99276F
:1036F00080B50895262FF999FECF1FBA92BD81BDDE
:1037000020BD0FB6F894FA9AF99A0FBE0196089563
:1037100009D0A59F900DB49F900DA49F800D911D81
:1037200011240895A29FB001B39FC001A39F700D03
:10373000811D1124911DB29F700D811D1124911DB9
:1037400008955058BB27AA270ED092CF83DF30F0C0
:1037500088DF20F031F49F3F11F41EF478CF0EF48F
:10376000E095E7FB6ECFE92F94DF80F3BA1762078D
:1037700073078407950718F071F49EF5ACCF0EF42B
:10378000E0950B2EBA2FA02D0B01B90190010C0171
:10379000CA01A0011124FF27591B99F0593F50F489
:1037A000503E68F11A16F040A22F232F342F4427E1
:1037B000585FF3CF469537952795A795F0405395D9
:1037C000C9F77EF41F16BA0B620B730B840BBAF0A9
:1037D0009150A1F0FF0FBB1F661F771F881FC2F714
:1037E0000EC0BA0F621F731F841F48F48795779528
:1037F0006795B795F7959E3F08F0B3CF9395880FDF
:1038000008F09927EE0F9795879508950CD030CF43
:1038100028DF40F01FDF30F021F45F3F19F011CFB7
:1038200051115ACF14CF35DF98F39923C9F355239B
:10383000B1F3951B550BBB27AA27621773078407A3
:1038400038F09F5F5F4F220F331F441FAA1FA9F359
:1038500033D00E2E3AF0E0E830D091505040E6954B
:10386000001CCAF729D0FE2F27D0660F771F881FAC
:10387000BB1F261737074807AB07B0E809F0BB0B9B
:10388000802DBF01FF2793585F4F2AF09E3F5105BF
:1038900068F0D7CE21CF5F3FECF3983EDCF38695FE
:1038A00077956795B795F7959F5FC9F7880F911D35
:1038B0009695879597F90895E1E0660F771F881F21
:1038C000BB1F621773078407BA0720F0621B730BD4
:1038D000840BBA0BEE1F88F7E095089504D0689426
:1038E000B111FACE0895DDDE88F09F5790F0B92F20
:1038F0009927B751A0F0D1F0660F771F881F991F45
:103900001AF0BA95C9F712C0B13081F0E4DEB1E027
:103910000895E1CE672F782F8827B85F39F0B93F37
:10392000CCF3869577956795B395D9F73EF4909546
:103930008095709561957F4F8F4F9F4F0895FADD69
:1039400008F48FEF089511F40EF481CE3EC0A9DE85
:10395000D0F39923D9F3CEF39F57550B87FF43D06C
:103960000024A0E640EA900180585695979528F4E7
:10397000805C660F771F881F20F0261737074807DF
:1039800030F4621B730B840B202931294A2BA69536
:1039900017940794202531254A2758F7660F771F7B
:1039A000881F20F026173707480730F4620B730B87
:1039B000840B200D311D411DA09581F7B901842F85
:1039C0009158880F9695879508959F3F31F09150B3
:1039D00020F4879577956795B795880F911D9695F3
:1039E000879597F9089591505040660F771F881F6B
:1039F000D2F70895052E97FB16F400940FD057FDCB
:103A000005D01CD007FC02D046F408C05095409564
:103A1000309521953F4F4F4F5F4F0895909580957A
:103A2000709561957F4F8F4F9F4F0895EE0FFF1F49
:103A3000881F8BBF0790F691E02D1994A1E21A2EF2
:103A4000AA1BBB1BFD010DC0AA1FBB1FEE1FFF1F42
:103A5000A217B307E407F50720F0A21BB30BE40B92
:103A6000F50B661F771F881F991F1A9469F76095D9
:103A70007095809590959B01AC01BD01CF01089593
:103A80006F927F928F929F92AF92BF92CF92DF926E
:103A9000EF92FF920F931F93CF93DF93009781F4E0
:103AA000CB01DF91CF911F910F91FF90EF90DF90AD
:103AB000CF90BF90AF909F908F907F906F903BCBB7
:103AC000FC01E60FF71F9C0122503109E217F307B2
:103AD00008F4A5C0EC01D9010D911C9111970617AE
:103AE0001707A8F00530110508F497C0C80104971E
:103AF0008617970708F491C002501109061B170B8F
:103B0000019311936D937C93CF01ADDB86C05B0174
:103B1000A01AB10A4C01800E911EA091FE08B0912E
:103B2000FF08612C712CE12CF12C109709F446C090
:103B30008D919C911197A815B905B1F56C0142E0E2
:103B4000C40ED11CCA14DB0478F14C018A189B08FE
:103B5000640142E0C40ED11C1296BC9012971396D9
:103B6000AC91B5E0CB16D10440F0B282A383918230
:103B70008082D9016D937C9309C00E5F1F4F800F27
:103B8000911FF90191838083EB2DFA2FE114F10449
:103B900031F0D7011396FC93EE9312973EC0F09349
:103BA000FF08E093FE0839C06816790608F43C0166
:103BB0007D0112960D90BC91A02DB7CF8091FC088D
:103BC0009091FD0888169906E1F466167706C8F408
:103BD00080910A0290910B02009741F48DB79EB735
:103BE00040910E0250910F02841B950BE817F907C4
:103BF000B0F4F093FD08E093FC08F9017183608351
:103C00000CC0CB0198DA7C01009749F0A801BE01F5
:103C10001BD0CE0128DBC70104C0CE0102C080E06A
:103C200090E0DF91CF911F910F91FF90EF90DF9087
:103C3000CF90BF90AF909F908F907F906F9008959E
:103C400081E090E0F89433C0FB01DC0102C00190F8
:103C50000D9241505040D8F70895FB01DC018D9141
:103C6000019080190110D9F3990B0895FB01DC0133
:103C700001900D920020E1F70895FB015191552329
:103C8000A9F0BF01DC014D9145174111E1F759F44D
:103C9000CD010190002049F04D9140154111C9F32B
:103CA000FB014111EFCF81E090E00197089511E011
:103CB000C5E1D1E000E005C0802FFE01B7DE21960E
:103CC000011DC631D10780E00807B1F7F894FFCF96
:103CD00010270000201C00000131000000098000B6
:103CE000000000005303680A48019F03790157014F
:103CF0006B010000000087027D0297026F027602CE
:103D000073027002536D732061616E00534D532036
:103D1000776F7264742041414E2067657A65740044
:103D2000303100536D732075697400534D53207703
:103D30006F726474205549542067657A6574003049
:103D4000320044726F6F6700466F757469657665FF
:103D500020696E766F65720031330064726F6F6731
:103D600074696A64206973206E7520007365636FDF
:103D70006E64656E00566C6F74746572006C616180
:103D80006777617465722064656C6179206973205E
:103D90006E75200054313D0074656C65666F6F6E02
:103DA0006E756D6D65722031206973206E7520000F
:103DB00054323D0074656C65666F6F6E6E756D6D27
:103DC00065722032206973206E75200054333D00E7
:103DD00074656C65666F6F6E6E756D6D65722033A0
:103DE000206973206E7520003F740054656C656611
:103DF0006F6F6E6E756D6D657220003F7431003FA0
:103E00007432003F743300666F757420696E2061F0
:103E1000616E76726161672074656C65666F6F6E46
:103E20006E756D6D657200537461747573703200D8
:103E300031340031350050322061616E00506F6DB9
:103E4000703220776F7264742041414E2067657A2A
:103E500065740030390050322075697400506F6D00
:103E6000703220776F726474205549542067657AE8
:103E70006574003130005265736574004172647579
:103E8000696E6F20776F7264742067657265736501
:103E90007400313600412300444F574E006D6F646B
:103EA000656D2069732075697467657A65742E2065
:103EB0004F706E69657577206F7073746172746589
:103EC0006E006F706E696575772000475052532001
:103ED0006D6F64656D206C6F6774206F6E2E2E2E73
:103EE0000047505253206D6F64656D2072656164A8
:103EF000792E2E2E00766572626F6E64656E206D6F
:103F00006574206E65747765726B006D6F64656DA6
:103F100020776F72647420696E20534D53206D6F4B
:103F200064652067657A65740041542B434D4746AC
:103F30003D310D0041542B434E4D493D322C322C26
:103F4000302C302C300D003137003138004C4141DD
:103F50004700484F4F470030380044524F4F47000A
:103F60004E415400313100534D53206B6F64652036
:103F700061616E67657A657400534D53206B6F64A1
:103F8000652075697467657A6574004465206261AF
:103F90006B2076616E206465206F6E74776F72742B
:103FA000656C646520626F6F6D206973206C656558
:103FB000672E2048454C502100506F6D70322069AB
:103FC000732041414E2067657A657400506F6D70B3
:103FD00032206973205549542067657A657400570B
:103FE000617465722073656E736F722064726F6F97
:103FF000673B20506F6D7020322076616E206F6EAF
:1040000074776F7274656C646520626F6F6D206980
:104010007320696E6765736368616B656C6421000A
:104020005465737462657269636874204F6E747747
:104030006F7274656C646520626F6F6D005374619C
:1040400074757320706F6D7032203D2041414E00B9
:1040500053746174757320706F6D7032203D2055FC
:1040600049540041726475696E6F20424F4F4D2074
:10407000776F7264742067657265736574004E654E
:10408000747370616E6E696E6720776567676576B9
:10409000616C6C656E2062696A20646520626F6F76
:1040A0006D004E65747370616E6E696E6720776522
:1040B00065722074657275672062696A2064652084
:1040C000626F6F6D006E69657420766572626F6EE7
:1040D00064656E000D0A0047505253206D6F646591
:1040E0006D20776F726474200067657374617274F9
:1040F0002E2E2E0047505253206D6F64656D20693F
:1041000073200041726475696E6F2062656C740083
:1041100022004154202B20434D4753203D200031A5
:0241200032006B
:00000001FF
