:1000000092C10000C1C10000BFC10000BDC100001D
:10001000BBC10000B9C10000B7C10000B5C10000FC
:10002000B3C10000B1C10000AFC10000ADC100000C
:10003000ABC10000A9C10000A7C10000A5C100001C
:10004000A3C10000A1C100009FC100009DC100002C
:100050009BC1000099C1000097C100000C941D0CC9
:1000600093C100000C94590B0C94300B8DC100000F
:100070008BC1000089C1000087C1000085C100005C
:1000800083C1000081C100007FC100007DC100006C
:100090000C94070B0C94DE0A77C100000C94670CDB
:1000A00073C1000071C100006FC100006DC100008C
:1000B0006BC1000069C1000067C1000065C100009C
:1000C00063C1000061C100005FC100005DC10000AC
:1000D0005BC1000059C1000057C1000055C10000BC
:1000E00053C10000140A170A060A0A0A100A4E0A27
:1000F0001B0A1F0A250A290A2D0A330A370A3B0A56
:100100004E0A410A450A490A00407A10F35A00A0F3
:10011000724E18090010A5D4E80000E876481700D0
:1001200000E40B54020000CA9A3B000000E1F50510
:10013000000080969800000040420F000000A0865A
:1001400001000000102700000000E803000000008C
:100150006400000000000A00000000000100000030
:1001600000002C76D888DC674F0823DFC1DFAE594A
:10017000E1B1B796E5E3E453C63AE651997696E8DD
:10018000E6C28426EB898C9B62ED407C6FFCEFBC61
:100190009C9F40F2BAA56FA5F490055A2AF75C938C
:1001A0006B6CF9676DC11BFCE0E40D47FEF520E6C2
:1001B000B500D0ED902E0300943577050080841EA5
:1001C000080000204E0A000000C80C333333330F00
:1001D000986E12831141EF8D2114893BE65516CF9D
:1001E000FEE6DB18D1844B381BF77C1D901DA4BBA9
:1001F000E424203284725E228100C9F124ECA1E55E
:100200003D2700002200250028002B002E00310091
:10021000340002010000050108010B01000021006B
:10022000240027002A002D003000330001010000C7
:10023000040107010A010505050507050808080866
:10024000020202020A0A080804040404010101016E
:100250000101010103030303030303030407070769
:100260000C0C0C0C0C0C0C0C02020202060606060E
:10027000060606060B0B0B0B0B0B0B0B01021020DB
:1002800020080810204010204080020102010804CC
:100290000201010204081020408080402010080460
:1002A00002018004020180402010080402010804B9
:1002B00002010102040810204080010204081020FD
:1002C0004080000020002300260029002C002F0081
:1002D00032000001000003010601090100000A0BC1
:1002E00002090C0D0E0807030401000000000000C5
:1002F00000000000000000000000000000000000FE
:1003000000000000000000001211100000000000BA
:1003100000000000000000000000000000000000DD
:10032000000061162B1611241FBECFEFD1E2DEBFF5
:10033000CDBF00E00CBF16E0A0E0B2E0EAEEFBE3C8
:1003400000E00BBF02C007900D92AC33B107D9F7A4
:1003500028E0ACE3B6E001C01D92AF3CB207E1F784
:1003600011E0C2E9D1E000E006C021970109802F29
:10037000FE010E94C11CC139D10780E00807A9F71E
:100380000E94D8100C94E41D3BCECF92DF92EF92E6
:10039000FF920F931F93CF93DF938C017B016A0130
:1003A000EC01EC16FD06F4F09E01201B310BF6016A
:1003B000848195812817390748F4808191810097BD
:1003C00029F0FC01E20FF31F608101C060E0CE0163
:1003D0000E94781C64E170E080E090E00E94D90BFC
:1003E0002196DFCFDF91CF911F910F91FF90EF907A
:1003F000DF90CF900895CF93DF93EB01E0916E07EC
:10040000F0916F070190F081E02D682F8EE697E064
:1004100019954C815D81688179818EE697E00E9413
:10042000990D67E374E08EE697E0DF91CF910C942D
:10043000C3100F931F93CF93DF93CDB7DEB76E97A3
:100440000FB6F894DEBF0FBECDBF8C0165E374E03C
:10045000CE0143960E944A1064E372E0CE014396B7
:100460000E946B0FBE016D5E7F4FCE0101960E9410
:100470004210BE016F5F7F4F8AE6BDDFCE0101965D
:100480000E94CE0F61E472E0CE010D960E944A10E8
:1004900063E472E0CE0107960E944A10BE01695FD4
:1004A0007F4FCE0149960E944210BE01635F7F4F8D
:1004B000CE0149960E945A0F61E778E00E945A0FD8
:1004C000BE01635F7F4F0E945A0FBC01CE010196AF
:1004D0000E944210CE0149960E94CE0F60E572E064
:1004E00081ED96E00E94C31064E670E080E090E049
:1004F0000E94D90BCE0101960E94E80E64E670E0DE
:1005000080E090E00E94D90B6BE572E0C8010E9488
:10051000240F882319F089EB98E009C06EE572E09A
:10052000C8010E94240F882379F083EB98E00E9491
:10053000E80E60910402CE0149960E942A10BE0185
:10054000675E7F4F8DE693C061E672E0C8010E944E
:10055000240F882339F08DEA98E00E94E80E6DEAB6
:1005600078E07DC064E672E0C8010E94240F882311
:1005700039F087EA98E00E94E80E67EA78E06FC0F9
:1005800067E672E0C8010E94240F882339F081EAEF
:1005900098E00E94E80E61EA78E061C06AE672E0E5
:1005A000C8010E94240F882339F08BE998E00E944B
:1005B000E80E6BE978E053C06DE672E0C8010E9476
:1005C000240F882339F085E998E00E94E80E65E958
:1005D00078E045C060E772E0C8010E94240F8823DC
:1005E00039F08FE898E00E94E80E6FE878E037C0B5
:1005F00063E772E0C8010E94240F882339F089E87C
:1006000098E00E94E80E69E878E029C066E772E0A9
:10061000C8010E94240F882339F083E898E00E94E3
:10062000E80E63E878E01BC069E772E0C8010E9449
:10063000240F882339F08DE798E00E94E80E6DE7DB
:1006400078E00DC06CE772E0C8010E94240F882397
:1006500099F087E798E00E94E80E67E778E0CE011E
:1006600049960E944210BE01675E7F4F8AE6C3DE54
:10067000CE0149960E94CE0F64E670E080E090E0E3
:100680000E94D90BE091D106F091D2060190F08141
:10069000E02D6AE181ED96E0199542E050E063E3D8
:1006A00074E081ED96E00E94990D64E670E080E0D0
:1006B00090E00E94D90B42E050E063E374E081EDEA
:1006C00096E00E94990D68E873E180E090E00E9456
:1006D000D90BCE0101960E94CE0FCE0107960E9443
:1006E000CE0FCE010D960E94CE0FCE0143960E94F2
:1006F000CE0F6E960FB6F894DEBF0FBECDBFDF9162
:10070000CF911F910F910895CF92DF92EF92FF92B8
:100710000F931F93CF93DF93CDB7DEB7A4970FB698
:10072000F894DEBF0FBECDBF65E374E0CE01439603
:100730000E944A1065E374E0CE010D960E944A10B3
:1007400081ED96E086D5181619060CF050C4CE013E
:1007500001960E945E10BE016F5F7F4FCE010D9625
:100760000E94950FCE0101960E94CE0FBE01635FDD
:100770007F4FCE0101960E944210BE016F5F7F4FF6
:1007800089E639DECE0101960E94CE0F6AE070E064
:1007900080E090E00E94D90B6FE772E0CE010196F5
:1007A0000E944A10BE016F5F7F4FCE010D960E94DE
:1007B0000A0F8C01CE0101960E94CE0F17FD11C0C9
:1007C00067E872E0CE0101960E944A1081E38093AF
:1007D000040261E380E090E00E94781C6BE572E027
:1007E00024C06BE972E0CE0101960E944A10BE015E
:1007F0006F5F7F4FCE010D960E940A0F8C01CE01D4
:1008000001960E94CE0F17FD1CC063EA72E0CE0174
:1008100001960E944A1080E38093040260E380E026
:1008200090E00E94781C6EE572E0CE0107960E946F
:100830004A10CE010796FDDDCE0107960E94CE0F2D
:10084000D3C367EB72E0CE0101960E944A10BE014D
:100850006F5F7F4FCE010D960E940A0F8C01CE0173
:1008600001960E94CE0F17FD61C067EB72E0CE01CA
:1008700001960E944A10BE016F5F7F4FCE010D9618
:100880000E940A0F8C01CE0101960E94CE0F9801A2
:10089000265F3F4FA8014A5F5F4FBE01635F7F4FF6
:1008A000CE0101960E947F10CE0101960E94FF0E9C
:1008B0006B017C01672B09F4C4C1BE016F5F7F4FE0
:1008C000CE0107960E944210AE01495F5F4F6EE075
:1008D00070E08BE090E059DDCE0107960E94CE0FCC
:1008E00088EE93E08C9DA0018D9D500D9C9D500D38
:1008F0001124052E000C660B770B409305025093D4
:10090000060260930702709308022AE0CE01079660
:100910000E94D30FBE01695F7F4F86E66CDDCE017A
:1009200007960E94CE0F6DEC72E074C067EE72E025
:10093000CE0101960E944A10BE016F5F7F4FCE012B
:100940000D960E940A0F8C01CE0101960E94CE0FD7
:1009500017FD70C067EE72E0CE0101960E944A104A
:10096000BE016F5F7F4FCE010D960E940A0F8C0172
:10097000CE0101960E94CE0F9801245F3F4FA8013F
:10098000485F5F4FBE01635F7F4FCE0101960E94BB
:100990007F10CE0101960E94FF0E6B017C01672B38
:1009A00009F44FC1BE016F5F7F4FCE0107960E94D1
:1009B0004210AE01495F5F4F62E170E08FE090E06E
:1009C000E4DCCE0107960E94CE0F88EE93E08C9D6A
:1009D000A0018D9D500D9C9D500D1124052E000CE5
:1009E000660B770B40930002509301026093020262
:1009F000709303022AE0CE0107960E94D30FBE0136
:100A0000695F7F4F83E6F7DCCE0107960E94CE0F29
:100A10006FEE72E0CE0107960E944A10BE016F5F32
:100A20007F4FCE0107960E945A0F6EED72E00E9432
:100A3000430F45C166E073E0CE0101960E944A1063
:100A4000BE016F5F7F4FCE010D960E940A0F8C0191
:100A5000CE0101960E94CE0F17FD53C066E073E0F1
:100A6000CE0101960E944A10BE016F5F7F4FCE01FA
:100A70000D960E940A0F8C01CE0101960E94CE0FA6
:100A80009801235F3F4FA8014D5F5F4FBE01635F39
:100A90007F4FCE0101960E947F10CE0101960E94E9
:100AA000FF0E672B09F4CDC0BE016F5F7F4FCE01F3
:100AB00007960E944210AE01495F5F4F6AE070E006
:100AC00081E090E062DCCE0107960E94CE0FBE016D
:100AD0006F5F7F4F81E798E00E94800FBE016F5FDC
:100AE0007F4FCE0107960E944210BE01695F7F4F83
:100AF0008EE681DCCE0107960E94CE0F6AE073E09D
:100B0000D3C062E273E0CE0101960E944A10BE019A
:100B10006F5F7F4FCE010D960E940A0F8C01CE01B0
:100B200001960E94CE0F17FD53C062E273E0CE0122
:100B300001960E944A10BE016F5F7F4FCE010D9655
:100B40000E940A0F8C01CE0101960E94CE0F9801DF
:100B5000235F3F4FA8014D5F5F4FBE01635F7F4F33
:100B6000CE0101960E947F10CE0101960E94FF0ED9
:100B7000672B09F466C0BE016F5F7F4FCE010796F9
:100B80000E944210AE01495F5F4F6CE170E083E16B
:100B900090E0FBDBCE0107960E94CE0FBE016F5F97
:100BA0007F4F8BE698E00E94800FBE016F5F7F4F02
:100BB000CE0107960E944210BE01695F7F4F8FE60B
:100BC0001ADCCE0107960E94CE0F66E273E06CC07D
:100BD0006EE373E0CE0101960E944A10BE016F5F82
:100BE0007F4FCE010D960E940A0F8C01CE01019617
:100BF0000E94CE0F17FD6FC06EE373E0CE01019629
:100C00000E944A10BE016F5F7F4FCE010D960E9479
:100C10000A0F8C01CE0101960E94CE0F9801235F2E
:100C20003F4FA8014D5F5F4FBE01635F7F4FCE0115
:100C300001960E947F10CE0101960E94FF0E672B45
:100C400039F46DEB72E08FE898E00E946B0F40C0C2
:100C5000BE016F5F7F4FCE0107960E944210AE012A
:100C6000495F5F4F66E270E08DE190E08EDBCE0180
:100C700007960E94CE0FBE016F5F7F4F85E698E01A
:100C80000E94800FBE016F5F7F4FCE0107960E94CA
:100C90004210BE01695F7F4F80E7ADDBCE01079652
:100CA0000E94CE0F62E473E0CE0107960E944A10C4
:100CB000BE016F5F7F4FCE0107960E945A0FBC01A5
:100CC0008FE898E00E94800FCE0107960E94CE0F19
:100CD00060E772E0AACD6AE573E0CE0101960E945A
:100CE0004A10BE016F5F7F4FCE010D960E940A0F22
:100CF0008C01CE0101960E94CE0F17FD9AC06DE5C2
:100D000073E0CE0101960E944A106DE673E0CE01B9
:100D100007960E944A10BE01695F7F4FCE010D9673
:100D20000E940A0F8C01CE0107960E94CE0F17FD7C
:100D30000AC061E778E0CE014F960E9442104AE077
:100D400061E070E01DC061E773E0CE0107960E948C
:100D50004A10BE01695F7F4FCE010D960E940A0FB7
:100D60008C01CE0107960E94CE0F17FD36C06BE6B0
:100D700078E0CE014F960E9442104AE062E070E0B7
:100D8000CE0149960E94FF0FBE016F5F7F4FCE01DB
:100D900007960E944210BE01675E7F4FCE01079604
:100DA0000E945A0F6EE472E00E94430FBE01615E22
:100DB0007F4F0E945A0FBC01CE0101960E94800F06
:100DC000CE0107960E94CE0FCE0149960E94CE0F0B
:100DD000CE014F960E94CE0F24C065E773E0CE018E
:100DE00007960E944A10BE01695F7F4FCE010D96A3
:100DF0000E940A0F8C01CE0107960E94CE0F17FDAC
:100E00000AC065E678E0CE014F960E9442104AE0A3
:100E100063E070E0B5CF69E773E0CE0101960E9410
:100E20006B0FBE016F5F7F4F8FE898E00E94800FCD
:100E30004FCF69E973E0CE0101960E944A10BE01CE
:100E40006F5F7F4FCE010D96E5D78C01CE010196E5
:100E50000E94CE0F17FD3AC065E374E0CE010796FD
:100E60000E944A1065E374E0CE0101960E944A1088
:100E70008AE048D4019749F465EA73E0CE01079609
:100E80000E946B0F63E772E008C062EC73E0CE0172
:100E900007960E946B0F66E772E0CE0101960E94F2
:100EA0006B0FBE016F5F7F4FCE0149960E944210CB
:100EB000CE014996BEDACE0149960E94CE0FCE01F0
:100EC00001960E94CE0FCE01079690C062EA73E0B1
:100ED000CE0101960E944A10BE016F5F7F4FCE0186
:100EE0000D9698D78C01CE0101960E94CE0F17FD6A
:100EF00016C069EA73E0CE0101960E944A1064E6CA
:100F000072E0CE0107960E944A10CE01079691DA50
:100F1000CE0107960E94CE0F84E090E028C06FEBD0
:100F200073E0CE0101960E944A10BE016F5F7F4FB1
:100F3000CE010D966FD78C01CE0101960E94CE0F87
:100F400017FD1AC066EC73E0CE0101960E944A10AC
:100F500067E672E0CE0107960E944A10CE0107961E
:100F600068DACE0107960E94CE0F85E090E090935C
:100F7000400680933F0638C06CED73E0CE010196C9
:100F80000E944A10BE016F5F7F4FCE010D9642D77F
:100F90008C01CE0101960E94CE0F17FD28C062EE93
:100FA00073E0CE0101960E944A1069E772E0CE011B
:100FB00007960E944A10CE0107963BDACE010796AB
:100FC000EDD71092400610923F0610923D06109207
:100FD0003E0660E08AE0BED388E094D321E0892B0E
:100FE00009F420E020933C06CE010196D7D7CE012C
:100FF0000D96D4D7CE014396D1D7A4960FB6F894C8
:10100000DEBF0FBECDBFDF91CF911F910F91FF903B
:10101000EF90DF90CF900895CF92DF92EF92FF9202
:101020000F931F93CF93DF93CDB7DEB72C970FB6F7
:10103000F894DEBF0FBECDBF8C017B016A0165E372
:1010400074E00E944A10CE14DF0424F1C7010E940C
:10105000701C282F30E0B901605371094AE0CE01BD
:101060000796CDD7B801CE0101960E944210BE016D
:10107000695F7F4FCE0101961DD7BC01C80140D7E3
:10108000CE0101968BD7CE01079688D78FEFE81A4D
:10109000F80AD9CFC8012C960FB6F894DEBF0FBE60
:1010A000CDBFDF91CF911F910F91FF90EF90DF9017
:1010B000CF9008950F931F93CF93DF93CDB7DEB7F3
:1010C0002C970FB6F894DEBF0FBECDBF8C0168EF32
:1010D00073E0CE010196DED7B801CE010196EAD6C3
:1010E0006AE074E0D0D6BC01CE010796CBD7BE0132
:1010F000695F7F4F8AE67FD9CE0107964FD7CE0131
:1011000001964CD761E089E025D368EE73E080E07A
:1011100090E04FD360E089E01DD368E873E180E0A0
:1011200090E047D365E174E0CE010196B3D7B801F2
:10113000CE010196BFD66AE074E0A5D6BC01CE010F
:101140000796A0D7BE01695F7F4F8AE654D9CE01CA
:10115000079624D7CE01019621D7CE010196AED7AE
:10116000BE016F5F7F4F89E598E0DFD6CE01019623
:1011700015D769E578E0CE01019684D7BE016F5F8F
:101180007F4F89E638D9CE01019608D76AE070E032
:1011900080E090E00ED32C960FB6F894DEBF0FBE21
:1011A000CDBFDF91CF911F910F91089581ED96E012
:1011B00050D021E0892B09F420E0822F0895FC0112
:1011C000A089B1898C91A689B78982FD0FC09C91B5
:1011D000818D8F5F8F73228D821749F0218DDF0102
:1011E000A20FB11D5D969C93818F08958C910895F7
:1011F000FC01538D448D252F30E0842F90E0821B1D
:10120000930B541710F0CF96089501970895FC01A1
:10121000918D828D981761F0828DDF01A80FB11D2D
:101220005D968C91928D9F5F9F73928F90E0089551
:101230008FEF9FEF0895FC01918D828D981731F00B
:10124000828DE80FF11D858D90E008958FEF9FEF5F
:101250000895FC01918D228D892F90E0805C9F4F35
:10126000821B91098F73992708958EE697E0F1DF2D
:1012700021E0892B09F420E0822F0895FC01848D60
:10128000DF01A80FB11DA35ABF4F2C91848D90E0B0
:1012900001968F739927848FA689B7892C93A0898B
:1012A000B1898C9180648C93938D848D981306C042
:1012B0000288F389E02D80818F7D80830895EF92ED
:1012C000FF920F931F93CF93DF93EC0181E0888F00
:1012D0009B8D8C8D981305C0E889F989808185FDE7
:1012E00023C0F62E0B8D10E00F5F1F4F0F731127D9
:1012F000E02E8C8DE8120BC00FB607FCFACFE88900
:10130000F989808185FFF5CFCE01B8DFF2CF8B8DD3
:10131000FE01E80FF11DE35AFF4FF0820B8FEA89BF
:10132000FB898081806207C0EE89FF896083E8893C
:10133000F98980818064808381E090E0DF91CF91A2
:101340001F910F91FF90EF900895CF93DF93EC01E1
:10135000888D8823C1F0EA89FB89808185FD05C0DD
:10136000A889B9898C9186FD0EC00FB607FCF5CF10
:10137000808185FFF2CFA889B9898C9185FFEDCF57
:10138000CE017CDFE8CFDF91CF91089580E090E03F
:10139000892B19F06ADF811120C080E090E0892B51
:1013A00019F004DF81111CC080E090E0892B41F02E
:1013B00080E090E0892B21F00E940000811113C091
:1013C00080E090E0892BA1F080E090E0892B81F013
:1013D0000E94000081110AC008950E940000DDCF24
:1013E0000E940000E1CF0E940000EACF0C940000B0
:1013F000089590E0FC013197E231F10508F04EC00C
:101400008827EE58FF4F8F4F0C94C11C80918000AD
:101410008F7703C0809180008F7D80938000089536
:1014200080918000877FF9CF84B58F7702C084B523
:101430008F7D84BD08958091B0008F7703C0809127
:10144000B0008F7D8093B0000895809190008F77D9
:1014500007C0809190008F7D03C080919000877FAE
:101460008093900008958091A0008F7707C08091AD
:10147000A0008F7D03C08091A000877F8093A00093
:101480000895809120018F7707C0809120018F7D82
:1014900003C080912001877F8093200108953FB78A
:1014A000F8948091CD069091CE06A091CF06B09190
:1014B000D00626B5A89B05C02F3F19F00196A11DA7
:1014C000B11D3FBFBA2FA92F982F8827820F911DDA
:1014D000A11DB11DBC01CD0142E0660F771F881F21
:1014E000991F4A95D1F7089585ED8093BC008091AE
:1014F000BC0084FDFCCF1092A206089540917C06AA
:10150000262F30E0240F311D21323105DCF42091EB
:10151000A2062430C9F4FC0180E090E0861758F45C
:1015200030917C062191DC01A65AB94FA30FB11D61
:101530002C930196F3CF80917C06680F60937C0614
:1015400080E0089581E0089582E0089508958FEF86
:101550009FEF08958FEF9FEF08958091590690E0D7
:101560009195819591090895CF93DF931F921F92D2
:10157000CDB7DEB7CB01642F49835A83BFDF4981E2
:10158000842F5A81952F0F900F90DF91CF9108955E
:10159000CF93DF931F92CDB7DEB7698361E0CE01B1
:1015A0000196ACDF81E090E00F90DF91CF9108953C
:1015B000089580E090E008950E94AD1D1F920F9263
:1015C0000FB60F9211240BB60F922F933F934F93A8
:1015D0005F936F937F938F939F93AF93BF93EF939B
:1015E000FF9381ED96E04ADEFF91EF91BF91AF91BD
:1015F0009F918F917F916F915F914F913F912F912B
:101600000F900BBE0F900FBE0F901F9018951F925A
:101610000F920FB60F9211240BB60F922F933F9398
:101620004F935F936F937F938F939F93AF93BF93EA
:10163000EF93FF9381ED96E0C2DDFF91EF91BF91B3
:10164000AF919F918F917F916F915F914F913F915A
:101650002F910F900BBE0F900FBE0F901F901895FB
:101660001F920F920FB60F9211240BB60F922F9369
:101670003F934F935F936F937F938F939F93AF931A
:10168000BF93EF93FF938EE697E0F8DDFF91EF9124
:10169000BF91AF919F918F917F916F915F914F918A
:1016A0003F912F910F900BBE0F900FBE0F901F9088
:1016B00018951F920F920FB60F9211240BB60F922E
:1016C0002F933F934F935F936F937F938F939F934A
:1016D000AF93BF93EF93FF938EE697E070DDFF919A
:1016E000EF91BF91AF919F918F917F916F915F919A
:1016F0004F913F912F910F900BBE0F900FBE0F9007
:101700001F901895CF93DF93282F30E0F901E45212
:10171000FD4F8491F901E458FD4FD491F901EA5C41
:10172000FD4FC491CC2389F0811163DEEC2FF0E0F2
:10173000EE0FFF1FEE53FD4FA591B491EC91ED23F9
:1017400081E090E021F480E002C080E090E0DF9151
:10175000CF9108951F93CF93DF93282F30E0F901A5
:10176000E452FD4F8491F901E458FD4FD491F90101
:10177000EA5CFD4FC491CC23C1F0162F811139DEF4
:10178000EC2FF0E0EE0FFF1FEE5FFD4FA591B4913F
:101790008FB7F894111105C09C91ED2FE095E923C6
:1017A00002C0EC91ED2BEC938FBFDF91CF911F9195
:1017B00008958F929F92AF92BF92CF92DF92EF9255
:1017C000FF926B017C016BDE4B015C01C114D10403
:1017D000E104F104E9F063DEDC01CB018819990929
:1017E000AA09BB09883E9340A105B10578F321E021
:1017F000C21AD108E108F10888EE880E83E0981E2D
:10180000A11CB11CC114D104E104F10421F7DECF05
:10181000FF90EF90DF90CF90BF90AF909F908F9010
:1018200008952FB7F8946091C9067091CA06809107
:10183000CB069091CC062FBF08951F920F920FB642
:101840000F9211242F933F938F939F93AF93BF9346
:101850008091C9069091CA06A091CB06B091CC06A2
:101860003091C80623E0230F2D3720F40196A11DE7
:10187000B11D05C026E8230F0296A11DB11D2093BE
:10188000C8068093C9069093CA06A093CB06B0936E
:10189000CC068091CD069091CE06A091CF06B09156
:1018A000D0060196A11DB11D8093CD069093CE0662
:1018B000A093CF06B093D006BF91AF919F918F9127
:1018C0003F912F910F900FBE0F901F9018951F9270
:1018D0000F920FB60F9211240BB60F922F933F93D6
:1018E0004F935F936F937F938F939F93AF93BF9328
:1018F000EF93FF938091B900887F803609F49CC0F4
:1019000068F5883209F45BC090F4803109F454C062
:1019100038F4882309F4F6C0883009F44DC0F5C0C6
:10192000883109F44CC0803209F45DC0EEC08034C7
:1019300009F468C048F4803309F455C0883309F0CD
:10194000E4C08093A106D8C0803509F44FC0883523
:1019500009F45DC0883409F0D8C0D6C0883909F4CC
:10196000C7C0A8F4883709F467C038F4883609F48A
:1019700063C0803709F460C0C8C0883809F4B8C0B3
:10198000803909F45FC0803809F0BFC05BC0803B7C
:1019900009F486C038F4803A09F466C0883A09F43C
:1019A0007FC0B3C0803C09F4A7C0883C09F4A4C040
:1019B000883B09F48AC0A9C08091C70610C09091E5
:1019C000C6068091C506981770F5E091C60681E0BD
:1019D0008E0F8093C606F0E0EB55F94F808180931F
:1019E000BB0085EC86C08093A1068EC0E091C60640
:1019F00081E08E0F8093C6068091BB00F0E0EB552E
:101A0000F94F80839091C6068091C5066EC0E09123
:101A1000C60681E08E0F8093C6068091BB00F0E081
:101A2000EB55F94F80838091A40681116DC081E050
:101A30008093A30684EA61C083E08093A20610929B
:101A4000A006CFCF8091A006803208F051C0E0916F
:101A5000A00681E08E0F8093A0068091BB00F0E08D
:101A6000E058F94F8083BDCF85EC8093BC00109285
:101A7000A2068091A006803230F4E091A006F0E04A
:101A8000E058F94F10826091A00670E0E0917E0668
:101A9000F0917F0680E896E019951092A00635C077
:101AA00084E08093A20610927D0610927C06E0915D
:101AB0007A06F0917B06199580917C06811105C00C
:101AC00081E080937C0610925A06E0917D0681E0C9
:101AD0008E0F80937D06F0E0E65AF94F8081809367
:101AE000BB0090917D0680917C06981708F479CF11
:101AF00085E88093BC0009C085EC8093BC001092FF
:101B0000A20603C01092A106EFDCFF91EF91BF91F6
:101B1000AF919F918F917F916F915F914F913F9185
:101B20002F910F900BBE0F900FBE0F901F90189526
:101B30000895CF92DF92EF92FF920F931F93CF936E
:101B4000DF936C017A018B01C0E0D0E0CE15DF0598
:101B500089F0D8016D918D01D601ED91FC91019034
:101B6000F081E02DC6011995892B11F47E0102C088
:101B70002196ECCFC701DF91CF911F910F91FF907C
:101B8000EF90DF90CF9008950F931F934ADE6093FC
:101B9000D9067093DA068093DB069093DC06E09119
:101BA000D106F091D2060284F385E02D81ED96E016
:101BB000199597FF1EC035DE0091D9061091DA06FF
:101BC0002091DB063091DC06DC01CB01801B910B00
:101BD000A20BB30B0091D5061091D6062091D70623
:101BE0003091D80680179107A207B307C0F28FEF94
:101BF0009FEF1F910F910895CF93DF93EC018881A0
:101C00009981009711F00E94DF17198218821D82B6
:101C10001C821B821A82DF91CF9108950F931F932C
:101C2000CF93DF93EC0188819981009729F02A8175
:101C30003B812617370788F48B016F5F7F4F0E9427
:101C4000C91C009761F0998388831B830A832C81C8
:101C50003D81232B11F4FC01108281E001C080E062
:101C6000DF91CF911F910F910895EF92FF920F9303
:101C70001F93CF93DF93FC0124813581611571059A
:101C800011F480E018C041155105A1F07B01EC0171
:101C90008A01020F131FB801C1DF882391F3288145
:101CA00039818C819D81B701820F931F0E94C31DD2
:101CB0001D830C8381E0DF91CF911F910F91FF90E5
:101CC000EF900895EF92FF920F931F93CF93DF93BE
:101CD000EC017B018A01BA01A1DF811103C0CE01B1
:101CE0008BDF07C01D830C83B701888199810E9417
:101CF000C31DCE01DF91CF911F910F91FF90EF9007
:101D00000895CF92DF92EF92FF920F931F93CF939C
:101D1000DF93EC016A017B01E889F98982E0808325
:101D20004115514E61057105B1F060E079E08DE338
:101D300090E0A70196010E94861C89019A0101503A
:101D400011092109310936952795179507959801AD
:101D500001151041A8F0E889F989108260E874E85B
:101D60008EE190E0A70196010E94861CDA01C9016C
:101D70000197A109B109B695A795979587959C01FB
:101D8000EC85FD853083EE85FF852083188EEC89F8
:101D9000FD8986E08083EA89FB8980818061808378
:101DA000EA89FB89808188608083EA89FB89808158
:101DB00080688083EA89FB8980818F7D8083DF91C1
:101DC000CF911F910F91FF90EF90DF90CF900895EA
:101DD000CF93DF93FC01448155816081718181ED56
:101DE00096E0A7DEEC0142E050E063E374E081EDB1
:101DF00096E09FDE8C0F9D1FDF91CF910895FC012F
:101E000080819181009711F00C94771860E070E068
:101E1000CB010895CF93DF93FC0124813581232BDF
:101E200071F0FB01DC01CD91DC9160817181CE010B
:101E30000E94CA1D009719F08C1B9D0B02C08FEFEA
:101E40009FEFDF91CF910895FC0124813581232BF1
:101E500031F421E061157105A1F0FB0108C0FC011E
:101E6000808191816115710531F421E0FC0180814F
:101E7000882339F005C00E94BA1D21E0892B09F0A2
:101E800020E0822F0895CF93DF93EC016115710557
:101E900059F0FB0101900020E9F73197AF01461B93
:101EA000570BE3DE811102C0CE01A6DECE01DF9129
:101EB000CF910895CF93DF93EC01FB0144815581CD
:101EC00060817181D2DE811102C0CE0195DECE012A
:101ED000DF91CF910895CF93DF93EC0161157105E8
:101EE00051F0FB0101900020E9F73197AF01461B4B
:101EF000570BE8DE01C080DECE01DF91CF9108955F
:101F0000CF93DF93EC01FB018617970751F06081B7
:101F100071816115710521F044815581D3DE01C0C5
:101F20006BDECE01DF91CF9108950F931F93CF9376
:101F3000DF938C01EB01FC01808191810097B1F06E
:101F4000688179816115710579F0428153812C8115
:101F50003D814217530740F00E94C31D8C819D8133
:101F6000F8019583848313C00E94DF1788819981CB
:101F7000F801918380838A819B81938382838C8102
:101F80009D8195838483198218821B821A821D8207
:101F90001C82DF91CF911F910F910895FC018081E8
:101FA00091810C94DF170F931F93CF93DF93CDB7DD
:101FB000DEB7A1970FB6F894DEBF0FBECDBF8C0180
:101FC000CB01BA01F80111821082138212821582AC
:101FD000148230E0AE014F5F5F4F0E94C618BE0111
:101FE0006F5F7F4FC80177DFA1960FB6F894DEBF11
:101FF0000FBECDBFDF91CF911F910F9108950F9329
:102000001F93CF93DF93CDB7DEB762970FB6F894E7
:10201000DEBF0FBECDBF8C01CB01F8011182108253
:10202000138212821582148250E0BE016F5F7F4FCF
:102030000E949D18BE016F5F7F4FC8014CDF629602
:102040000FB6F894DEBF0FBECDBFDF91CF911F91C9
:102050000F910895CF93DF931F921F92CDB7DEB7F4
:10206000FC0111821082138212821582148269830C
:102070001A82BE016F5F7F4F2EDF0F900F90DF91AE
:10208000CF910895FC011182108213821282158271
:10209000148236CFFC0111821082138212821582C3
:1020A00014826115710549F0FB0101900020E9F7E8
:1020B0003197AF01461B570B05CE08950F931F9321
:1020C000CF93DF931F921F92CDB7DEB78C0165E3EC
:1020D00074E0E0DF59DD97FD0AC089831A8241E090
:1020E00050E0BE016F5F7F4FC801BFDDF3CFC80175
:1020F0000F900F90DF91CF911F910F910895BF9294
:10210000CF92DF92EF92FF920F931F93CF93DF93C3
:102110007C016B018A01E9012417350720F4812F26
:102120008901C42FD82F65E374E0C701B3DFD6015E
:1021300014968D919C91159708171907C8F48C1760
:102140009D0708F4EC01D601ED91FC911197EC0F7D
:10215000FD1FB08010824D915C91BA01600F711F1C
:10216000C701B9DED601ED91FC91EC0FFD1FB082E5
:10217000C701DF91CF911F910F91FF90EF90DF90FA
:10218000CF90BF9008956115710579F0FB01019022
:102190000020E9F73197AF01461B570BDC01ED91A9
:1021A000FC910280F381E02D199480E090E0089585
:1021B000CF93DF93CDB7DEB7AB970FB6F894DEBF02
:1021C0000FBECDBF789484B5826084BD84B5816034
:1021D00084BD85B5826085BD85B5816085BD8091F2
:1021E0006E00816080936E0010928100809181006A
:1021F0008260809381008091810081608093810062
:10220000809180008160809380008091B100846023
:102210008093B1008091B00081608093B000809184
:102220009100826080939100809191008160809301
:102230009100809190008160809390008091A10036
:1022400082608093A1008091A10081608093A100B1
:102250008091A00081608093A00080912101826024
:1022600080932101809121018160809321018091DF
:10227000200181608093200180917A0084608093A6
:102280007A0080917A00826080937A0080917A004F
:10229000816080937A0080917A00806880937A00D0
:1022A0001092C10010924F081092500810925108DD
:1022B0001092520810920D0810920E0810920F08FA
:1022C00010921008AEDA6B017C014B015C0188EBC7
:1022D000880E8BE0981EA11CB11CA3DA6C157D053D
:1022E0008E059F0528F086169706A806B906A8F75A
:1022F0008EE697E090934E0880934D0840E855E2B3
:1023000060E070E0FEDC8DDA60930D0870930E08DB
:1023100080930F089093100864E274E080914D0858
:1023200090914E0830DF7DDA6B017C014B015C013E
:102330009AE0890E911CA11CB11C73DA6C157D0505
:102340008E059F0528F086169706A806B906A8F7F9
:1023500081E080932108E6E8F2E02491E0E4F2E0F5
:102360008491882399F090E0880F991FFC01E45E26
:10237000FD4FA591B491FC01EE5FFD4F85919491C5
:102380008FB7F894EC91E22BEC938FBF60E08AE07A
:10239000E1D9E7E8F2E02491E1E4F2E084918823D6
:1023A000C9F090E0880F991FFC01E45EFD4F459154
:1023B0005491FC01EE5FFD4FA591B4919FB7F89445
:1023C000FA0180812095822380838C91E22FE8237B
:1023D000EC939FBF88E096D921E0892B09F420E097
:1023E00020933C0640E855E260E070E08EE697E01E
:1023F00088DC40E05BE460E070E081ED96E081DC49
:1024000010DA6B017C018EE697E00E9429098C01AD
:1024100008DAAB01BC014C195D096E097F09413135
:1024200057426105710570F4101611065CF066E301
:1024300074E08EE697E0A7DE6CE271E080E090E069
:10244000B8D9E1CF63E578E0CE0101961BDEBE018D
:102450006F5F7F4F8BE60E94FB01CE0101969EDDF0
:102460006FE578E0CE0101960DDECE0101960E9467
:102470005A08CE01019692DD69E374E0CE0101961F
:1024800009DEBE016F5F7F4F89E598E0C3DC8C01F8
:10249000CE01019683DD17FD1FC06EE374E0CE010F
:1024A0000196F8DDBE016F5F7F4F8AE60E94FB0157
:1024B000CE01019673DD63E674E08FE598E00BDDF5
:1024C0006FE578E0CE010196DDDDCE0101960E9438
:1024D0005A08CE01019662DD6CE674E0CE010196E9
:1024E000D9DDBE016F5F7F4F8AE60E94FB01CE01FE
:1024F000019654DD60E27EE480E090E05AD962E823
:1025000074E0CE010196C6DDBE016F5F7F4F8AE6A3
:102510000E94FB01CE01019641DD66E974E083E58E
:1025200098E0D9DC63E578E0CE010196ABDDBE0131
:102530006F5F7F4F8BE60E94FB01CE0101962EDD7F
:102540006CEA74E0CE010196A5DDBE016F5F7F4F9E
:102550008AE60E94FB01CE01019620DD60E572E073
:1025600081ED96E010DE64E670E080E090E021D935
:102570006AEC74E081ED96E006DE64E670E080E0EF
:1025800090E017D9CE01019699DDBE016F5F7F4FB4
:1025900089E598E0CADCCE01019600DD69E578E0C6
:1025A000CE0101966FDDBE016F5F7F4F89E60E940D
:1025B000FB01CE010196F2DC6AE070E080E090E081
:1025C000F8D880E090E00E94701C8093040265E3DC
:1025D00074E081E798E07FDC4AE050E061E070E081
:1025E000CE0101960E940C08BE016F5F7F4F81E70C
:1025F00098E09BDCCE010196D1DC4EE050E06BE030
:1026000070E0CE0101960E940C08CE010196F7DB26
:102610009B01AC01A8EEB3E00E94A81C60930502E8
:10262000709306028093070290930802CE010196F0
:10263000B5DC42E150E06FE070E0CE0101960E940F
:102640000C08CE010196DBDB9B01AC01A8EEB3E0E8
:102650000E94A81CAB01BC014093000250930102F0
:102660006093020270930302CE01019648A759A716
:102670006AA77BA793DC2AE048A559A56AA57BA594
:10268000CE01019690DCBE016F5F7F4F83E60E9412
:10269000FB01CE01019682DC4CE150E063E170E089
:1026A000CE0101960E940C08BE016F5F7F4F8BE642
:1026B00098E03BDCCE01019671DC46E250E06DE132
:1026C00070E0CE0101960E940C08BE016F5F7F4F43
:1026D00085E698E02ADCCE01019660DC6091040278
:1026E000CE010196B7DCBE016F5F7F4F8DE60E9481
:1026F000FB01CE01019652DC61E778E0CE01019644
:10270000C1DCBE016F5F7F4F8EE60E94FB01CE01F0
:10271000019644DC6BE678E0CE010196B3DCBE01A5
:102720006F5F7F4F8FE60E94FB01CE01019636DC82
:1027300065E678E0CE010196A5DCBE016F5F7F4FB4
:1027400080E70E94FB01CE01019628DC80E4E82EA0
:10275000FF24F39490E4292E97E7392E9BE1492E2C
:10276000512C22E0C22ED12C66246394712C8091CE
:102770007B00877F80937B00E0927C0080917A00D1
:10278000806480937A0080917A0086FDFCCF60910E
:102790007800809179001BA21AA21DA21CA21FA280
:1027A0001EA270E0782B072E000C880B990BA9D77E
:1027B0002AE038E240EA5BE3DFD78E010F5F1F4F6C
:1027C00022E044E048D3BC01CE01829684DBBE0106
:1027D0006E5D7F4F81E70E94FB01CE018296DEDBBA
:1027E0000E94840388E00E94820B11E0892B09F487
:1027F00010E010933E0680913D06882309F443C003
:10280000112349F010924D0610924E0610924F0679
:102810001092500668C080904D0690904E06A09091
:102820004F06B090500681149104A104B10459F4EC
:102830000E94110C60934D0670934E0680934F06D4
:102840009093500650C00E94110CDC01CB018819F6
:102850009909AA09BB098093490690934A06A09357
:102860004B06B0934C06009100021091010220919A
:10287000020230910302081719072A073B07C0F527
:1028800010923D0635C0112309F4BCCF80904D064F
:1028900090904E06A0904F06B0905006811491047F
:1028A000A104B10429F20E94110CDC01CB018819AA
:1028B0009909AA09BB098093490690934A06A093F7
:1028C0004B06B0934C0620910002309101024091DA
:1028D000020250910302281739074A075B0718F4D0
:1028E000F0923D0602C0112319F06DED74E002C0B4
:1028F00062EE74E0CE010196CDDBBE016F5F7F4FCB
:1029000082E60E94FB01CE01019648DB4091000265
:102910005091010260910202709103022AE0CE01FF
:10292000019641DBBE016F5F7F4F83E60E94FB0192
:10293000CE01019633DB4091490650914A066091E1
:102940004B0670914C062AE0CE0101962CDBBE01AD
:102950006F5F7F4F8CE60E94FB01CE0101961EDB6C
:1029600080913D06882309F456C06DED74E0CE01D8
:10297000019690DBBE016F5F7F4F88E60E94FB01EE
:10298000CE0101960BDB0E94110C009145061091BF
:1029900046062091470630914806DC01CB01801B9A
:1029A000910BA20BB30B00914106109142062091AE
:1029B000430630914406081719072A073B07C8F554
:1029C0000E94110C6093450670934606809347065B
:1029D0009093480620924106309242064092430668
:1029E0005092440661E672E0CE01829653DB8091FC
:1029F0000402813369F4BE016E5D7F4FCE01019602
:102A000041DBCE0101960E941902CE010196C6DA81
:102A1000CE0182960DC062EE74E0CE0101963ADBE3
:102A2000BE016F5F7F4F88E60E94FB01CE010196D9
:102A3000B5DA8BE00E94820B019729F4F09209022B
:102A400067EE74E004C0109209026DEE74E0CE01EE
:102A5000019620DBBE016F5F7F4F87E60E94FB017E
:102A6000CE0101969BDA80913F069091400682301C
:102A7000910511F154F4009791F0019709F09CC071
:102A800060E08AE00E94AA0B41C08430910509F4FD
:102A90008FC044F1059709F08FC060E08AC0709242
:102AA000400660923F06109255061092560610920C
:102AB00057061092580680C080910902882309F4B5
:102AC0007BC083E090E09093400680933F060E9495
:102AD000110C6093510670935206809353069093A5
:102AE00054066AC080910902811115C010925106E6
:102AF00010925206109253061092540610925506E8
:102B0000109256061092570610925806D092400620
:102B1000C0923F0651C00E94110C009151061091C5
:102B200052062091530630915406DC01CB01801BE4
:102B3000910BA20BB30B8093550690935606A0936E
:102B40005706B09358060091050210910602209195
:102B5000070230910802081719072A073B0760F59A
:102B6000109251061092520610925306109254067B
:102B7000E4E0F0E0F0934006E0933F066AE672E09E
:102B8000CE01829687DA80910402813369F4BE0116
:102B90006E5D7F4FCE01019675DACE0101960E94DF
:102BA0001902CE010196FAD9CE018296F7D904C056
:102BB00061E08AE00E94AA0B8AE00E94820B4AE050
:102BC000BC01CE0101961BDABE016F5F7F4F81E62B
:102BD0000E94FB01CE010196E1D960913F06709100
:102BE00040064AE0CE0101960ADABE016F5F7F4FD0
:102BF00084E60E94FB01CE010196D0D94091550692
:102C00005091560660915706709158062AE0CE0101
:102C10000196C9D9BE016F5F7F4F85E60E94FB0117
:102C2000CE010196BBD940910502509106026091F8
:102C30000702709108022AE0CE010196B4D9BE01C4
:102C40006F5F7F4F86E60E94FB01CE010196A6D9F9
:102C50000E94C6098CCD83E598E0A0D989E598E06B
:102C60009DD98FE598E09AD985E698E097D98BE6CB
:102C700098E094D981E798E091D987E798E08ED9D8
:102C80008DE798E08BD983E898E088D989E898E0C7
:102C900085D98FE898E082D985E998E07FD98BE9DA
:102CA00098E07CD981EA98E079D987EA98E076D9EA
:102CB0008DEA98E073D983EB98E070D989EB98E0BE
:102CC0006DC9E1EDF6E01382128288EE93E0A0E098
:102CD000B0E084839583A683B78324E132E0318317
:102CE00020834DEC50E0558744874CEC50E05787EB
:102CF000468748EC50E0518B408B49EC50E0538BB9
:102D0000428B4AEC50E0558B448B4EEC50E0578B95
:102D1000468B118E128E138E148EEEE6F7E0138220
:102D2000128284839583A683B7833183208325EC25
:102D300030E03587248724EC30E03787268720EC85
:102D400030E0318B208B21EC30E0338B228B22EC76
:102D500030E0358B248B26EC30E0378B268B118EC0
:102D6000128E138E148EEBE0F8E016821782108616
:102D70001186128613861486158616861786108A83
:102D8000118A128A138A148A158AEFEBF8E01382EB
:102D9000128284839583A683B78386E292E091832F
:102DA000808361EF74E089EB98E074D963E075E0AB
:102DB00083EB98E06FD965E175E08DEA98E06AD918
:102DC00063E475E087EA98E065D966E575E081EA35
:102DD00098E060D969E675E08BE998E05BD96AEA2A
:102DE00075E085E998E056D965E374E08FE898E0EE
:102DF00051D967EC75E089E898E04CD96AED75E047
:102E000083E898E047D96DEE75E08DE798E042D908
:102E100068E076E087E798E03DD965E374E081E714
:102E200098E038D965E374E08BE698E033D965E340
:102E300074E085E698E02ED965E374E08FE598E0CC
:102E400029D965E374E089E598E024D96CE276E05D
:102E500083E598E01FC9EF920F931F93CF93DF9301
:102E6000E80147FD02C034E001C034E1E42F440F23
:102E7000FF0BF7FF03C0F195E195F109E32E022F57
:102E80002E2FAE01C7D1CE01DF91CF911F910F91AF
:102E9000EF900895CF93DF938230910510F482E094
:102EA00090E0E091CD08F091CE0820E030E0C0E065
:102EB000D0E0309711F14081518148175907C0F097
:102EC0004817590761F482819381209719F09B83F9
:102ED0008A832BC09093CE088093CD0826C02115FD
:102EE000310519F04217530718F49A01BE01DF01AA
:102EF000EF010280F381E02DDCCF2115310509F1CE
:102F0000281B390B2430310590F412968D919C9139
:102F100013976115710521F0FB019383828304C02F
:102F20009093CE088093CD08FD01329644C0FD01F8
:102F3000E20FF31F81939193225031092D933C931B
:102F40003AC02091CB083091CC08232B41F420913A
:102F50000C0230910D023093CC082093CB082091C5
:102F60000A0230910B022115310541F42DB73EB70D
:102F700040910E0250910F02241B350BE091CB08BB
:102F8000F091CC08E217F307A0F42E1B3F0B281793
:102F9000390778F0AC014E5F5F4F2417350748F0D2
:102FA0004E0F5F1F5093CC084093CB0881939193B1
:102FB00002C0E0E0F0E0CF01DF91CF9108950F93E0
:102FC0001F93CF93DF93009709F48CC0FC013297D5
:102FD000138212820091CD081091CE0801151105BF
:102FE00081F420813181820F931F2091CB08309191
:102FF000CC082817390779F5F093CC08E093CB0873
:1030000071C0D80140E050E0AE17BF0750F41296EF
:103010002D913C911397AD012115310509F1D9018D
:10302000F3CF9D01DA013383228360817181860FA2
:10303000971F8217930769F4EC0128813981260FC5
:10304000371F2E5F3F4F318320838A819B8193837B
:103050008283452B29F4F093CE08E093CD0842C03B
:103060001396FC93EE931297ED01499159919E01AD
:10307000240F351FE217F30771F480819181840FCB
:10308000951F029611969C938E938281938113963D
:103090009C938E931297E0E0F0E0D80112968D9108
:1030A0009C911397009719F0F8018C01F6CF8D9140
:1030B0009C9198012E5F3F4F820F931F2091CB0868
:1030C0003091CC082817390769F4309729F4109209
:1030D000CE081092CD0802C0138212821093CC0841
:1030E0000093CB08DF91CF911F910F9108951F930B
:1030F000FC0199278827BC01E89411911032E9F36B
:10310000193010F01E30C8F31B3249F01D3241F463
:10311000689405C026D0610F711D811D911D11910C
:1031200010531A30B8F33EF49095809570956195E0
:103130007F4F8F4F9F4F1F9108954532510518F4CF
:10314000423008F004C0FB011082CB010895BB2778
:103150004A3031F4992322F4BDE2909581959F4F36
:1031600041C0592F482F372F262F660F771F881FF2
:10317000991F660F771F881F991F620F731F841F87
:10318000951F660F771F881F991F089525323105F7
:1031900018F4223008F004C0FA011082CA01089520
:1031A000BB27FA01A62F6217710581059105330B24
:1031B00030FB66F0AA27660F771F881F991FAA1F8A
:1031C000A21710F0A21B63953850A9F7A05DAA338F
:1031D00008F0A95DA19336F7B111B1931082CA012D
:1031E0007EC2BB27FB015527AA27880F991FAA1F5C
:1031F000A41710F0A41B83955051B9F7A05DAA3312
:1032000008F0A95DA193009779F7B111B1931192DC
:10321000CB0165C24F925F926F927F929F92AF9265
:10322000BF92CF92DF92EF92FF920F931F93CF93B3
:10323000DF93CDB7DEB729970FB6F894DEBF0FBE88
:10324000CDBF6A01122FB02E2BE3201720F0FF24F0
:10325000F394F00E02C0BCE3FB2E0F2D27E0AE016D
:103260004F5F5F4F64D1AC018981982F9970913085
:1032700031F0E1FC06C0E0FE06C090E205C09DE230
:1032800003C09BE201C090E0EE2DE07183FF3CC0E3
:10329000911102C083E001C084E0811718F4212F4E
:1032A000281B01C020E0E1110BC0F601822F30E2A3
:1032B000882319F031938150FBCFC20ED11C20E03E
:1032C000992329F0D6019C93F60131966F01C6012E
:1032D0000396E2FE0AC03EE4D6013C9341E4119617
:1032E0004C93119712963C9306C03EE6F60130834C
:1032F00041E641833283FC01322F40E2332309F45B
:1033000042C041933150FACF82FF44C0911102C0B4
:1033100083E001C084E0811718F4212F281B01C02D
:1033200020E0E1110BC0F601822F30E2882319F072
:1033300031938150FBCFC20ED11C20E0992329F09C
:10334000D6019C93F60131966F01C6010396E2FE09
:103350000BC039E4D6013C933EE411963C9311979F
:1033600036E412963C9307C039E6F60130833EE618
:10337000318336E63283FC01322F40E2332319F0E9
:1033800041933150FBCFFC01E20FF11D10828EEF13
:103390009FEFB7C0F1E0911101C0F0E06F2F70E036
:1033A0001416150624F49A012F5F3F4F02C021E046
:1033B00030E0260F371FBB2029F06B2D70E06F5FC8
:1033C0007F4F02C060E070E0260F371F612F70E072
:1033D000261737071CF4121B212F01C020E03E2DB9
:1033E000387159F4D601322F60E2332319F06D930E
:1033F0003150FBCFC20ED11C20E0FF2331F0D601AB
:103400009C93B6016F5F7F4F6B01E1110BC0F6011A
:10341000922F30E3992319F031939150FBCFC20ED4
:10342000D11C20E09F2D940F3A81782F7071A72E28
:1034300084FF03C0313309F49150191624F49930F4
:1034400018F098E001C091E0E42F852F57FF02C0EB
:10345000E0E080E06E2F782FE0E0F0E0AEE29A2E20
:103460003A01691A71082A01461A570A0B2D10E011
:103470001195019511096F3F8FEF780729F4D60157
:103480009C92C60101966C014617570784F0661698
:1034900077066CF47F01E40CF51CA1E0B0E0AC0F02
:1034A000BD1FEA0EFB1ED7011196BC9002C090E32F
:1034B000B92E615071093196C60101967C016017E1
:1034C000710724F0D601BC926C01D5CF6417750743
:1034D00041F4363320F4353321F4A11002C081E3E6
:1034E000B82EF601B082F701822F90E2882319F0FE
:1034F00091938150FBCFF701E20FF11D108280E024
:1035000090E029960FB6F894DEBF0FBECDBFDF91D5
:10351000CF911F910F91FF90EF90DF90CF90BF90D0
:10352000AF909F907F906F905F904F90089528305C
:1035300008F027E03327DA01990F311D87FD9160EC
:1035400000966105710539F432602E5F3D9330E3DA
:103550002A95E1F708959F3F30F0803871056105A5
:1035600009F03C5F3C5F3D93913008F08068911D0D
:10357000DF93CF931F930F93FF92EF92192F987FB2
:103580009695E92F96959695E90FFF27EE59FE4FF0
:1035900099273327EE24FF24A701E701059008941B
:1035A000079428F4360FE71EF81E491F511D660FB9
:1035B000771F881F991F0694A1F70590079428F498
:1035C000E70EF81E491F561FC11D770F881F991F50
:1035D000661F0694A1F70590079428F4F80E491F7A
:1035E000561FC71FD11D880F991F661F771F06948E
:1035F000A1F70590079420F4490F561FC71FD81F45
:10360000990F661F771F881F0694A9F7849110955C
:10361000177041F0D695C79557954795F794E7945D
:103620001A95C1F7E8E0F1E068941590159135918D
:103630006591959105907FE27395E118F10A430B2E
:10364000560BC90BD009C0F7E10CF11E431F561FE2
:10365000C91FD01D7EF4703311F48A95E6CFE8942B
:10366000015030F0080F0AF40027021708F4202F49
:103670002395022F7A3328F079E37D932A95E9F791
:1036800010C07D932A9589F606949795679537958E
:1036900017951794E118F10A430B560BC90BD00983
:1036A00098F023957E9173957A3308F070E37C93BC
:1036B0002013B8F77E9170617D9330F0839571E3AC
:1036C0007D9370E32A95E1F71124EF90FF900F911D
:1036D0001F91CF91DF91992787FD90950895DC0187
:1036E000FC01672F71917723E1F7329704C07C9139
:1036F0006D9370836291AE17BF07C8F30895E89485
:1037000009C097FB3EF490958095709561957F4F29
:103710008F4F9F4F9923A9F0F92F96E9BB279395D7
:10372000F695879577956795B795F111F8CFFAF4E7
:10373000BB0F11F460FF1BC06F5F7F4F8F4F9F4F18
:1037400016C0882311F096E911C0772321F09EE876
:10375000872F762F05C0662371F096E8862F70E0DC
:1037600060E02AF09A95660F771F881FDAF7880FB6
:103770009695879597F908950BD078C069D028F071
:103780006ED018F0952309F05AC05FC01124A2C072
:103790007ED0A0F3959FD1F3950F50E0551F629F07
:1037A000F001729FBB27F00DB11D639FAA27F00D9A
:1037B000B11DAA1F649F6627B00DA11D661F829FC1
:1037C0002227B00DA11D621F739FB00DA11D621FA6
:1037D000839FA00D611D221F749F3327A00D611DC3
:1037E000231F849F600D211D822F762F6A2F1124A5
:1037F0009F5750408AF0E1F088234AF0EE0FFF1FF8
:10380000BB1F661F771F881F91505040A9F79E3F2E
:10381000510570F014C05EC05F3FECF3983EDCF3DE
:10382000869577956795B795F795E7959F5FC1F76B
:10383000FE2B880F911D9695879597F9089597F916
:103840009F6780E870E060E008959FEF80EC089546
:1038500000240A941616170618060906089500246F
:103860000A9412161306140605060895092E0394E9
:10387000000C11F4882352F0BB0F40F4BF2B11F45D
:1038800060FF04C06F5F7F4F8F4F9F4F089557FDBC
:103890009058440F551F59F05F3F71F04795880FBE
:1038A00097FB991F61F09F3F79F087950895121655
:1038B00013061406551FF2CF4695F1DF08C0161601
:1038C00017061806991FF1CF8695710561050894B2
:1038D0000895E894BB2766277727CB0197F90895C9
:1038E000F999FECF92BD81BDF89A992780B50895C8
:1038F000262FF999FECF1FBA92BD81BD20BD0FB60C
:10390000F894FA9AF99A0FBE01960895A1E21A2E38
:10391000AA1BBB1BFD010DC0AA1FBB1FEE1FFF1F73
:10392000A217B307E407F50720F0A21BB30BE40BC3
:10393000F50B661F771F881F991F1A9469F760950A
:103940007095809590959B01AC01BD01CF010895C4
:1039500009D0A59F900DB49F900DA49F800D911D3F
:1039600011240895A29FB001B39FC001A39F700DC1
:10397000811D1124911DB29F700D811D1124911D77
:103980000895EE0FFF1F881F8BBF0790F691E02D63
:1039900019946F927F928F929F92AF92BF92CF9223
:1039A000DF92EF92FF920F931F93CF93DF93EC017F
:1039B000009781F4CB01DF91CF911F910F91FF9080
:1039C000EF90DF90CF90BF90AF909F908F907F90BF
:1039D0006F9060CAFC01E60FF71F9C01225031096D
:1039E000E217F30708F4A8C0D9010D911C911197B3
:1039F00006171707A8F00530110508F49BC0C80189
:103A000004978617970708F495C002501109061B02
:103A1000170B019311936D937C93CF01D0DA8AC079
:103A20005B01A01AB10A4C01800E911EA091CD0835
:103A3000B091CE0840E050E0E12CF12C109709F451
:103A40004AC0A815B905D1F56D907C901197630116
:103A500082E0C80ED11CCA14DB0480F1A3014A190C
:103A60005B096A0182E0C80ED11C1296BC901297C5
:103A70001396AC91B5E0CB16D10440F0B282A3838B
:103A800051834083D9016D937C930AC00E5F1F4F11
:103A9000C301800F911FF90191838083EB2DFA2FD1
:103AA000E114F10431F0D7011396FC93EE931297D1
:103AB00041C0F093CE08E093CD083CC08D919C911D
:103AC00011974817590708F4AC017D0112960D9023
:103AD000BC91A02DB3CF8091CB089091CC088815D4
:103AE0009905E1F446175707C8F480910A029091AE
:103AF0000B02009741F48DB79EB740910E02509192
:103B00000F02841B950BE817F907B0F4F093CC086B
:103B1000E093CB08F901718360830CC0CB01BAD963
:103B20007C01009749F0A801BE011BD0CE0147DA05
:103B3000C70104C0CE0102C080E090E0DF91CF91C8
:103B40001F910F91FF90EF90DF90CF90BF90AF90BB
:103B50009F908F907F906F90089581E090E0F8940F
:103B600033C0FB01DC0102C001900D924150504076
:103B7000D8F70895FB01DC018D91019080190110A7
:103B8000D9F3990B0895FB01DC0101900D920020FF
:103B9000E1F70895FB0151915523A9F0BF01DC0124
:103BA0004D9145174111E1F759F4CD0101900020E5
:103BB00049F04D9140154111C9F3FB014111EFCF7F
:103BC00081E090E00197089511E0C2E9D1E000E0C2
:103BD00005C0802FFE01D5DE2196011DC339D10716
:0A3BE00080E00807B1F7F894FFCF6A
:103BEA001027000031201C0000010000CF088000CF
:103BFA00000000005F09990DF808A50929090709BD
:103C0A001B0900000000C80AB40AD90AA60AAD0AAC
:103C1A00AA0AA70A41726475696E6F2062656C749C
:103C2A000022004154202B20434D4753203D2000C1
:103C3A0041542B434D47463D310D0030310030325F
:103C4A000030380030390031300031310031320073
:103C5A003133003134003135003136003137005309
:103C6A006D732061616E00534D5320776F726474D7
:103C7A002041414E2067657A657400536D73207543
:103C8A00697400534D5320776F72647420554954F8
:103C9A002067657A65740044726F6F6700466F75B6
:103CAA00746965766520696E766F65720064726FF5
:103CBA006F6774696A64206973206E752000736582
:103CCA00636F6E64656E00566C6F74746572006C17
:103CDA0061616777617465722064656C61792069D6
:103CEA0073206E75200054313D0074656C65666FF3
:103CFA006F6E6E756D6D65722031206973206E75F9
:103D0A00200054323D0074656C65666F6F6E6E7587
:103D1A006D6D65722032206973206E7520005433F0
:103D2A003D0074656C65666F6F6E6E756D6D65725C
:103D3A002033206973206E7520003F740054656C2F
:103D4A0065666F6F6E6E756D6D657220003F7431BA
:103D5A00003F7432003F743300666F757420696ED9
:103D6A002061616E76726161672074656C65666F49
:103D7A006F6E6E756D6D65720053746174757370D4
:103D8A00320050322061616E00506F6D70322077C0
:103D9A006F7264742041414E2067657A65740050E1
:103DAA00322075697400506F6D703220776F7264BB
:103DBA0074205549542067657A65740052657365A5
:103DCA00740041726475696E6F20776F7264742033
:103DDA00676572657365740047505253206D6F644E
:103DEA00656D20776F726474200067657374617201
:103DFA00742E2E2E0047505253206D6F64656D202D
:103E0A0069732000564D4450565F317C315F564DE0
:103E1A004450560D0A00412300444F574E006D6F1F
:103E2A0064656D2069732075697467657A65742E97
:103E3A00204F706E69657577206F70737461727444
:103E4A00656E006F706E6965757720004750525332
:103E5A00206D6F64656D206C6F6774206F6E2E2EF7
:103E6A002E0047505253206D6F64656D2072656154
:103E7A0064792E2E2E00766572626F6E64656E20EE
:103E8A006D6574206E65747765726B006D6F64651D
:103E9A006D20776F72647420696E20534D53206DC4
:103EAA006F64652067657A65740041542B434E4DF3
:103EBA00493D322C322C302C302C300D004C4141F3
:103ECA004700484F4F470044524F4F47004E415416
:103EDA0000534D53206B6F64652061616E67657A8C
:103EEA00657400534D53206B6F6465207569746760
:103EFA00657A65740044652062616B2076616E2084
:103F0A006465206F6E74776F7274656C6465206285
:103F1A006F6F6D206973206C6565672E2048454C6C
:103F2A00502100506F6D70322069732041414E203C
:103F3A0067657A657400506F6D7032206973205519
:103F4A0049542067657A65740057617465722073F5
:103F5A00656E736F722064726F6F673B20506F6D6E
:103F6A007020322076616E206F6E74776F7274657E
:103F7A006C646520626F6F6D20697320696E676576
:103F8A00736368616B656C64210054657374626560
:103F9A007269636874204F6E74776F7274656C64AB
:103FAA006520626F6F6D0053746174757320706F52
:103FBA006D7032203D2041414E0053746174757317
:103FCA0020706F6D7032203D205549540041726453
:103FDA0075696E6F20424F4F4D20776F726474205F
:103FEA0067657265736574004E65747370616E6E91
:103FFA00696E6720776567676576616C6C656E20A8
:10400A0062696A20646520626F6F6D006E6965740B
:0C401A0020766572626F6E64656E0000B7
:00000001FF
