:1000000015C1000044C1000042C1000040C1000011
:100010003EC100003CC100003AC1000038C10000F0
:1000200036C1000034C1000032C1000030C1000000
:100030002EC100002CC100002AC1000028C1000010
:1000400026C1000024C1000022C1000020C1000020
:100050001EC100001CC100001AC100000C94A10BBD
:1000600016C100000C94550A0C94180910C1000028
:100070000EC100000CC100000AC1000008C1000050
:1000800006C1000004C1000002C1000000C1000060
:100090000C94EF080C94C608FAC000000C94EB0B0B
:1000A000F6C00000F4C00000F2C00000F0C0000084
:1000B000EEC00000ECC00000EAC00000E8C0000094
:1000C000E6C00000E4C00000E2C00000E0C00000A4
:1000D000DEC00000DCC00000DAC00000D8C00000B4
:1000E000D6C00000CC09CF09BE09C209C809060A5A
:1000F000D309D709DD09E109E509EB09EF09F3099E
:10010000060AF909FD09010A00002200250028005D
:100110002B002E003100340002010000050108010F
:100120000B0100002100240027002A002D003000D0
:10013000330001010000040107010A01050505055E
:10014000070508080808020202020A0A080804044F
:10015000040401010101010101010303030303037D
:100160000303040707070C0C0C0C0C0C0C0C02020C
:10017000020206060606060606060B0B0B0B0B0B09
:100180000B0B010210202008081020401020408096
:10019000020102010804020101020408102040804B
:1001A00080402010080402018004020180402010D9
:1001B0000804020108040201010204081020408022
:1001C00001020408102040800000200023002600C7
:1001D00029002C002F00320000010000030106015D
:1001E000090100000A0B02090C0D0E0807030401A7
:1001F00000000000000000000000000000000000FF
:1002000000000000000000000000000000001211CB
:1002100010000000000000000000000000000000CE
:1002200000000000000000007B15411011241FBEDB
:10023000CFEFD1E2DEBFCDBF00E00CBF16E0A0E003
:10024000B2E0EAE2F3E300E00BBF02C007900D92D8
:10025000A431B107D9F728E0A4E1B6E001C01D92AE
:10026000A13CB207E1F711E0C5E1D1E000E006C032
:1002700021970109802FFE010E946118C431D10726
:1002800080E00807A9F70E9474100C948419B8CE76
:100290008FEF9FEF08958091510690E091958195A1
:1002A00091090895089580E090E00895CF93DF9339
:1002B0001F921F92CDB7DEB7CB01642F49835A83BB
:1002C0000E941C0D4981842F5A81952F0F900F9009
:1002D000DF91CF910895CF93DF931F92CDB7DEB713
:1002E000698361E0CE0101960E941C0D81E090E0DF
:1002F0000F90DF91CF910895CF92DF92EF92FF920E
:100300000F931F93CF93DF938C017B016A01EC0164
:10031000EC16FD06F4F09E01201B310BF6018481E2
:1003200095812817390748F480819181009729F039
:10033000FC01E20FF31F608101C060E0CE010E946A
:10034000181864E170E080E090E00E945D0B219657
:10035000DFCFDF91CF911F910F91FF90EF90DF9052
:10036000CF900895CF93DF93EB01E0916607F09172
:1003700067070190F081E02D682F86E697E01995D8
:100380004C815D816881798186E697E0ADD664E332
:1003900074E086E697E0DF91CF91E3C60F931F9359
:1003A000CF93DF93CDB7DEB76E970FB6F894DEBF6D
:1003B0000FBECDBF8C0162E374E0CE0143960E9474
:1003C000C80F64E372E0CE0143960E94EC0EBE01BA
:1003D0006D5E7F4FCE0101960E94C00FBE016F5F20
:1003E0007F4F8AE6BFDFCE0101960E944E0F61E487
:1003F00072E0CE010D960E94C80F63E472E0CE0158
:1004000007960E94C80FBE01695F7F4FCE014996D3
:100410000E94C00FBE01635F7F4FCE0149960E94CC
:10042000DB0E69E678E00E94DB0EBE01635F7F4F62
:100430000E94DB0EBC01CE0101960E94C00FCE01CE
:1004400049960E944E0F60E572E089EC96E089D6ED
:1004500064E670E080E090E00E945D0BCE010196C2
:100460000E94690E64E670E080E090E00E945D0BFF
:100470006BE572E0C8010E94A50E882319F08BEA93
:1004800098E009C06EE572E0C8010E94A50E8823BD
:1004900079F085EA98E00E94690E60910402CE012D
:1004A00049960E94A80FBE01675E7F4F8DE685C00A
:1004B00061E672E0C8010E94A50E882339F08FE939
:1004C00098E00E94690E6FE978E06FC064E672E020
:1004D000C8010E94A50E882339F089E998E00E949E
:1004E000690E69E978E061C067E672E0C8010E94C0
:1004F000A50E882339F083E998E00E94690E63E92C
:1005000078E053C06AE672E0C8010E94A50E882315
:1005100039F08DE898E00E94690E6DE878E045C0FA
:100520006DE672E0C8010E94A50E882339F087E8C5
:1005300098E00E94690E67E878E037C060E772E0F3
:10054000C8010E94A50E882339F081E898E00E9436
:10055000690E61E878E029C063E772E0C8010E9493
:10056000A50E882339F08BE798E00E94690E6BE7AF
:1005700078E01BC066E772E0C8010E94A50E8823E0
:1005800039F085E798E00E94690E65E778E00DC0D4
:1005900069E772E0C8010E94A50E882399F08FE6F2
:1005A00098E00E94690E6FE678E0CE0149960E94BD
:1005B000C00FBE01675E7F4F8AE6D4DECE0149964A
:1005C0000E944E0F64E670E080E090E00E945D0BB8
:1005D000E091C906F091CA060190F081E02D6AE130
:1005E00089EC96E0199542E050E060E374E089EC14
:1005F00096E07AD564E670E080E090E00E945D0BC2
:1006000042E050E060E374E089EC96E06DD568E884
:1006100073E180E090E00E945D0BCE0101960E94A4
:100620004E0FCE0107960E944E0FCE010D960E94EE
:100630004E0FCE0143960E944E0F6E960FB6F89461
:10064000DEBF0FBECDBFDF91CF911F910F910895F7
:10065000CF92DF92EF92FF920F931F93CF93DF938E
:10066000CDB7DEB7A4970FB6F894DEBF0FBECDBFEF
:1006700062E374E0CE0143960E94C80F62E374E027
:10068000CE010D960E94C80F89EC96E02BD6181665
:1006900019060CF04BC4CE0101960E94DC0FBE017E
:1006A0006F5F7F4FCE010D960E94160FCE0101960F
:1006B0000E944E0FBE01635F7F4FCE0101960E94E4
:1006C000C00FBE016F5F7F4F89E64CDECE01019601
:1006D0000E944E0F6AE070E080E090E0EED76CE799
:1006E00072E0CE0101960E94C80FBE016F5F7F4F7E
:1006F000CE010D960E948B0E8C01CE0101960E94B8
:100700004E0F17FD11C064E872E0CE0101960E9401
:10071000C80F81E38093040261E380E090E00E94CF
:1007200018186BE572E024C068E972E0CE0101960A
:100730000E94C80FBE016F5F7F4FCE010D960E94D1
:100740008B0E8C01CE0101960E944E0F17FD1CC02E
:1007500060EA72E0CE0101960E94C80F80E38093A8
:10076000040260E380E090E00E9418186EE572E0F9
:10077000CE0107960E94C80FCE0107960FDECE016C
:1007800007960E944E0FCFC364EB72E0CE01019634
:100790000E94C80FBE016F5F7F4FCE010D960E9471
:1007A0008B0E8C01CE0101960E944E0F17FD61C089
:1007B00064EB72E0CE0101960E94C80FBE016F5F2C
:1007C0007F4FCE010D960E948B0E8C01CE010196BB
:1007D0000E944E0F9801265F3F4FA8014A5F5F4F6E
:1007E000BE01635F7F4FCE0101960E94FD0FCE01D7
:1007F00001960E94800E6B017C01672B09F4C4C135
:10080000BE016F5F7F4FCE0107960E94C00FAE0101
:10081000495F5F4F6EE070E08BE090E06DDDCE01F0
:1008200007960E944E0F88EE93E08C9DA0018D9D4F
:10083000500D9C9D500D1124052E000C660B770B5E
:1008400040930502509306026093070270930802DA
:100850002AE0CE0107960E94520FBE01695F7F4FCA
:1008600086E680DDCE0107960E944E0F6AEC72E0AC
:1008700074C064EE72E0CE0101960E94C80FBE0102
:100880006F5F7F4FCE010D960E948B0E8C01CE01C3
:1008900001960E944E0F17FD70C064EE72E0CE010B
:1008A00001960E94C80FBE016F5F7F4FCE010D966B
:1008B0000E948B0E8C01CE0101960E944E0F980172
:1008C000245F3F4FA801485F5F4FBE01635F7F4FCA
:1008D000CE0101960E94FD0FCE0101960E94800E6E
:1008E0006B017C01672B09F44FC1BE016F5F7F4F25
:1008F000CE0107960E94C00FAE01495F5F4F62E1D3
:1009000070E08FE090E0F8DCCE0107960E944E0F79
:1009100088EE93E08C9DA0018D9D500D9C9D500D07
:100920001124052E000C660B770B409300025093A8
:10093000010260930202709303022AE0CE0107963F
:100940000E94520FBE01695F7F4F83E60BDDCE012F
:1009500007960E944E0F6CEE72E0CE0107960E9441
:10096000C80FBE016F5F7F4FCE0107960E94DB0E5E
:100970006BED72E00E94C40E45C163E073E0CE01EE
:1009800001960E94C80FBE016F5F7F4FCE010D968A
:100990000E948B0E8C01CE0101960E944E0F17FD16
:1009A00053C063E073E0CE0101960E94C80FBE0100
:1009B0006F5F7F4FCE010D960E948B0E8C01CE0192
:1009C00001960E944E0F9801235F3F4FA8014D5F93
:1009D0005F4FBE01635F7F4FCE0101960E94FD0F06
:1009E000CE0101960E94800E672B09F4CDC0BE0196
:1009F0006F5F7F4FCE0107960E94C00FAE01495F27
:100A00005F4F6AE070E081E090E076DCCE0107960F
:100A10000E944E0FBE016F5F7F4F89E698E00E94F3
:100A2000010FBE016F5F7F4FCE0107960E94C00F7E
:100A3000BE01695F7F4F8EE695DCCE0107960E946E
:100A40004E0F67E073E0D3C06FE173E0CE01019613
:100A50000E94C80FBE016F5F7F4FCE010D960E94AE
:100A60008B0E8C01CE0101960E944E0F17FD53C0D4
:100A70006FE173E0CE0101960E94C80FBE016F5F67
:100A80007F4FCE010D960E948B0E8C01CE010196F8
:100A90000E944E0F9801235F3F4FA8014D5F5F4FAB
:100AA000BE01635F7F4FCE0101960E94FD0FCE0114
:100AB00001960E94800E672B09F466C0BE016F5F2D
:100AC0007F4FCE0107960E94C00FAE01495F5F4F76
:100AD0006CE170E083E190E00FDCCE0107960E94AC
:100AE0004E0FBE016F5F7F4F83E698E00E94010FBB
:100AF000BE016F5F7F4FCE0107960E94C00FBE01FF
:100B0000695F7F4F8FE62EDCCE0107960E944E0F65
:100B100063E273E06CC06BE373E0CE0101960E9468
:100B2000C80FBE016F5F7F4FCE010D960E948B0EE6
:100B30008C01CE0101960E944E0F17FD6FC06BE332
:100B400073E0CE0101960E94C80FBE016F5F7F4F18
:100B5000CE010D960E948B0E8C01CE0101960E9453
:100B60004E0F9801235F3F4FA8014D5F5F4FBE01BD
:100B7000635F7F4FCE0101960E94FD0FCE0101966B
:100B80000E94800E672B39F46AEB72E081E898E0EE
:100B90000E94EC0E40C0BE016F5F7F4FCE010796F2
:100BA0000E94C00FAE01495F5F4F66E270E08DE1C9
:100BB00090E0A2DBCE0107960E944E0FBE016F5F50
:100BC0007F4F8DE598E00E94010FBE016F5F7F4F60
:100BD000CE0107960E94C00FBE01695F7F4F80E77C
:100BE000C1DBCE0107960E944E0F6FE373E0CE018A
:100BF00007960E94C80FBE016F5F7F4FCE01079618
:100C00000E94DB0EBC0181E898E00E94010FCE013A
:100C100007960E944E0F60E772E0AACD67E573E089
:100C2000CE0101960E94C80FBE016F5F7F4FCE01BB
:100C30000D960E948B0E8C01CE0101960E944E0FE4
:100C400017FD99C06AE573E0CE0101960E94C80FB6
:100C50006AE673E0CE0107960E94C80FBE01695F85
:100C60007F4FCE010D960E948B0E8C01CE01079610
:100C70000E944E0F17FD0AC069E678E0CE014F963C
:100C80000E94C00F4AE061E070E01DC06EE673E0B4
:100C9000CE0107960E94C80FBE01695F7F4FCE014B
:100CA0000D960E948B0E8C01CE0107960E944E0F6E
:100CB00017FD36C063E678E0CE014F960E94C00F64
:100CC0004AE062E070E0CE0149960E947E0FBE01CC
:100CD0006F5F7F4FCE0107960E94C00FBE01675E17
:100CE0007F4FCE0107960E94DB0E6EE472E00E94F9
:100CF000C40EBE01615E7F4F0E94DB0EBC01CE01BF
:100D000001960E94010FCE0107960E944E0FCE0160
:100D100049960E944E0FCE014F960E944E0F23C05F
:100D200062E773E0CE0107960E94C80FBE01695FBB
:100D30007F4FCE010D96EFD78C01CE0107960E9412
:100D40004E0F17FD0AC06DE578E0CE014F960E9468
:100D5000C00F4AE063E070E0B6CF66E773E0CE0113
:100D600001960E94EC0EBE016F5F7F4F81E898E014
:100D70000E94010F50CF66E973E0CE0101960E94F8
:100D8000C80FBE016F5F7F4FCE010D96C4D78C0197
:100D9000CE0101960E944E0F17FD39C062E374E048
:100DA000CE0107960E94C80F62E374E0CE0101965F
:100DB0000E94C80F8AE02AD4019749F462EA73E0DE
:100DC000CE0107960E94EC0E63E772E008C06FEB5D
:100DD00073E0CE0107960E94EC0E66E772E0CE014A
:100DE0000196FAD7BE016F5F7F4FCE0149960E94F0
:100DF000C00FCE014996D2DACE0149960E944E0F1D
:100E0000CE0101960E944E0FCE0107968EC06FE96B
:100E100073E0CE0101960E94C80FBE016F5F7F4F45
:100E2000CE010D9678D78C01CE0101960E944E0F0F
:100E300017FD16C066EA73E0CE0101960E94C80F46
:100E400064E672E0CE0107960E94C80FCE010796B5
:100E5000A5DACE0107960E944E0F84E090E027C0ED
:100E60006CEB73E0CE0101960E94C80FBE016F5F6C
:100E70007F4FCE010D964FD78C01CE0101960E9477
:100E80004E0F17FD19C063EC73E0CE0101960E946E
:100E9000C80F67E672E0CE0107960E94C80FCE0128
:100EA00007967CDACE010796F9D785E090E090931B
:100EB00018068093170637C069ED73E0CE010196DE
:100EC0000E94C80FBE016F5F7F4FCE010D9623D7E2
:100ED0008C01CE010196E2D717FD28C06FED73E0BB
:100EE000CE0101960E94C80F69E772E0CE01079615
:100EF0000E94C80FCE01079651DACE010796CED7D1
:100F000010921806109217061092150610921606E7
:100F100060E08AE0A3D388E079D321E0892B09F44B
:100F200020E020931406CE010196B8D7CE010D968D
:100F3000B5D7CE014396B2D7A4960FB6F894DEBFCC
:100F40000FBECDBFDF91CF911F910F91FF90EF901A
:100F5000DF90CF900895CF92DF92EF92FF920F93A0
:100F60001F93CF93DF93CDB7DEB72C970FB6F894CE
:100F7000DEBF0FBECDBF8C017B016A0162E374E06E
:100F80000E94C80FCE14DF041CF1C7010E94101884
:100F9000282F30E0B901605371094AE0CE0107966D
:100FA000ADD7B801CE010196EBD7BE01695F7F4F87
:100FB000CE01019600D7BC01C80123D7CE0101960E
:100FC0006DD7CE0107966AD78FEFE81AF80ADACF05
:100FD000C8012C960FB6F894DEBF0FBECDBFDF91CF
:100FE000CF911F910F91FF90EF90DF90CF900895D8
:100FF0000F931F93CF93DF93CDB7DEB72C970FB628
:10100000F894DEBF0FBECDBF8C0165EF73E0CE015B
:101010000196BED7B801CE010196CDD667E074E047
:10102000B3D6BC01CE010796ABD7BE01695F7F4F37
:101030008AE698D9CE01079631D7CE0101962ED7F0
:1010400061E089E00BD368EE73E080E090E035D397
:1010500060E089E003D368E873E180E090E02DD39D
:1010600062E174E0CE01019693D7B801CE010196FA
:10107000A2D667E074E088D6BC01CE01079680D77F
:10108000BE01695F7F4F8AE66DD9CE01079606D70C
:10109000CE01019603D7CE0101968ED7BE016F5FB8
:1010A0007F4F81E598E0C2D6CE010196F7D661E583
:1010B00078E0CE01019664D7BE016F5F7F4F89E66D
:1010C00051D9CE010196EAD66AE070E080E090E066
:1010D000F4D22C960FB6F894DEBF0FBECDBFDF91D1
:1010E000CF911F910F910895CF92DF92EF92FF92CF
:1010F0000F931F93CF93DF936C017A018B01C0E0B4
:10110000D0E0CE15DF0589F0D8016D918D01D601B3
:10111000ED91FC910190F081E02DC6011995892B8C
:1011200011F47E0102C02196ECCFC701DF91CF916F
:101130001F910F91FF90EF90DF90CF90089589EC71
:1011400096E0D0D021E0892B09F420E0822F089589
:1011500086E697E0C7D021E0892B09F420E0822FB2
:1011600008956115710579F0FB0101900020E9F700
:101170003197AF01461B570BDC01ED91FC910280CA
:10118000F381E02D199480E090E008951F920F9272
:101190000FB60F9211240BB60F922F933F934F93DC
:1011A0005F936F937F938F939F93AF93BF93EF93CF
:1011B000FF9389EC96E0A2D1FF91EF91BF91AF919F
:1011C0009F918F917F916F915F914F913F912F915F
:1011D0000F900BBE0F900FBE0F901F9018951F928F
:1011E0000F920FB60F9211240BB60F922F933F93CD
:1011F0004F935F936F937F938F939F93AF93BF931F
:10120000EF93FF9389EC96E037D1FF91EF91BF9177
:10121000AF919F918F917F916F915F914F913F918E
:101220002F910F900BBE0F900FBE0F901F9018952F
:101230001F920F920FB60F9211240BB60F922F939D
:101240003F934F935F936F937F938F939F93AF934E
:10125000BF93EF93FF9386E697E050D1FF91EF9114
:10126000BF91AF919F918F917F916F915F914F91BE
:101270003F912F910F900BBE0F900FBE0F901F90BC
:101280001895FC01538D448D252F30E0842F90E07C
:10129000821B930B541710F0CF9608950197089571
:1012A000FC01918D828D981761F0828DDF01A80F6E
:1012B000B11D5D968C91928D9F5F9F73928F90E090
:1012C00008958FEF9FEF0895FC01918D828D9817FF
:1012D00031F0828DE80FF11D858D90E008958FEF3C
:1012E0009FEF0895FC01918D228D892F90E0805C05
:1012F0009F4F821B91098F739927089580E090E09A
:10130000892B19F025DF811120C080E090E0892B26
:1013100019F015DF81111CC080E090E0892B41F0AD
:1013200080E090E0892B21F00E940000811113C021
:1013300080E090E0892BA1F080E090E0892B81F0A3
:101340000E94000081110AC008950E940000DDCFB4
:101350000E940000E1CF0E940000EACF0C94000040
:10136000089590E0FC013197E231F10508F04EC09C
:101370008827EE58FF4F8F4F0C94611880918000A2
:101380008F7703C0809180008F7D809380000895C7
:1013900080918000877FF9CF84B58F7702C084B5B4
:1013A0008F7D84BD08958091B0008F7703C08091B8
:1013B000B0008F7D8093B0000895809190008F776A
:1013C00007C0809190008F7D03C080919000877F3F
:1013D0008093900008958091A0008F7707C080913E
:1013E000A0008F7D03C08091A000877F8093A00024
:1013F0000895809120018F7707C0809120018F7D13
:1014000003C080912001877F8093200108953FB71A
:10141000F8948091C5069091C606A091C706B09138
:10142000C80626B5A89B05C02F3F19F00196A11D3F
:10143000B11D3FBFBA2FA92F982F8827820F911D6A
:10144000A11DB11DBC01CD0142E0660F771F881FB1
:10145000991F4A95D1F7089585ED8093BC0080913E
:10146000BC0084FDFCCF10929A06089508958FEF7A
:101470009FEF08950E944D19FC01A089B1898C91BC
:10148000A689B78982FD0FC09C91818D8F5F8F7374
:10149000228D821749F0218DDF01A20FB11D5D96CB
:1014A0009C93818F08958C9108951F920F920FB68F
:1014B0000F9211240BB60F922F933F934F935F938C
:1014C0006F937F938F939F93AF93BF93EF93FF930C
:1014D00086E697E0D1DFFF91EF91BF91AF919F91A9
:1014E0008F917F916F915F914F913F912F910F90CD
:1014F0000BBE0F900FBE0F901F901895FC01848DAE
:10150000DF01A80FB11DA35ABF4F2C91848D90E02D
:1015100001968F739927848FA689B7892C93A08908
:10152000B1898C9180648C93938D848D981306C0BF
:101530000288F389E02D80818F7D80830895EF926A
:10154000FF920F931F93CF93DF93EC0181E0888F7D
:101550009B8D8C8D981305C0E889F989808185FD64
:1015600023C0F62E0B8D10E00F5F1F4F0F73112756
:10157000E02E8C8DE8120BC00FB607FCFACFE8897D
:10158000F989808185FFF5CFCE01B8DFF2CF8B8D51
:10159000FE01E80FF11DE35AFF4FF0820B8FEA893D
:1015A000FB898081806207C0EE89FF896083E889BA
:1015B000F98980818064808381E090E0DF91CF9120
:1015C0001F910F91FF90EF900895CF93DF93EC015F
:1015D000888D8823C1F0EA89FB89808185FD05C05B
:1015E000A889B9898C9186FD0EC00FB607FCF5CF8E
:1015F000808185FFF2CFA889B9898C9185FFEDCFD5
:10160000CE017CDFE8CFDF91CF910895CF93DF93B8
:10161000282F30E0F901EE51FE4F8491F901EE5789
:10162000FE4FD491F901E45CFE4FC491CC2389F0C4
:10163000811197DEEC2FF0E0EE0FFF1FE853FE4F15
:10164000A591B491EC91ED2381E090E021F480E04C
:1016500002C080E090E0DF91CF9108951F93CF9377
:10166000DF93282F30E0F901EE51FE4F8491F9010C
:10167000EE57FE4FD491F901E45CFE4FC491CC23A8
:10168000C1F0162F81116DDEEC2FF0E0EE0FFF1F81
:10169000E85FFE4FA591B4918FB7F894111105C082
:1016A0009C91ED2FE095E92302C0EC91ED2BEC939A
:1016B0008FBFDF91CF911F9108958F929F92AF922C
:1016C000BF92CF92DF92EF92FF926B017C019FDE7F
:1016D0004B015C01C114D104E104F104E9F097DE8F
:1016E000DC01CB0188199909AA09BB09883E9340FE
:1016F000A105B10578F321E0C21AD108E108F1088B
:1017000088EE880E83E0981EA11CB11CC114D10480
:10171000E104F10421F7DECFFF90EF90DF90CF904E
:10172000BF90AF909F908F9008952FB7F8946091DD
:10173000C1067091C2068091C3069091C4062FBF66
:1017400008951F920F920FB60F9211242F933F937B
:101750008F939F93AF93BF938091C1069091C206E0
:10176000A091C306B091C4063091C00623E0230FB8
:101770002D3720F40196A11DB11D05C026E8230FC9
:101780000296A11DB11D2093C0068093C1069093BF
:10179000C206A093C306B093C4068091C50690917B
:1017A000C606A091C706B091C8060196A11DB11D3D
:1017B0008093C5069093C606A093C706B093C8064B
:1017C000BF91AF919F918F913F912F910F900FBE3D
:1017D0000F901F9018951F920F920FB60F92112421
:1017E0000BB60F922F933F934F935F936F937F931B
:1017F0008F939F93AF93BF93EF93FF938091B90023
:10180000887F803609F49CC068F5883209F45BC093
:1018100090F4803109F454C038F4882309F4F6C0F8
:10182000883009F44DC0F5C0883109F44CC08032CD
:1018300009F45DC0EEC0803409F468C048F4803318
:1018400009F455C0883309F0E4C080939906D8C0E4
:10185000803509F44FC0883509F45DC0883409F03B
:10186000D8C0D6C0883909F4C7C0A8F4883709F4AD
:1018700067C038F4883609F463C0803709F460C063
:10188000C8C0883809F4B8C0803909F45FC080380E
:1018900009F0BFC05BC0803B09F486C038F4803AD1
:1018A00009F466C0883A09F47FC0B3C0803C09F4EB
:1018B000A7C0883C09F4A4C0883B09F48AC0A9C029
:1018C0008091BF0610C09091BE068091BD0698170A
:1018D00070F5E091BE0681E08E0F8093BE06F0E0C9
:1018E000E356F94F80818093BB0085EC86C08093DE
:1018F00099068EC0E091BE0681E08E0F8093BE06F1
:101900008091BB00F0E0E356F94F80839091BE06D2
:101910008091BD066EC0E091BE0681E08E0F80937F
:10192000BE068091BB00F0E0E356F94F80838091C2
:101930009C0681116DC081E080939B0684EA61C0A2
:1019400083E080939A0610929806CFCF80919806F4
:10195000803208F051C0E091980681E08E0F8093AC
:1019600098068091BB00F0E0E858F94F8083BDCF26
:1019700085EC8093BC0010929A0680919806803284
:1019800030F4E0919806F0E0E858F94F1082609149
:10199000980670E0E0917606F091770688E796E089
:1019A00019951092980635C084E080939A0610929B
:1019B000750610927406E0917206F09173061995FF
:1019C00080917406811105C081E0809374061092A5
:1019D0005206E091750681E08E0F80937506F0E067
:1019E000EE5AF94F80818093BB00909175068091EB
:1019F0007406981708F479CF85E88093BC0009C075
:101A000085EC8093BC0010929A0603C01092990650
:101A100023DDFF91EF91BF91AF919F918F917F91C6
:101A20006F915F914F913F912F910F900BBE0F904F
:101A30000FBE0F901F90189540917406262F30E02E
:101A4000240F311D21323105DCF420919A06243017
:101A5000C9F4FC0180E090E0861758F430917406D8
:101A60002191DC01AE5AB94FA30FB11D2C93019601
:101A7000F3CF80917406680F6093740680E0089538
:101A800081E0089582E0089508950F931F934DDE3D
:101A90006093D1067093D2068093D3069093D406B8
:101AA000E091C906F091CA060284F385E02D89EC25
:101AB00096E0199597FF1EC038DE0091D10610916F
:101AC000D2062091D3063091D406DC01CB01801BD5
:101AD000910BA20BB30B0091CD061091CE06209175
:101AE000CF063091D00680179107A207B307C0F246
:101AF0008FEF9FEF1F910F910895CF93DF93EC012C
:101B000088819981009711F00E94D5161982188258
:101B10001D821C821B821A82DF91CF9108950F9340
:101B20001F93CF93DF93EC0188819981009729F06F
:101B30002A813B812617370788F48B016F5F7F4F1F
:101B40000E946918009761F0998388831B830A8338
:101B50002C813D81232B11F4FC01108281E001C016
:101B600080E0DF91CF911F910F910895EF92FF9246
:101B70000F931F93CF93DF93FC012481358161156F
:101B8000710511F480E018C041155105A1F07B01E9
:101B9000EC018A01020F131FB801C1DF882391F302
:101BA000288139818C819D81B701820F931F0E940A
:101BB00063191D830C8381E0DF91CF911F910F91F9
:101BC000FF90EF900895EF92FF920F931F93CF93A2
:101BD000DF93EC017B018A01BA01A1DF811103C00F
:101BE000CE018BDF07C01D830C83B70188819981EB
:101BF0000E946319CE01DF91CF911F910F91FF9049
:101C0000EF900895CF92DF92EF92FF920F931F9380
:101C1000CF93DF93EC016A017B01E889F98982E0C7
:101C200080834115514E61057105B1F060E079E0A6
:101C30008DE390E0A70196010E94261889019A0180
:101C400001501109210931093695279517950795F6
:101C5000980101151041A8F0E889F989108260E81F
:101C600074E88EE190E0A70196010E942618DA013F
:101C7000C9010197A109B109B695A79597958795CF
:101C80009C01EC85FD853083EE85FF852083188ED1
:101C9000EC89FD8986E08083EA89FB898081806107
:101CA0008083EA89FB89808188608083EA89FB8957
:101CB000808180688083EA89FB8980818F7D808331
:101CC000DF91CF911F910F91FF90EF90DF90CF9018
:101CD0000895CF93DF93FC01448155816081718128
:101CE00089EC96E001DAEC0142E050E060E374E058
:101CF00089EC96E0F9D98C0F9D1FDF91CF91089563
:101D0000FC0180819181009711F00C946D1760E0C7
:101D100070E0CB010895CF93DF93FC0124813581DE
:101D2000232B71F0FB01DC01CD91DC91608171818D
:101D3000CE010E946A19009719F08C1B9D0B02C0FE
:101D40008FEF9FEFDF91CF910895FC0124813581C2
:101D5000232B31F421E061157105A1F0FB0108C0CE
:101D6000FC01808191816115710531F421E0FC0154
:101D70008081882339F005C00E945A1921E0892BFF
:101D800009F020E0822F0895CF93DF93EC016115D5
:101D9000710559F0FB0101900020E9F73197AF017F
:101DA000461B570BE3DE811102C0CE01A6DECE0139
:101DB000DF91CF910895CF93DF93EC01FB01448134
:101DC000558160817181D2DE811102C0CE0195DE24
:101DD000CE01DF91CF910895CF93DF93EC01611590
:101DE000710551F0FB0101900020E9F73197AF0137
:101DF000461B570BE8DE01C080DECE01DF91CF919C
:101E00000895CF93DF93EC01FB018617970751F0FC
:101E1000608171816115710521F044815581D3DEA6
:101E200001C06BDECE01DF91CF9108950F931F9318
:101E3000CF93DF938C01EB01FC01808191810097AE
:101E4000A9F0688179816115710579F0428153812A
:101E50002C813D814217530740F00E9463198C8109
:101E60009D81F8019583848312C09FD788819981D1
:101E7000F801918380838A819B81938382838C8103
:101E80009D8195838483198218821B821A821D8208
:101E90001C82DF91CF911F910F910895FC018081E9
:101EA000918183C70F931F93CF93DF93CDB7DEB795
:101EB000A1970FB6F894DEBF0FBECDBF8C01CB014A
:101EC000BA01F801118210821382128215821482E3
:101ED00030E0AE014F5F5F4F0E94BC17BE016F5FE5
:101EE0007F4FC80179DFA1960FB6F894DEBF0FBE11
:101EF000CDBFDF91CF911F910F9108950F931F9345
:101F0000CF93DF93CDB7DEB762970FB6F894DEBFFD
:101F10000FBECDBF8C01CB01F8011182108213825C
:101F200012821582148250E0BE016F5F7F4FFBD793
:101F3000BE016F5F7F4FC8014FDF62960FB6F89406
:101F4000DEBF0FBECDBFDF91CF911F910F910895DE
:101F5000CF93DF931F921F92CDB7DEB7FC011182A2
:101F60001082138212821582148269831A82BE0142
:101F70006F5F7F4F31DF0F900F90DF91CF9108950A
:101F8000FC0111821082138212821582148239CFD1
:101F9000FC01118210821382128215821482611553
:101FA000710549F0FB0101900020E9F73197AF017D
:101FB000461B570B08CE08950F931F93CF93DF93C3
:101FC0001F921F92CDB7DEB78C0162E374E0E0DFB1
:101FD0005CDD97FD0AC089831A8241E050E0BE01B2
:101FE0006F5F7F4FC801C2DDF3CFC8010F900F9024
:101FF000DF91CF911F910F910895BF92CF92DF9201
:10200000EF92FF920F931F93CF93DF937C016B01AD
:102010008A01E9012417350720F4812F8901C42F93
:10202000D82F62E374E0C701B3DFD60114968D9117
:102030009C91159708171907C8F48C179D0708F489
:10204000EC01D601ED91FC911197EC0FFD1FB080D2
:1020500010824D915C91BA01600F711FC701BCDE07
:10206000D601ED91FC91EC0FFD1FB082C701DF910D
:10207000CF911F910F91FF90EF90DF90CF90BF9085
:1020800008958BE498E00ADF81E598E007DF87E5B3
:1020900098E004DF8DE598E001DF83E698E0FEDE5E
:1020A00089E698E0FBDE8FE698E0F8DE85E798E0C9
:1020B000F5DE8BE798E0F2DE81E898E0EFDE87E876
:1020C00098E0ECDE8DE898E0E9DE83E998E0E6DE72
:1020D00089E998E0E3DE8FE998E0E0DE85EA98E0C0
:1020E000DDDE8BEA98E0DACECF93DF93CDB7DEB7B3
:1020F00060970FB6F894DEBF0FBECDBF789484B55D
:10210000826084BD84B5816084BD85B5826085BDF3
:1021100085B5816085BD80916E00816080936E0081
:102120001092810080918100826080938100809173
:102130008100816080938100809180008160809324
:1021400080008091B10084608093B1008091B000E4
:1021500081608093B00080919100826080939100B3
:1021600080919100816080939100809190008160C6
:10217000809390008091A10082608093A100809163
:10218000A10081608093A1008091A0008160809374
:10219000A000809121018260809321018091210122
:1021A00081608093210180912001816080932001D2
:1021B00080917A00846080937A0080917A008260B6
:1021C00080937A0080917A00816080937A00809178
:1021D0007A00806880937A001092C10010924708BC
:1021E000109248081092490810924A081092050867
:1021F00010920608109207081092080896DA6B01F0
:102200007C014B015C0188EB880E8BE0981EA11CC1
:10221000B11C8BDA6C157D058E059F0528F086169E
:102220009706A806B906A8F786E697E090934608B1
:102230008093450840E855E260E070E0E3DC75DA41
:102240006093050870930608809307089093080828
:1022500061E274E080914508909146080E94B108BF
:1022600064DA6B017C014B015C019AE0890E911CE0
:10227000A11CB11C5ADA6C157D058E059F0528F04E
:1022800086169706A806B906A8F781E08093190874
:10229000ECE8F1E02491E6E4F1E08491882399F000
:1022A00090E0880F991FFC01EE5DFE4FA591B4915F
:1022B000FC01E85FFE4F859194918FB7F894EC9103
:1022C000E22BEC938FBF60E08AE0C8D9EDE8F1E043
:1022D0002491E7E4F1E084918823C9F090E0880F2D
:1022E000991FFC01EE5DFE4F45915491FC01E85FA2
:1022F000FE4FA591B4919FB7F894FA018081209583
:10230000822380838C91E22FE823EC939FBF88E0A7
:102310007DD921E0892B09F420E02093140640E8C0
:1023200055E260E070E086E697E06CDC40E05BE45C
:1023300060E070E089EC96E065DC86E697E00E945C
:1023400072091816190664F063E374E086E697E0F4
:102350000E94B1086CE271E080E090E0AED9EDCF70
:102360006BE478E0CE0101960BDEBE016F5F7F4F1C
:102370008BE60E94B201CE01019690DD67E578E020
:10238000CE010196FDDDCE0101960E94F807CE0137
:10239000019684DD66E374E0CE010196F9DDBE01AD
:1023A0006F5F7F4F81E598E0B6DC8C01CE0101962E
:1023B00075DD17FD1FC06BE374E0CE010196E8DD0B
:1023C000BE016F5F7F4F8AE60E94B201CE01019687
:1023D00065DD60E674E087E598E0FEDC67E578E0BF
:1023E000CE010196CDDDCE0101960E94F807CE0107
:1023F000019654DD69E674E0CE010196C9DDBE01A7
:102400006F5F7F4F8AE60E94B201CE01019646DDE2
:1024100060E27EE480E090E050D96FE774E0CE01A6
:102420000196B6DDBE016F5F7F4F8AE60E94B20162
:10243000CE01019633DD63E974E08BE498E0CCDCF7
:102440006BE478E0CE0101969BDDBE016F5F7F4FAC
:102450008BE60E94B201CE01019620DD69EA74E0AC
:10246000CE01019695DDBE016F5F7F4F8AE60E9427
:10247000B201CE01019612DD60E572E089EC96E0D2
:102480000E94B10864E670E080E090E016D967EC45
:1024900074E089EC96E00E94B10864E670E080E0A8
:1024A00090E00BD9CE01019687DDBE016F5F7F4FB3
:1024B00081E598E0BBDCCE010196F0DC61E578E0D7
:1024C000CE0101965DDDBE016F5F7F4F89E60E9400
:1024D000B201CE010196E2DC6AE070E080E090E0BB
:1024E000ECD880E090E09CD58093040262E374E035
:1024F00089E698E071DC4AE050E061E070E0CE01EE
:1025000001960E94AB07BE016F5F7F4F89E698E09E
:102510008DDCCE010196C2DC4EE050E06BE070E055
:10252000CE0101960E94AB07CE010196E9DB9B012B
:10253000AC01A8EEB3E0ACD560930502709306023F
:102540008093070290930802CE010196A7DC42E136
:1025500050E06FE070E0CE0101960E94AB07CE0123
:102560000196CEDB9B01AC01A8EEB3E091D5AB01A7
:10257000BC014093000250930102609302027093E9
:102580000302CE0101964D875E876F87788B86DCCC
:102590002AE04D855E856F857889CE01019682DCC3
:1025A000BE016F5F7F4F83E60E94B201CE010196AC
:1025B00075DC4CE150E063E170E0CE0101960E94D1
:1025C000AB07BE016F5F7F4F83E698E02FDCCE0143
:1025D000019664DC46E250E06DE170E0CE010196C8
:1025E0000E94AB07BE016F5F7F4F8DE598E01EDC58
:1025F000CE01019653DC60910402CE010196A8DC65
:10260000BE016F5F7F4F8DE60E94B201CE01019641
:1026100045DC69E678E0CE010196B2DCBE016F5F71
:102620007F4F8EE60E94B201CE01019637DC63E651
:1026300078E0CE010196A4DCBE016F5F7F4F8FE68C
:102640000E94B201CE01019629DC6DE578E0CE0151
:10265000019696DCBE016F5F7F4F80E70E94B2015A
:10266000CE0101961BDC01E080E4482E87E7582E5E
:102670008BE1682E712C93E0C92ED12C24E0222E00
:10268000312C32E0E32EF12C0E94280388E00E94D6
:10269000060B11E0892B09F410E0109316068091C7
:1026A0001506882309F441C0112349F0109225062C
:1026B00010922606109227061092280666C0809077
:1026C000250690902606A0902706B0902806811433
:1026D0009104A104B10451F428D8609325067093A5
:1026E000260680932706909328064FC01ED8DC014B
:1026F000CB0188199909AA09BB09809321069093F7
:102700002206A0932306B0932406809000029090A6
:102710000102A0900202B090030288169906AA0650
:10272000BB06C0F51092150635C0112309F4BECFC3
:102730008090250690902606A0902706B090280647
:1027400081149104A104B10439F20E94950BDC01BB
:10275000CB0188199909AA09BB0980932106909396
:102760002206A0932306B093240620910002309104
:1027700001024091020250910302281739074A07CB
:102780005B0718F40093150602C0112319F06AEDD7
:1027900074E002C06FED74E0CE010196F9DBBE017A
:1027A0006F5F7F4F82E60E94B201CE01019676DB19
:1027B0004091000250910102609102027091030267
:1027C0002AE0CE0101966EDBBE016F5F7F4F83E68C
:1027D0000E94B201CE01019661DB40912106509129
:1027E000220660912306709124062AE0CE0101960C
:1027F00059DBBE016F5F7F4F8CE60E94B201CE01B4
:1028000001964CDB80911506882309F456C06AEDC9
:1028100074E0CE010196BCDBBE016F5F7F4F88E69E
:102820000E94B201CE01019639DB0E94950B2091E6
:102830001D0630911E0640911F0650912006DC01B6
:10284000CB01821B930BA40BB50B20911906309181
:102850001A0640911B0650911C06281739074A0793
:102860005B07C8F50E94950B60931D0670931E06CA
:1028700080931F06909320064092190650921A06E4
:1028800060921B0670921C0661E672E0CE0107960C
:102890007FDB80910402813369F4BE01695F7F4F61
:1028A000CE0101966DDBCE0101960E94CE01CE01D4
:1028B0000196F4DACE0107960DC06FED74E0CE01FB
:1028C000019666DBBE016F5F7F4F88E60E94B20112
:1028D000CE010196E3DA8BE00E94060B019729F402
:1028E0000093090264EE74E004C0109209026AEEDB
:1028F00074E0CE0101964CDBBE016F5F7F4F87E62F
:102900000E94B201CE010196C9DA8091170690911A
:1029100018068230910521F154F4009791F0019747
:1029200009F09AC060E08AE00E942E0B41C084301A
:10293000910509F48DC044F1059709F08DC060E060
:1029400088C081E090E0909318068093170610925B
:102950002D0610922E0610922F06109230067CC083
:1029600080910902882309F477C0D0921806C0929A
:1029700017060E94950B6093290670932A06809390
:102980002B0690932C0668C080910902811115C016
:102990001092290610922A0610922B0610922C06ED
:1029A00010922D0610922E0610922F0610923006CD
:1029B000F0921806E09217064FC00E94950B2091E6
:1029C000290630912A0640912B0650912C06DC01F5
:1029D000CB01821B930BA40BB50B80932D06909318
:1029E0002E06A0932F06B093300620910502309159
:1029F00006024091070250910802281739074A073A
:102A00005B0750F51092290610922A0610922B06A9
:102A100010922C0630921806209217066AE672E091
:102A2000CE010796B5DA80910402813369F4BE01C4
:102A3000695F7F4FCE010196A3DACE0101960E9415
:102A4000CE01CE0101962ADACE01079627DA04C01C
:102A500061E08AE00E942E0B8AE00E94060B4AE0A9
:102A6000BC01CE0101964ADABE016F5F7F4F81E65D
:102A70000E94B201CE01019611DA609117067091A1
:102A800018064AE0CE01019639DABE016F5F7F4F2A
:102A900084E60E94B201CE01019600DA40912D0633
:102AA00050912E0660912F06709130062AE0CE01DB
:102AB0000196F8D9BE016F5F7F4F85E60E94B20193
:102AC000CE010196EBD9409105025091060260912A
:102AD0000702709108022AE0CE010196E3D9BE01F7
:102AE0006F5F7F4F86E60E94B201CE010196D6D974
:102AF0000E947E09C9CDE9ECF6E01382128288EECD
:102B000093E0A0E0B0E084839583A683B78324E1BB
:102B100032E0318320834DEC50E0558744874CEC04
:102B200050E05787468748EC50E0518B408B49EC8A
:102B300050E0538B428B4AEC50E0558B448B4EEC6B
:102B400050E0578B468B118E128E138E148EE6E654
:102B5000F7E01382128284839583A683B78331833F
:102B6000208325EC30E03587248724EC30E037875C
:102B7000268720EC30E0318B208B21EC30E0338B4A
:102B8000228B22EC30E0358B248B26EC30E0378B27
:102B9000268B118E128E138E148EE3E0F8E01682CF
:102BA000178210861186128613861486158616865D
:102BB0001786108A118A128A138A148A158AE1EB01
:102BC000F8E01382128284839583A683B78386E21A
:102BD00092E0918380836EEE74E08BEA98E0D8D91E
:102BE00060E075E085EA98E0D3D962E175E08FE9AD
:102BF00098E0CED960E475E089E998E0C9D963E549
:102C000075E083E998E0C4D966E675E08DE898E060
:102C1000BFD967EA75E087E898E0BAD962E374E063
:102C200081E898E0B5D964EC75E08BE798E0B0D91D
:102C300067ED75E085E798E0ABD96AEE75E08FE661
:102C400098E0A6D962E374E089E698E0A1D962E34E
:102C500074E083E698E09CD962E374E08DE598E047
:102C600097D962E374E087E598E092D962E374E073
:102C700081E598E08DD965E076E08BE498E088C93D
:102C8000CF93DF938230910510F482E090E0E091E1
:102C9000BF08F091C00820E030E0C0E0D0E03097FD
:102CA00011F14081518148175907C0F04817590761
:102CB00061F482819381209719F09B838A832BC0D2
:102CC0009093C0088093BF0826C02115310519F0E4
:102CD0004217530718F49A01BE01DF01EF01028089
:102CE000F381E02DDCCF2115310509F1281B390BCB
:102CF0002430310590F412968D919C9113976115B3
:102D0000710521F0FB019383828304C09093C00876
:102D10008093BF08FD01329644C0FD01E20FF31F0E
:102D200081939193225031092D933C933AC0209185
:102D3000BD083091BE08232B41F420910C02309144
:102D40000D023093BE082093BD0820910A023091F5
:102D50000B022115310541F42DB73EB740910E020B
:102D600050910F02241B350BE091BD08F091BE0875
:102D7000E217F307A0F42E1B3F0B2817390778F052
:102D8000AC014E5F5F4F2417350748F04E0F5F1FB1
:102D90005093BE084093BD088193919302C0E0E038
:102DA000F0E0CF01DF91CF9108950F931F93CF9360
:102DB000DF93009709F48CC0FC01329713821282D2
:102DC0000091BF081091C0080115110581F4208100
:102DD0003181820F931F2091BD083091BE082817C2
:102DE000390779F5F093BE08E093BD0871C0D801AA
:102DF00040E050E0AE17BF0750F412962D913C9181
:102E00001397AD012115310509F1D901F3CF9D01CA
:102E1000DA013383228360817181860F971F8217C5
:102E2000930769F4EC0128813981260F371F2E5F43
:102E30003F4F318320838A819B8193838283452BFB
:102E400029F4F093C008E093BF0842C01396FC93A6
:102E5000EE931297ED01499159919E01240F351F70
:102E6000E217F30771F480819181840F951F029618
:102E700011969C938E938281938113969C938E934B
:102E80001297E0E0F0E0D80112968D919C91139793
:102E9000009719F0F8018C01F6CF8D919C91980163
:102EA0002E5F3F4F820F931F2091BD083091BE08C7
:102EB0002817390769F4309729F41092C008109246
:102EC000BF0802C0138212821093BE080093BD088F
:102ED000DF91CF911F910F9108951F93FC019927C6
:102EE0008827BC01E89411911032E9F3193010F0F1
:102EF0001E30C8F31B3249F01D3241F4689405C0FE
:102F000026D0610F711D811D911D119110531A3032
:102F1000B8F33EF490958095709561957F4F8F4FF3
:102F20009F4F1F9108954532510518F4423008F023
:102F300004C0FB011082CB010895BB274A3031F455
:102F4000992322F4BDE2909581959F4F41C0592F5E
:102F5000482F372F262F660F771F881F991F660F60
:102F6000771F881F991F620F731F841F951F660F9D
:102F7000771F881F991F08952532310518F42230D4
:102F800008F004C0FA011082CA010895BB27FA01B3
:102F9000A62F6217710581059105330B30FB66F092
:102FA000AA27660F771F881F991FAA1FA21710F064
:102FB000A21B63953850A9F7A05DAA3308F0A95D5C
:102FC000A19336F7B111B1931082CA0119C0BB2782
:102FD000FB015527AA27880F991FAA1FA41710F0D5
:102FE000A41B83955051B9F7A05DAA3308F0A95DE1
:102FF000A193009779F7B111B1931192CB0100C061
:10300000DC01FC01672F71917723E1F7329704C04F
:103010007C916D9370836291AE17BF07C8F30895DA
:10302000F999FECF92BD81BDF89A992780B5089590
:10303000262FF999FECF1FBA92BD81BD20BD0FB6D4
:10304000F894FA9AF99A0FBE01960895A1E21A2E01
:10305000AA1BBB1BFD010DC0AA1FBB1FEE1FFF1F3C
:10306000A217B307E407F50720F0A21BB30BE40B8C
:10307000F50B661F771F881F991F1A9469F76095D3
:103080007095809590959B01AC01BD01CF0108958D
:1030900009D0A59F900DB49F900DA49F800D911D08
:1030A00011240895A29FB001B39FC001A39F700D8A
:1030B000811D1124911DB29F700D811D1124911D40
:1030C0000895EE0FFF1F881F8BBF0790F691E02D2C
:1030D00019946F927F928F929F92AF92BF92CF92EC
:1030E000DF92EF92FF920F931F93CF93DF93EC0148
:1030F000009781F4CB01DF91CF911F910F91FF9049
:10310000EF90DF90CF90BF90AF909F908F907F9087
:103110006F90B6CDFC01E60FF71F9C0122503109DC
:10312000E217F30708F4A8C0D9010D911C9111977B
:1031300006171707A8F00530110508F49BC0C80151
:1031400004978617970708F495C002501109061BCB
:10315000170B019311936D937C93CF0126DE8AC0E8
:103160005B01A01AB10A4C01800E911EA091BF080C
:10317000B091C00840E050E0E12CF12C109709F428
:103180004AC0A815B905D1F56D907C9011976301DF
:1031900082E0C80ED11CCA14DB0480F1A3014A19D5
:1031A0005B096A0182E0C80ED11C1296BC9012978E
:1031B0001396AC91B5E0CB16D10440F0B282A38354
:1031C00051834083D9016D937C930AC00E5F1F4FDA
:1031D000C301800F911FF90191838083EB2DFA2F9A
:1031E000E114F10431F0D7011396FC93EE9312979A
:1031F00041C0F093C008E093BF083CC08D919C9102
:1032000011974817590708F4AC017D0112960D90EB
:10321000BC91A02DB3CF8091BD089091BE088815B8
:103220009905E1F446175707C8F480910A02909176
:103230000B02009741F48DB79EB740910E0250915A
:103240000F02841B950BE817F907B0F4F093BE0842
:10325000E093BD08F901718360830CC0CB0110DDE0
:103260007C01009749F0A801BE011BD0CE019DDD75
:10327000C70104C0CE0102C080E090E0DF91CF9191
:103280001F910F91FF90EF90DF90CF90BF90AF9084
:103290009F908F907F906F90089581E090E0F894D8
:1032A00033C0FB01DC0102C001900D92415050403F
:1032B000D8F70895FB01DC018D9101908019011070
:1032C000D9F3990B0895FB01DC0101900D920020C8
:1032D000E1F70895FB0151915523A9F0BF01DC01ED
:1032E0004D9145174111E1F759F4CD0101900020AE
:1032F00049F04D9140154111C9F3FB014111EFCF48
:1033000081E090E00197089511E0C5E1D1E000E08F
:1033100005C0802FFE01D5DE2196011DC631D107E3
:0A33200080E00807B1F7F894FFCF32
:10332A001027000031201C0000010000C1088000A5
:10333A00000000009F0A74084109E50A7209500951
:10334A006409000000006B0156015301360A4B0163
:10335A004801370A41726475696E6F2062656C7440
:10336A000022004154202B20434D4753203D20008A
:10337A0041542B434D47463D310D00303100303228
:10338A00003038003039003130003131003132003C
:10339A00313300313400313500313600536D73203A
:1033AA0061616E00534D5320776F726474204141FE
:1033BA004E2067657A657400536D732075697400D1
:1033CA00534D5320776F72647420554954206765B2
:1033DA007A65740044726F6F6700466F7574696529
:1033EA00766520696E766F65720064726F6F6774B6
:1033FA00696A64206973206E7520007365636F6E55
:10340A0064656E00566C6F74746572006C616167F6
:10341A0077617465722064656C6179206973206EC6
:10342A0075200054313D0074656C65666F6F6E6E71
:10343A00756D6D65722031206973206E7520005498
:10344A00323D0074656C65666F6F6E6E756D6D6585
:10345A00722032206973206E75200054333D007447
:10346A00656C65666F6F6E6E756D6D657220332063
:10347A006973206E7520003F740054656C65666F31
:10348A006F6E6E756D6D657220003F7431003F740A
:10349A0032003F743300666F757420696E20616173
:1034AA006E76726161672074656C65666F6F6E6EA9
:1034BA00756D6D6572005374617475737032005066
:1034CA00322061616E00506F6D703220776F7264C6
:1034DA00742041414E2067657A6574005032207528
:1034EA00697400506F6D703220776F726474205562
:1034FA0049542067657A65740052657365740041A2
:10350A00726475696E6F20776F7264742067657272
:10351A00657365740047505253206D6F64656D2062
:10352A00776F7264742000676573746172742E2EEB
:10353A002E0047505253206D6F64656D20697320C9
:10354A0000564D4450565F317C315F564D445056BB
:10355A000D0A00412300444F574E006D6F64656D9C
:10356A002069732075697467657A65742E204F70B7
:10357A006E69657577206F707374617274656E0019
:10358A006F706E69657577200047505253206D6FD2
:10359A0064656D206C6F6774206F6E2E2E2E004747
:1035AA00505253206D6F64656D2072656164792E87
:1035BA002E2E00766572626F6E64656E206D65747C
:1035CA00206E65747765726B006D6F64656D207728
:1035DA006F72647420696E20534D53206D6F646559
:1035EA002067657A65740041542B434E4D493D323C
:1035FA002C322C302C302C300D004C4141470048E5
:10360A004F4F470044524F4F47004E415400534DCD
:10361A0053206B6F64652061616E67657A6574001B
:10362A00534D53206B6F64652075697467657A65BD
:10363A00740044652062616B2076616E20646520A7
:10364A006F6E74776F7274656C646520626F6F6DEC
:10365A00206973206C6565672E2048454C5021000F
:10366A00506F6D70322069732041414E2067657A30
:10367A00657400506F6D703220697320554954206B
:10368A0067657A65740057617465722073656E7335
:10369A006F722064726F6F673B20506F6D702032BB
:1036AA002076616E206F6E74776F7274656C6465D4
:1036BA0020626F6F6D20697320696E676573636836
:1036CA00616B656C64210054657374626572696329
:1036DA006874204F6E74776F7274656C64652062CB
:1036EA006F6F6D0053746174757320706F6D7032F3
:1036FA00203D2041414E0053746174757320706FF0
:10370A006D7032203D205549540041726475696ECE
:10371A006F20424F4F4D20776F7264742067657235
:10372A0065736574006E69657420766572626F6E82
:04373A0064656E0054
:020000023000CC
:10E000000D9489F10D94B2F10D94B2F10D94B2F129
:10E010000D94B2F10D94B2F10D94B2F10D94B2F1F0
:10E020000D94B2F10D94B2F10D94B2F10D94B2F1E0
:10E030000D94B2F10D94B2F10D94B2F10D94B2F1D0
:10E040000D94B2F10D94B2F10D94B2F10D94B2F1C0
:10E050000D94B2F10D94B2F10D94B2F10D94B2F1B0
:10E060000D94B2F10D94B2F10D94B2F10D94B2F1A0
:10E070000D94B2F10D94B2F10D94B2F10D94B2F190
:10E080000D94B2F10D94B2F10D94B2F10D94B2F180
:10E090000D94B2F10D94B2F10D94B2F10D94B2F170
:10E0A0000D94B2F10D94B2F10D94B2F10D94B2F160
:10E0B0000D94B2F10D94B2F10D94B2F10D94B2F150
:10E0C0000D94B2F10D94B2F10D94B2F10D94B2F140
:10E0D0000D94B2F10D94B2F10D94B2F10D94B2F130
:10E0E0000D94B2F141546D656761323536300041AF
:10E0F000726475696E6F206578706C6F72657220DE
:10E1000073746B3530305632206279204D4C530099
:10E11000426F6F746C6F616465723E004875683F52
:10E1200000436F6D70696C6564206F6E203D200048
:10E130004350552054797065202020203D20005FF9
:10E140005F4156525F415243485F5F3D2000415658
:10E1500052204C696243205665723D20004743437C
:10E160002056657273696F6E203D20004350552024
:10E1700049442020202020203D20004C6F7720663D
:10E18000757365202020203D20004869676820665F
:10E190007573652020203D200045787420667573D6
:10E1A00065202020203D20004C6F636B2066757336
:10E1B000652020203D20004D617220203720323024
:10E1C000313300312E362E3800342E332E350056A2
:10E1D00023202020414444522020206F7020636F70
:10E1E00064652020202020696E73747275637469E1
:10E1F0006F6E2061646472202020496E74657272B3
:10E20000757074006E6F20766563746F7200726A49
:10E210006D702020006A6D70200057686174207056
:10E220006F72743A00506F7274206E6F7420737541
:10E2300070706F72746564004D7573742062652030
:10E2400061206C6574746572002000577269747483
:10E25000696E672045450052656164696E672045B7
:10E26000450045452065727220636E743D00504F35
:10E27000525400303D5A65726F2061646472003FF1
:10E280003D43505520737461747300403D454550C3
:10E29000524F4D207465737400423D426C696E6B41
:10E2A000204C454400453D44756D70204545505215
:10E2B0004F4D00463D44756D7020464C415348001B
:10E2C000483D48656C70004C3D4C69737420492F83
:10E2D0004F20506F72747300513D51756974005234
:10E2E0003D44756D702052414D00563D73686F7707
:10E2F00020696E7465727275707420566563746FF0
:10E30000727300593D506F727420626C696E6B00BD
:10E310002A0011241FBECFEFD1E2DEBFCDBF01E046
:10E320000CBF12E0A0E0B2E0EEE1FDEF03E00BBFB6
:10E3300002C007900D92A030B107D9F712E0A0E01B
:10E34000B2E001C01D92AE30B107E1F70F9460F367
:10E350000D948DFE01E20EBF0FEF0DBF11241FBE05
:10E360000D9460F30D9400F020E030E040ED57E0B4
:10E3700005C0FA013197F1F72F5F3F4F2817390792
:10E38000C0F308959C01260F311DC901A0E0B0E043
:10E390002F5F3F4FABBFFC018791882361F08093D3
:10E3A000C6008091C00086FFFCCF8091C0008064D1
:10E3B0008093C000EACF08958DE08093C6008091DD
:10E3C000C00086FFFCCF8091C00080648093C000B5
:10E3D0008AE08093C6008091C00086FFFCCF8091C8
:10E3E000C00080648093C00008950F94C2F10F9420
:10E3F000DCF10895FC019081992359F09093C600B7
:10E400008091C00086FFFCCF8091C0008064809323
:10E41000C0003196992379F70895282F982F929567
:10E420009F70892F805D8A3308F0895F8093C600D2
:10E430008091C00086FFFCCF8091C00080648093F3
:10E44000C000822F8F70982F905D9A3308F0995FEB
:10E450009093C6008091C00086FFFCCF8091C000E1
:10E4600080648093C00008959C01FB01853691056E
:10E470001CF46330710594F0C90164E670E00F94F8
:10E480002EFE605D7F4F6093C6008091C00086FFC6
:10E49000FCCF8091C00080648093C0002B30310598
:10E4A00014F43297B4F0C90164E670E00F942EFEC4
:10E4B0006AE070E00F942EFE605D7F4F6093C600AF
:10E4C0008091C00086FFFCCF8091C0008064809363
:10E4D000C000C9016AE070E00F942EFEC0968093E0
:10E4E000C6008091C00086FFFCCF8091C000806490
:10E4F0008093C00008951F93182F8EE692EE60E07F
:10E500000F94C2F11093C6008091C00086FFFCCF2B
:10E510008091C00080648093C0000F94DCF11F9153
:10E5200008952F923F924F925F926F927F928F92B7
:10E530009F92AF92BF92CF92DF92EF92FF920F9392
:10E540001F93DF93CF93CDB7DEB762970FB6F894E2
:10E55000DEBF0FBECDBF382E622ECA01DB015C01CB
:10E560006D01772420E2222E2E010894411C511CBB
:10E570008BC081E0A81680E0B80681E0C80680E084
:10E58000D80628F0C601AA27BB270F940DF2BB2797
:10E59000AD2D9C2D8B2D0F940DF28A2D0F940DF225
:10E5A0002092C6008091C00086FFFCCF8091C00001
:10E5B00080648093C0009DE29093C6008091C0006B
:10E5C00086FFFCCF8091C00080648093C0002092C1
:10E5D000C6008091C00086FFFCCF8091C00080649F
:10E5E0008093C00019828601750188249924A1E0D6
:10E5F0003A1651F03A1620F0B2E03B1661F409C029
:10E600000BBFF701779007C0C7010F9477FE782EF4
:10E6100002C0F7017080872D0F940DF22092C60082
:10E620008091C00086FFFCCF8091C0008064809301
:10E63000C000872D8052F401EF70F0708F3520F408
:10E64000E40DF51D708204C0E40DF51D8EE280839B
:10E650000894E11CF11C011D111D0894811C911CE2
:10E6600090E18916910409F0C2CF80E190E0A0E02A
:10E67000B0E0A80EB91ECA1EDB1E198AC2010F9493
:10E68000FAF10F94DCF16A94662009F072CF629679
:10E690000FB6F894DEBF0FBECDBFCF91DF911F91B3
:10E6A0000F91FF90EF90DF90CF90BF90AF909F9031
:10E6B0008F907F906F905F904F903F902F90089534
:10E6C0002F923F924F925F926F927F928F929F9282
:10E6D000AF92BF92CF92DF92EF92FF920F931F9370
:10E6E000DF93CF93CDB7DEB7CD53D1400FB6F894BB
:10E6F000DEBF0FBECDBF01E20EBF0FEF0DBF94B75F
:10E70000F894A89514BE80916000886180936000A1
:10E7100010926000789493FF05C0E0910002F091A0
:10E7200001021995279A2F9A8091C00082608093E8
:10E73000C00080E18093C40088E18093C1000000A4
:10E74000EE24FF24870144E0A42EB12CCC24DD2448
:10E7500024C0C5010197F1F70894E11CF11C011DCB
:10E76000111D21E2E2162EE4F20620E0020720E06D
:10E77000120718F031E0C32ED12CC801B70127ECE5
:10E780003BE140E050E00F9441FE611571058105C9
:10E79000910519F485B1805885B98091C00087FD35
:10E7A00003C0C114D104A9F2A6014F5F5F4FC25E3E
:10E7B000DE4F59834883CE51D140C25EDE4F8881FF
:10E7C0009981CE51D140019711F00D9410FEC05D9A
:10E7D000DE4F19821882C053D14060E0C15DDE4F28
:10E7E0001882CF52D14088249924C35DDE4F19820C
:10E7F0001882CD52D140C05EDE4F188219821A8233
:10E800001B82C052D140CE5CDE4F188219821A8220
:10E810001B82C253D140EE24FF2487010BBFF701B6
:10E8200007911691C45CDE4F19830883CC53D14005
:10E830000D940BFEC25EDE4F28813981CE51D1404E
:10E840002130310509F52091C600C25EDE4F1982E4
:10E850001882CE51D14022C02F5F3F4F4F4F5F4FA4
:10E86000213082E138078AE7480780E0580780F0C6
:10E87000C45CDE4FE881F981CC53D140EF5FFF4F9C
:10E8800019F0EE27FF27099420E030E040E050E047
:10E890008091C00087FFE0CF2091C600C35DDE4FAE
:10E8A00048815981CD52D1404F5F5F4FC35DDE4FEC
:10E8B00059834883CD52D140213209F063C64A3092
:10E8C000510508F05FC60894811C911C53E0851621
:10E8D000910409F059C600E010E018C081E280936D
:10E8E000C6008091C00086FFFCCF8091C00080648C
:10E8F0008093C0002F5F3F4F2931310579F70F9486
:10E90000DCF10F5F1F4F0530110519F020E030E0FA
:10E91000E5CF10920A0210920B0210920C02109294
:10E920000D02109206021092070210920802109235
:10E930000902109202021092030210920402109235
:10E9400005028FEE90EE60E00F94F5F180E191EE1C
:10E9500060E00F94C2F18091C00087FFFCCF9091DE
:10E96000C600903608F09F759032B8F09093C600BC
:10E970008091C00086FFFCCF8091C00080648093AE
:10E98000C000A0E2A093C6008091C00086FFFCCF2B
:10E990008091C00080648093C000983409F4D7C18E
:10E9A0009934B8F4923409F459C1933458F490333B
:10E9B00019F1903308F4E3C59F33A1F1903409F0C5
:10E9C000DEC5BDC0953409F470C1963409F0D7C5D1
:10E9D00098C1923509F42BC2933538F49C3409F46C
:10E9E000F5C1913509F0CBC518C2963509F445C279
:10E9F000993509F0C4C567C483E792EE62E00F94CD
:10EA0000F5F110920602109207021092080210927D
:10EA1000090210920A0210920B0210920C0210923C
:10EA20000D0213C18FE792EE62E00F94F5F18FEEC5
:10EA300090EE60E00F94F5F181E291EE60E00F94CA
:10EA4000C2F187EB91EE60E00F94F5F180E391EE77
:10EA500060E00F94C2F184EE90EE60E00F94F5F167
:10EA60008FE391EE60E00F94C2F186E090E061E008
:10EA700070E00F9434F20F94DCF18DE591EE60E0DC
:10EA80000F94C2F189EC91EE60E00F94F5F18EE401
:10EA900091EE60E00F94C2F183EC91EE60E00F9490
:10EAA000F5F18CE691EE60E00F94C2F18EE10F94E7
:10EAB0000DF288E90F940DF281E00F940DF20F949E
:10EAC000DCF18BE791EE60E00F94C2F119E0E0E039
:10EAD000F0E010935700E4918E2F0F940DF20F94F5
:10EAE000DCF18AE891EE60E00F94C2F1E3E0F0E03F
:10EAF00010935700E4918E2F0F940DF20F94DCF1D8
:10EB000089E991EE60E00F94C2F1E2E0F0E0109349
:10EB10005700E4918E2F0F940DF20F94DCF188EAE8
:10EB200091EE60E00F94C2F1E1E0F0E01093570045
:10EB30001491812F0F940DF20F94DCF107CF8BE825
:10EB400092EE62E00F94F5F18BE492EE60E00F94A8
:10EB5000F5F10F94DCF100E010E019C0C8016F2D51
:10EB60000F947FFEFF2031F489E492EE60E00F9471
:10EB7000C2F10BC0F092C6008091C00086FFFCCFAE
:10EB80008091C00080648093C0000F5F1F4FC80158
:10EB900081519F41A0E0B0E0ABBFFC01F790BAE229
:10EBA000FB1621F0E2E000301E07C1F60F94DCF105
:10EBB0000F94DCF187E592EE60E00F94F5F10F948D
:10EBC000DCF1CC24DD2400E010E01EC0C8010F946D
:10EBD00077FEF82E882331F489E492EE60E00F94FA
:10EBE000C2F10BC08093C6008091C00086FFFCCFAD
:10EBF0008091C00080648093C000FE1419F00894D6
:10EC0000C11CD11C0F5F1F4FC80181519F41A0E063
:10EC1000B0E0ABBFFC01E790FAE2EF1621F022E092
:10EC20000030120799F60F94DCF10F94DCF182E6C4
:10EC300092EE60E00F94C2F1C60161E070E00F94C3
:10EC400034F20F94DCF10F94DCF110920202109276
:10EC50000302109204021092050278CE89E992EE26
:10EC600062E00F94F5F1279A2F9A16C02F9880E052
:10EC700090E0E0EDF7E03197F1F7019684369105E9
:10EC8000C1F72F9A80E090E0E0EDF7E03197F1F7DF
:10EC9000019684369105C1F78091C00087FFE6CFC9
:10ECA0008091C00087FFFCCF64C485EA92EE62E0E9
:10ECB0000F94F5F140910202509103026091040219
:10ECC0007091050281E020E10F9491F2809102029F
:10ECD00090910302A0910402B091050280509F4FD1
:10ECE000AF4FBF4F8093020290930302A0930402A0
:10ECF000B093050280509041A040B04008F426CE69
:10ED0000A4CF83EB92EE62E00F94F5F140910602FE
:10ED100050910702609108027091090280E020E1A1
:10ED20000F9491F28091060290910702A09108023F
:10ED3000B091090280509F4FAF4FBF4F80930602A2
:10ED400090930702A0930802B0930902FFCD80ECD4
:10ED500092EE62E00F94F5F183E792EE60E00F949B
:10ED6000F5F18FE792EE60E00F94F5F18BE892EE0B
:10ED700060E00F94F5F189E992EE60E00F94F5F10F
:10ED800085EA92EE60E00F94F5F183EB92EE60E09D
:10ED90000F94F5F180EC92EE60E00F94F5F187ECC2
:10EDA00092EE60E00F94F5F188ED92EE60E00F9442
:10EDB000F5F18FED92EE60E00F94F5F18AEE92EEB0
:10EDC00060E00F94F5F183E093EEBDCD87EC92EE19
:10EDD00062E00F94F5F181E40F947BF282E40F94EA
:10EDE0007BF283E40F947BF284E40F947BF285E45E
:10EDF0000F947BF286E40F947BF287E40F947BF20E
:10EE000088E40F947BF28AE40F947BF28BE40F94F6
:10EE10007BF28CE40F947BF299CD88ED92EE62E068
:10EE20000F94F5F1772473948824992409C48FED05
:10EE300092EE62E00F94F5F140910A0250910B02BC
:10EE400060910C0270910D0282E020E10F9491F22A
:10EE500080910A0290910B02A0910C02B0910D02D8
:10EE600080509F4FAF4FBF4F80930A0290930B0289
:10EE7000A0930C02B0930D0269CD8AEE92EE62E08F
:10EE80000F94F5F184EE90EE60E00F94F5F18FECC5
:10EE900091EE60E00F94F5F1662477244301CC5D98
:10EEA000DE4F19821882C452D140D401C301B695F5
:10EEB000A79597958795CA5DDE4F88839983AA8326
:10EEC000BB83C652D140CC5DDE4FA881B981C4520C
:10EED000D1401196CC5DDE4FB983A883C452D14096
:10EEE000CD0162E070E00F9434F2B0E2B093C6005E
:10EEF0008091C00086FFFCCF8091C0008064809329
:10EF0000C000EDE2E093C6008091C00086FFFCCF18
:10EF10008091C00080648093C000F0E2F093C6004E
:10EF20008091C00086FFFCCF8091C00080648093F8
:10EF3000C000CA5DDE4FE880F9800A811B81C6529D
:10EF4000D140BB27A12F902F8F2D0F940DF2CA5DBA
:10EF5000DE4F8881C652D1400F940DF2B0E2FB2EF5
:10EF6000F092C6008091C00086FFFCCF8091C00067
:10EF700080648093C0000DE30093C6008091C000C0
:10EF800086FFFCCF8091C00080648093C00010E2B7
:10EF90001093C6008091C00086FFFCCF8091C00016
:10EFA00080648093C0008BBEF3012791C65DDE4F65
:10EFB0002883CA52D140A22EBB24CC24DD2408943D
:10EFC000611C711C811C911C8BBEF3018791282E42
:10EFD0003324442455240894611C711C811C911C09
:10EFE0008BBEF3013791C55DDE4F3883CB52D140E4
:10EFF0000894611C711C811C911C8BBEF30147910C
:10F00000C45DDE4F4883CC52D140ADEFEA2EAFEF66
:10F01000FA2EAFEF0A2FAFEF1A2F6E0C7F1C801E57
:10F02000911E142D032DF22CEE24EA0CFB1C0C1D5A
:10F030001D1D0F940DF220E22093C6008091C000A8
:10F0400086FFFCCF8091C00080648093C000C65DC5
:10F05000DE4F8881CA52D1400F940DF230E23093D6
:10F06000C6008091C00086FFFCCF8091C000806404
:10F070008093C000C45DDE4F8881CC52D1400F9494
:10F080000DF240E24093C6008091C00086FFFCCFA5
:10F090008091C00080648093C000C55DDE4F888190
:10F0A000CB52D1400F940DF250E25093C6008091A4
:10F0B000C00086FFFCCF8091C00080648093C000B8
:10F0C0008FEFE8168FEFF80680E0080780E018075A
:10F0D00031F484E092EE60E00F94C2F1DFC0D80119
:10F0E000C7018070907CA070B0708050904CA040A0
:10F0F000B040D1F52FEF3FE340E050E0E222F322B1
:10F1000004231523CA5DDE4FA880B980CA80DB8046
:10F11000C652D140AE0CBF1CC01ED11EAA0CBB1CD7
:10F12000CC1CDD1C8EE092EE60E00F94C2F1BB2798
:10F13000A12F902F8F2D0F940DF28E2D0F940DF285
:10F1400030E23093C6008091C00086FFFCCF8091F2
:10F15000C00080648093C0004EE34093C60080915D
:10F16000C00086FFFCCF87C08EE09EEFA0E0B0E03D
:10F17000E822F9220A231B239CE0E91694E9F90608
:10F1800090E0090790E0190709F088C0C45DDE4FE0
:10F19000A881CC52D140EA2EFF2400E010E0102FCD
:10F1A0000F2DFE2CEE24C55DDE4FB881CB52D14031
:10F1B000EB0EF11C011D111DD601C501817090706F
:10F1C000A070B070DC0199278827E80EF91E0A1F8D
:10F1D0001B1F20EF30E040E050E0A222B322C42207
:10F1E000D52241E1AA0CBB1CCC1CDD1C4A95D1F7F1
:10F1F000EA0CFB1C0C1D1D1D81E090E0A0E0B0E0BE
:10F20000282239224A225B2235E1220C331C441C7D
:10F21000551C3A95D1F7E20CF31C041D151D57013E
:10F220006801AA0CBB1CCC1CDD1C85E192EE60E0E1
:10F230000F94C2F1C801AA27BB270F940DF2BB2778
:10F24000A12F902F8F2D0F940DF28E2D0F940DF274
:10F2500090E29093C6008091C00086FFFCCF809121
:10F26000C00080648093C000AEE3A093C60080918C
:10F27000C00086FFFCCF8091C00080648093C000F6
:10F28000C601AA27BB270F940DF2BB27AD2D9C2DDD
:10F290008B2D0F940DF28A2D0F940DF20F94DCF14B
:10F2A000CC5DDE4FE881F981C452D140F99709F471
:10F2B0004DCBF4E0EF2EF12C012D112D6E0C7F1CA7
:10F2C000801E911EF2CD83E093EE62E00F94F5F183
:10F2D0008AE192EE60E00F94C2F18091C00087FF56
:10F2E000FCCF1091C6001F751093C6008091C0001E
:10F2F00086FFFCCF8091C00080648093C0000F9493
:10F30000DCF1812F81548A3108F036C1163409F4BA
:10F3100095C0173490F4133409F44EC0143430F40B
:10F320001134F1F0123409F01DC130C0143409F465
:10F3300059C0153409F016C16BC01A3409F4C4C0A1
:10F340001B3438F4173409F48FC0183409F00AC19B
:10F35000A1C01B3409F4D2C01C3409F003C1E8C0B9
:10F360008FEF81B90DC082B1809582B980E090E0C5
:10F37000E0EDF7E03197F1F70196883C9105C1F790
:10F380008091C00087FFEFCF12B8EFC08FEF84B934
:10F390000DC085B1809585B980E090E0E0EDF7E0A3
:10F3A0003197F1F70196883C9105C1F78091C00033
:10F3B00087FFEFCF15B8D9C08FEF87B90DC088B1DF
:10F3C000809588B980E090E0E0EDF7E03197F1F7C3
:10F3D0000196883C9105C1F78091C00087FFEFCF6F
:10F3E00018B8C3C08FEF8AB90DC08BB180958BB9A7
:10F3F00080E090E0E0EDF7E03197F1F70196883C8E
:10F400009105C1F78091C00087FFEFCF1BB8ADC059
:10F410008FEF8DB90DC08EB180958EB980E090E0F0
:10F42000E0EDF7E03197F1F70196883C9105C1F7DF
:10F430008091C00087FFEFCF1EB897C08FEF80BBD1
:10F440000DC081B3809581BB80E090E0E0EDF7E0F6
:10F450003197F1F70196883C9105C1F78091C00082
:10F4600087FFEFCF11BA81C08FEF83BB0DC084B38C
:10F47000809584BB80E090E0E0EDF7E03197F1F714
:10F480000196883C9105C1F78091C00087FFEFCFBE
:10F4900014BA6BC08FEF809301010FC080910201FD
:10F4A00080958093020180E090E0E0EDF7E03197F5
:10F4B000F1F70196883C9105C1F78091C00087FF64
:10F4C000EDCF1092020151C08FEF809304010FC065
:10F4D0008091050180958093050180E090E0E0ED4A
:10F4E000F7E03197F1F70196883C9105C1F78091DB
:10F4F000C00087FFEDCF1092050137C08FEF8093DA
:10F5000007010FC08091080180958093080180E079
:10F5100090E0E0EDF7E03197F1F70196883C910536
:10F52000C1F78091C00087FFEDCF109208011DC088
:10F530008FEF80930A010FC080910B01809580931B
:10F540000B0180E090E0E0EDF7E03197F1F70196F4
:10F55000883C9105C1F78091C00087FFEDCF1092E4
:10F560000B0103C085E292EEEEC98091C00087FFD7
:10F57000FCCF8091C600EAC988E392EEE4C98CE131
:10F5800091EEE1C988249924933011F1943028F444
:10F59000913089F09230B8F408C0953061F195301F
:10F5A000F0F0963009F048C043C02B3109F042C951
:10F5B00091E06BE13FC96227C15DDE4F2883CF52E6
:10F5C000D14092E037C9B22FA0E0622793E032C960
:10F5D000822F90E0A82BB92B622794E02BC92E3004
:10F5E00009F039C3622795E0C05DDE4F19821882A9
:10F5F000C053D1401FC9E1E0F0E0EC0FFD1FC05D3A
:10F60000DE4F08811981C053D140E00FF11F2083E4
:10F610000F5F1F4FC05DDE4F19830883C053D14079
:10F6200062270A171B0709F005C9D80196E002C92D
:10F63000261709F010C303C0973009F0FBC87724E0
:10F640009981933109F412C19431C8F4963009F4C8
:10F65000D8C0973050F4923009F406C1933009F4C1
:10F660006DC0913009F059C253C0913109F477C08F
:10F67000923108F0BBC0903109F04FC2F5C098310B
:10F6800009F487C0993150F4953109F4EFC09531F0
:10F6900008F4C6C1963109F040C2C2C19A3109F4DA
:10F6A0006CC09A3108F491C09B3109F45BC09D3164
:10F6B00009F033C29D81903359F48F81882311F46E
:10F6C0009EE11CC0813011F091E018C098E916C08D
:10F6D000892F807591F0903539F4E0E0F0E089E011
:10F6E0008093570094910AC0983539F4E3E0F0E034
:10F6F00089E080935700949101C090E01A821B82A8
:10F700008D818C831D829E831F8227E030E009C299
:10F710001A8288E08B8381E48C8386E58D8382E581
:10F720008E8389E48F8383E5888780E589878FE5E9
:10F730008A8782E38B872BE030E0F3C18A818139AD
:10F7400041F0823941F0803911F48FE005C080E04A
:10F7500003C082E001C08AE01A828B8344C0772410
:10F76000739482C08D81882311F48EE12CC0813086
:10F7700011F081E028C088E926C01A82E1E0F0E0BB
:10F7800089E08093570084918B831C8224E030E0D1
:10F79000C8C18B81803589F48C81883039F4E2E0EE
:10F7A000F0E089E08093570084910DC0E0E0F0E044
:10F7B00089E080935700849106C0E3E0F0E089E09F
:10F7C0008093570084911A82DFCF8D81836C99E0FA
:10F7D000E1E0F0E0082E90935700E89507B600FCB2
:10F7E000FDCF1A821B8223E030E09BC180EC8A832C
:10F7F000CE5CDE4F188219821A821B82C253D1401E
:10F800008EC18A8190E0A0E0B0E0582F44273327D2
:10F8100022278B8190E0A0E0B0E0DC0199278827C7
:10F82000282B392B4A2B5B2B8D8190E0A0E0B0E098
:10F83000282B392B4A2B5B2B8C8190E0A0E0B0E089
:10F84000BA2FA92F982F8827282B392B4A2B5B2BCF
:10F85000220F331F441F551FC05EDE4F288339839C
:10F860004A835B83C052D1401A8259C13A81C95C34
:10F87000DE4F3883C753D140CA5CDE4F1882C6536F
:10F88000D1408B81C82EDD24CA5CDE4F488159816E
:10F89000C653D140C42AD52A933109F082C0CE5C28
:10F8A000DE4F88819981AA81BB81C253D1408050AB
:10F8B000904CA340B04030F583E0CE5CDE4FE88052
:10F8C000F9800A811B81C253D140F70100935B008C
:10F8D00080935700E89507B600FCFDCFCE5CDE4F65
:10F8E000088119812A813B81C253D14000501F4FAA
:10F8F0002F4F3F4FCE5CDE4F088319832A833B8313
:10F90000C253D140C05EDE4F488159816A817B81FC
:10F91000C052D140DE011B9631E08C9111962C91A2
:10F9200011971296C75CDE4F2883C953D140C85C3B
:10F93000DE4F1882C853D14090E0C85CDE4FE881AA
:10F94000F981C853D1408E2B9F2B0C01FA01609393
:10F950005B0030935700E89511244E5F5F4F6F4F67
:10F960007F4F0EEFE02E0FEFF02ECE0CDF1CC114F8
:10F97000D10499F685E0C05EDE4F088119812A81A5
:10F980003B81C052D140F80120935B008093570027
:10F99000E89507B600FCFDCF81E180935700E8951C
:10F9A00035C0C05EDE4F88819981AA81BB81C0527B
:10F9B000D140B695A795979587957C018601ABE0D8
:10F9C000AA2EB12CAC0EBD1E0BC0D5016D915D01F0
:10F9D000C7010F947FFE0894E11CF11C01501040F8
:10F9E0000115110591F7A60160E070E0440F551F65
:10F9F000661F771FC05EDE4FE880F9800A811B8199
:10FA0000C052D1404E0D5F1D601F711F1A82C05E33
:10FA1000DE4F488359836A837B83C052D1407FC0C5
:10FA2000FA80C55CDE4FF882CB53D140C65CDE4F16
:10FA30001882CA53D1408B81C82EDD24C65CDE4FAC
:10FA400008811981CA53D140C02AD12A1A828981DA
:10FA5000BE016D5F7F4F843121F59601C05EDE4FA0
:10FA6000E880F9800A811B81C052D1400BBFF701A9
:10FA700087919691DB018C9311969C936E5F7F4FDB
:10FA8000D801C7010296A11DB11DC05EDE4F88835B
:10FA90009983AA83BB83C052D14022503040F1F6F3
:10FAA00036C0C05EDE4F288139814A815B81C052F9
:10FAB000D1400894C108D108760100E010E0089414
:10FAC000C11CD11C0894E11CF11C011D111DE20E8A
:10FAD000F31E041F151F21BDBB27A52F942F832FB5
:10FAE00082BD2F5F3F4F4F4F5F4FF89A80B5DB01CC
:10FAF0008D93BD012E153F054007510761F7C05E8C
:10FB0000DE4F288339834A835B83C052D1409601FC
:10FB10002D5F3F4FFB01108204C080EC8A8322E0FE
:10FB200030E08BE18093C6008091C00086FFFCCF5F
:10FB30008091C00080648093C000C15DDE4FF88179
:10FB4000CF52D140F093C6008091C00086FFFCCF19
:10FB50008091C00080648093C000432F3093C60022
:10FB60008091C00086FFFCCF8091C00080648093AC
:10FB7000C000922F2093C6008091C00086FFFCCF6A
:10FB80008091C00080648093C0008EE08093C600A6
:10FB90008091C00086FFFCCF8091C000806480937C
:10FBA000C00065E1C15DDE4FE880CF52D1406E25D7
:10FBB00069276427FE01319610C090819093C6009A
:10FBC0008091C00086FFFCCF31968091C000806498
:10FBD0008093C0006927215030402115310569F715
:10FBE0006093C6008091C00086FFFCCF8091C0006A
:10FBF00080648093C00085B1805885B9772081F4F6
:10FC0000C15DDE4F0881CF52D1400F5FC15DDE4F35
:10FC10000883CF52D14090E0A0E0B0E00D941AF4F8
:10FC200027982F9880E090E020ED37E0F901319798
:10FC3000F1F7019684369105C9F700008091C00064
:10FC40008D7F8093C00081E180935700E895EE2777
:10FC5000FF270994FFCF90E00D941AF497FB092E2B
:10FC600007260AD077FD04D02ED006D000201AF443
:10FC7000709561957F4F0895F6F7909581959F4F08
:10FC80000895A1E21A2EAA1BBB1BFD010DC0AA1FDD
:10FC9000BB1FEE1FFF1FA217B307E407F50720F0F5
:10FCA000A21BB30BE40BF50B661F771F881F991F70
:10FCB0001A9469F760957095809590959B01AC01B9
:10FCC000BD01CF010895AA1BBB1B51E107C0AA1FAC
:10FCD000BB1FA617B70710F0A61BB70B881F991FED
:10FCE0005A95A9F780959095BC01CD010895F99991
:10FCF000FECF92BD81BDF89A992780B50895262F31
:10FD0000F999FECF1FBA92BD81BD20BD0FB6F89400
:0EFD1000FA9AF99A0FBE01960895F894FFCF63
:040000033000E000E9
:00000001FF