:1000000015C1000044C1000042C1000040C1000011
:100010003EC100003CC100003AC1000038C10000F0
:1000200036C1000034C1000032C1000030C1000000
:100030002EC100002CC100002AC1000028C1000010
:1000400026C1000024C1000022C1000020C1000020
:100050001EC100001CC100001AC10000B7C400008E
:1000600016C1000088C300005DC3000010C100007D
:100070000EC100000CC100000AC1000008C1000050
:1000800006C1000004C1000002C1000000C1000060
:1000900013C30000E8C20000FAC00000E1C4000081
:1000A000F6C00000F4C00000F2C00000F0C0000084
:1000B000EEC00000ECC00000EAC00000E8C0000094
:1000C000E6C00000E4C00000E2C00000E0C00000A4
:1000D000DEC00000DCC00000DAC00000D8C00000B4
:1000E000D6C000007402770266026A027002AE0295
:1000F0007B027F02850289028D02930297029B0296
:10010000AE02A102A502A9020000210024002700DE
:100110002A002D0030003300010100000401070116
:100120000A0100002200250028002B002E003100CB
:10013000340002010000050108010B01000020004D
:100140002300260029002C002F00320000010000AF
:10015000030106010901050505050705080808084A
:10016000020202020A0A080804040404010101014F
:10017000010101010303030303030303040707074A
:100180000C0C0C0C0C0C0C0C0202020206060606EF
:10019000060606060B0B0B0B0B0B0B0B01021020BC
:1001A00020080810204010204080020102010804AD
:1001B0000201010204081020408080402010080441
:1001C000020180040201804020100804020108049A
:1001D00002010102040810204080010204081020DE
:1001E000408000000A0B02090C0D0E0807030401F1
:1001F00000000000000000000000000000000000FF
:1002000000000000000000000000000000001211CB
:1002100010000000000000000000000000000000CE
:1002200000000000000000003F18101011241FBE45
:10023000CFEFD1E2DEBFCDBF00E00CBF16E0A0E003
:10024000B2E0ECEDFDE300E00BBF02C007900D92C1
:10025000A236B107D9F729E0A2E6B6E001C01D92A7
:10026000A835B207E1F711E0C5E1D1E000E006C032
:1002700021970109802FFE010E94BE1DC431D107C4
:1002800080E00807A9F70E9449100C94DD1EB8CE43
:10029000FC01538D448D252F30E0842F90E0821B8C
:1002A000930B541710F0CF96089501970895FC0111
:1002B000918D828D981761F0828DDF01A80FB11D9D
:1002C0005D968C91928D9F5F9F73928F90E00895C1
:1002D0008FEF9FEF0895FC01918D828D981731F07B
:1002E000828DE80FF11D858D90E008958FEF9FEFCF
:1002F0000895FC01918D228D892F90E0805C9F4FA5
:10030000821B91098F739927089584E597E0F1DFA7
:1003100021E0892B09F420E0822F089581EF97E0F6
:10032000E8DF21E0892B09F420E0822F0895FC0109
:10033000848DDF01A80FB11DA35ABF4F2C91848D6E
:1003400090E001968F739927848FA689B7892C93A3
:10035000A089B1898C91837080648C93938D848DF6
:10036000981306C00288F389E02D80818F7D8083F9
:100370000895EF92FF920F931F93CF93DF93EC01B9
:1003800081E0888F9B8D8C8D981305C0E889F98951
:10039000808185FD25C0F62E0B8D10E00F5F1F4F6D
:1003A0000F731127E02E8C8DE8120BC00FB607FCDF
:1003B000FACFE889F989808185FFF5CFCE01B7DFD3
:1003C000F2CF8B8DFE01E80FF11DE35AFF4FF08253
:1003D0009FB7F8940B8FEA89FB89808180620AC0FD
:1003E0009FB7F894EE89FF896083E889F989808155
:1003F0008370806480839FBF81E090E0DF91CF9124
:100400001F910F91FF90EF900895CF93DF93EC0130
:10041000888D8823C1F0EA89FB89808185FD05C02C
:10042000A889B9898C9186FD0EC00FB607FCF5CF5F
:10043000808185FFF2CFA889B9898C9185FFEDCFA6
:10044000CE0175DFE8CFDF91CF91089580E090E095
:10045000892B19F063DF811120C080E090E0892BA7
:1004600019F053DF81111CC080E090E0892B41F02E
:1004700080E090E0892B21F00E940000811113C0E0
:1004800080E090E0892BA1F080E090E0892B81F062
:100490000E94000081110AC008950E940000DDCF73
:1004A0000E940000E1CF0E940000EACF0C940000FF
:1004B000089590E0FC013197E231F10508F04EC05B
:1004C0008827EE58FF4F8F4F0C94BE1D80918000FF
:1004D0008F7703C0809180008F7D80938000089586
:1004E00080918000877FF9CF84B58F7702C084B573
:1004F0008F7D84BD08958091B0008F7703C0809177
:10050000B0008F7D8093B0000895809190008F7728
:1005100007C0809190008F7D03C080919000877FFD
:100520008093900008958091A0008F7707C08091FC
:10053000A0008F7D03C08091A000877F8093A000E2
:100540000895809120018F7707C0809120018F7DD1
:1005500003C080912001877F8093200108953FB7D9
:10056000F8948091D2069091D306A091D406B091D0
:10057000D50626B5A89B05C02F3F19F00196A11DF1
:10058000B11D3FBFBA2FA92F982F8827820F911D29
:10059000A11DB11DBC01CD0142E0660F771F881F70
:1005A000991F4A95D1F7089585ED8093BC008091FD
:1005B000BC0084FDFCCF1092A706089540918306ED
:1005C000262F30E0240F311D21323105DCF420913B
:1005D000A7062430C9F4FC0180E090E0861758F4A7
:1005E000309183062191DC01AD59B94FA30FB11DA4
:1005F0002C930196F3CF80918306680F6093830656
:1006000080E0089581E0089582E0089508958FEFD5
:100610009FEF08958FEF9FEF08958091620690E01D
:100620009195819591090895CF93DF93CB01EA01CC
:10063000642FC4DFCE01DF91CF910895CF93DF9374
:100640001F92CDB7DEB7698361E0CE010196B6DFB8
:1006500081E090E00F90DF91CF91089580E090E0ED
:1006600008950E94A61E1F920F920FB60F9211249A
:100670000BB60F922F933F934F935F936F937F939C
:100680008F939F93AF93BF93EF93FF9384E597E08E
:100690004EDEFF91EF91BF91AF919F918F917F912E
:1006A0006F915F914F913F912F910F900BBE0F90E3
:1006B0000FBE0F901F9018951F920F920FB60F92BA
:1006C00011240BB60F922F938F939F93EF93FF9369
:1006D000E0916407F09165078081E0916A07F091ED
:1006E0006B0782FD12C0908180916D078F5F8F73C1
:1006F00020916E07821751F0E0916D07F0E0EC5AFF
:10070000F84F958F80936D0701C08081FF91EF9125
:100710009F918F912F910F900BBE0F900FBE0F9056
:100720001F9018951F920F920FB60F9211240BB6BF
:100730000F922F933F934F935F936F937F938F937A
:100740009F93AF93BF93EF93FF9381EF97E0EFDD1C
:10075000FF91EF91BF91AF919F918F917F916F9199
:100760005F914F913F912F910F900BBE0F900FBE55
:100770000F901F9018951F920F920FB60F92112491
:100780000BB60F922F938F939F93EF93FF93E0916C
:100790000108F09102088081E0910708F0910808B3
:1007A00082FD12C0908180910A088F5F8F73209123
:1007B0000B08821751F0E0910A08F0E0EF50F84F73
:1007C000958F80930A0801C08081FF91EF919F91DE
:1007D0008F912F910F900BBE0F900FBE0F901F9017
:1007E0001895CF93DF93282F30E0F901EE51FE4F9B
:1007F0008491F901E456FE4FD491F901EA5AFE4F73
:10080000C491CC2389F0811154DEEC2FF0E0EE0F7F
:10081000FF1FE45CFE4FA591B491EC91ED2381E0C4
:1008200090E021F480E002C080E090E0DF91CF9181
:1008300008951F93CF93DF93282F30E0F901EE51F5
:10084000FE4F8491F901E456FE4FD491F901EA5A22
:10085000FE4FC491CC23B9F0162F81112ADEEC2F64
:10086000F0E0EE0FFF1FEE5DFE4FA591B4919FB734
:10087000F894111104C08C91D095D82302C0EC914A
:10088000DE2BDC939FBFDF91CF911F910895CF9313
:10089000DF9390E0FC01E456FE4F2491FC01EA5AFC
:1008A000FE4F8491882361F190E0880F991FFC012D
:1008B000E85FFE4FC591D491FC01EE5DFE4FA5911E
:1008C000B491611109C09FB7F89488812095822363
:1008D0008883EC912E230BC0623061F49FB7F894AB
:1008E0008881322F309583238883EC912E2B2C9393
:1008F0009FBF06C08FB7F894E8812E2B28838FBF47
:10090000DF91CF910895863308F0865390917B0054
:10091000282F2870977F922B90937B00877080649C
:1009200080937C0080917A00806480937A0080912B
:100930007A0086FDFCCF809178002091790090E0CC
:10094000922B08958F929F92AF92BF92CF92DF9297
:10095000EF92FF926B017C0102DE4B015C01C1143E
:10096000D104E104F104E9F0FADDDC01CB018819DE
:100970009909AA09BB09883E9340A105B10578F3FE
:1009800021E0C21AD108E108F10888EE880E83E060
:10099000981EA11CB11CC114D104E104F10421F77B
:1009A000DECFFF90EF90DF90CF90BF90AF909F9001
:1009B0008F9008952FB7F8946091CE067091CF066E
:1009C0008091D0069091D1062FBF08951F920F926B
:1009D0000FB60F9211242F933F938F939F93AF9352
:1009E000BF938091CE069091CF06A091D006B09192
:1009F000D1063091CD0623E0230F2D3720F4019648
:100A0000A11DB11D05C026E8230F0296A11DB11D31
:100A10002093CD068093CE069093CF06A093D00668
:100A2000B093D1068091D2069091D306A091D406BE
:100A3000B091D5060196A11DB11D8093D206909369
:100A4000D306A093D406B093D506BF91AF919F91E2
:100A50008F913F912F910F900FBE0F901F9018957F
:100A60001F920F920FB60F9211240BB60F922F9375
:100A70003F934F935F936F937F938F939F93AF9326
:100A8000BF93EF93FF938091B900887F803609F47C
:100A90009CC068F5883209F45BC090F4803109F499
:100AA00054C038F4882309F4F2C0883009F44DC0EA
:100AB000F1C0883109F44CC0803209F45DC0EAC04D
:100AC000803409F468C048F4803309F455C0883391
:100AD00009F0E0C08093A606D4C0803509F44FC069
:100AE000883509F45DC0883409F0D4C0D2C0883993
:100AF00009F4C3C0A8F4883709F467C038F488360D
:100B000009F463C0803709F460C0C4C0883809F4B0
:100B1000B4C0803909F45FC0803809F0BBC05BC045
:100B2000803B09F484C038F4803A09F466C0883AFE
:100B300009F47DC0AFC0803C09F4A3C0883C09F42F
:100B4000A0C0883B09F486C0A5C08091CC0610C027
:100B50009091CB068091CA06981770F5E091CB066C
:100B600081E08E0F8093CB06F0E0E655F94F80814F
:100B70008093BB0085EC82C08093A6068AC0E0917A
:100B8000CB0681E08E0F8093CB068091BB00F0E016
:100B9000E655F94F80839091CB068091CA066AC0D2
:100BA000E091CB0681E08E0F8093CB068091BB0055
:100BB000F0E0E655F94F80838091A906811169C064
:100BC00081E08093A80684EA5DC083E08093A70655
:100BD0001092A506CFCF8091A506803208F04DC0B7
:100BE000E091A50681E08E0F8093A5068091BB0061
:100BF000F0E0EB57F94F8083BDCF85EC8093BC00CC
:100C00001092A7068091A506803230F4E091A506E7
:100C1000F0E0EB57F94F10826091A50670E085E88F
:100C200096E0E0E0F0E019951092A50633C084E06C
:100C30008093A7061092840610928306E0E0F0E00D
:100C4000199580918306811105C081E08093830608
:100C500010926306E091840681E08E0F80938406F3
:100C6000F0E0ED59F94F80818093BB0090918406AC
:100C700080918306981708F47DCF85E88093BC00A7
:100C800009C085EC8093BC001092A70603C01092A7
:100C9000A6068ADCFF91EF91BF91AF919F918F9152
:100CA0007F916F915F914F913F912F910F900BBE6C
:100CB0000F900FBE0F901F901895CF92DF92EF927A
:100CC000FF920F931F93CF93DF93CDB7DEB72C978F
:100CD0000FB6F894DEBF0FBECDBF8C017B016A0159
:100CE00066ED73E00E94E70FCE14DF0424F1C70124
:100CF0000E94F81B682F70E060537109CE010796BF
:100D00002ED6B801CE0101960E94DF0FBE01695FA9
:100D10007F4FCE010196A5D5BC01C80177D6CE0183
:100D200001960E94C20FCE0107960E94C20F8FEF5C
:100D3000E81AF80AD9CFC8012C960FB6F894DEBF8E
:100D40000FBECDBFDF91CF911F910F91FF90EF901C
:100D5000DF90CF900895CF92DF92EF92FF920F93A2
:100D60001F93CF93DF93CDB7DEB7A4970FB6F89458
:100D7000DEBF0FBECDBF66ED73E0CE0149960E9487
:100D8000E70F66ED73E0CE014F960E94E70F84E512
:100D900097E0AFDA181619060CF0D0C3CE01019611
:100DA0004AD6BE016F5F7F4FCE014F966BD5CE0105
:100DB00001960E94C20FBE01615E7F4FCE01019677
:100DC0000E94DF0FBE016F5F7F4F89E6F8D4CE012E
:100DD00001960E94C20F6AE070E080E090E0B2DD10
:100DE00064E372E0CE0101960E94E70FBE016F5FDF
:100DF0007F4FCE014F96F9D48C01CE0101960E940F
:100E0000C20F17FD11C06CE372E0CE0101960E9483
:100E1000E70F81E38093090261E380E090E00E94A4
:100E2000001C60E572E023C063E572E0CE0101962C
:100E30000E94E70FBE016F5F7F4FCE014F96D5D462
:100E40008C01CE0101960E94C20F17FD1CC06BE5FC
:100E500072E0CE0101960E94E70F80E380930902C1
:100E600060E380E090E00E94001C6FE672E0CE013B
:100E700007960E94E70FCE010796C4D6CE010796CB
:100E80000E94C20F58C362E772E0CE0101960E9431
:100E9000E70FBE016F5F7F4FCE014F96A6D48C0146
:100EA000CE0101960E94C20F17FD5CC062E772E09E
:100EB000CE0101960E94E70FBE016F5F7F4FCE010A
:100EC0004F9693D48C01CE0101960E94C20F9801D7
:100ED000265F3F4FA8014A5F5F4FBE01615E7F4FB3
:100EE000CE010196C9D5CE01019699D46B017C0142
:100EF000672B09F493C1BE016F5F7F4FCE01079648
:100F00000E94DF0FAE01495F5F4F6EE070E08BE043
:100F100090E01FD4CE0107960E94C20F88EE93E0A6
:100F20008C9DA0018D9D500D9C9D500D1124052E72
:100F3000000C660B770B40930402509305026093FC
:100F4000060270930702CE01079634D5BE01695F91
:100F50007F4F86E634D4CE0107960E94C20F6BE81D
:100F600072E06AC065EA72E0CE0101960E94E70F66
:100F7000BE016F5F7F4FCE014F9637D48C01CE01FB
:100F800001960E94C20F17FD64C065EA72E0CE01AF
:100F900001960E94E70FBE016F5F7F4FCE014F9613
:100FA00024D48C01CE010196EDD79801245F3F4FE8
:100FB000A801485F5F4FBE01615E7F4FCE01019681
:100FC0005BD5CE0101962BD46B017C01672B09F414
:100FD00025C1BE016F5F7F4FCE010796F0D7AE01EE
:100FE000495F5F4F62E170E08FE090E0B2D3CE01E5
:100FF0000796C8D788EE93E08C9DA0018D9D500D7B
:101000009C9D500D1124052E000C660B770B409310
:101010000002509301026093020270930302CE011A
:101020000796C8D4BE01695F7F4F83E6C8D3CE015F
:101030000796A8D76DEA72E0CE010796C8D7BE0121
:101040006F5F7F4FCE0107960CD46CE972E0F2D34C
:101050001BC164EC72E0CE010196B9D7BE016F5F8F
:101060007F4FCE014F96C1D38C01CE0101968AD716
:1010700017FD49C064EC72E0CE010196A8D7BE010D
:101080006F5F7F4FCE014F96B0D38C01CE0101969A
:1010900079D79801235F3F4FA8014D5F5F4FBE0195
:1010A000615E7F4FCE010196E7D4CE010196B7D3A2
:1010B000672B09F4B3C0BE016F5F7F4FCE01079667
:1010C0007ED7AE01495F5F4F6AE070E081E090E05B
:1010D00040D3CE01079656D7BE016F5F7F4F84EF96
:1010E00098E094D4BE016F5F7F4FCE01079667D71B
:1010F000BE01695F7F4F8EE662D3CE01079642D76D
:1011000068EC72E0B8C060EE72E0CE0101965FD785
:10111000BE016F5F7F4FCE014F9667D38C01CE012A
:10112000019630D717FD49C060EE72E0CE010196FE
:101130004ED7BE016F5F7F4FCE014F9656D38C01C5
:10114000CE0101961FD79801235F3F4FA8014D5F45
:101150005F4FBE01615E7F4FCE0101968DD4CE01FF
:1011600001965DD3672B09F459C0BE016F5F7F4FB5
:10117000CE01079624D7AE01495F5F4F6CE170E066
:1011800083E190E0E6D2CE010796FCD6BE016F5F08
:101190007F4F8EEE98E03AD4BE016F5F7F4FCE0155
:1011A00007960DD7BE01695F7F4F8FE608D3CE014A
:1011B0000796E8D664EE72E05EC06CEF72E0CE0196
:1011C000019605D7BE016F5F7F4FCE014F960DD3BD
:1011D0008C01CE010196D6D617FD60C06CEF72E08F
:1011E000CE010196F4D6BE016F5F7F4FCE014F96C0
:1011F000FCD28C01CE010196C5D69801235F3F4FEA
:10120000A8014D5F5F4FBE01615E7F4FCE01019629
:1012100033D4CE01019603D3672B31F468E772E033
:1012200088E199E087D337C0BE016F5F7F4FCE0161
:101230000796C5D6AE01495F5F4F66E270E08DE16B
:1012400090E087D2CE0107969DD6BE016F5F7F4F9B
:1012500088EE98E0DBD3BE016F5F7F4FCE0107962B
:10126000AED6BE01695F7F4F80E7A9D2CE01079657
:1012700089D660E073E0CE010796A9D6BE016F5F04
:101280007F4FCE010796EDD2BC0188E199E0BED335
:10129000CE01079677D668E872E0E9CD68E173E0A1
:1012A000CE01019694D6BE016F5F7F4FCE014F965F
:1012B0009CD28C01CE01019665D617FD7FC06BE1F3
:1012C00073E0CE01019683D66BE273E0CE01079600
:1012D0007ED6BE01695F7F4FCE014F9686D28C01CC
:1012E000CE0107964FD617FD08C064EF78E0CE0117
:1012F000439665D661E070E018C06FE273E0CE01FE
:10130000079665D6BE01695F7F4FCE014F966DD2BD
:101310008C01CE01079636D617FD2BC06EEE78E015
:10132000CE0143964CD662E070E0CE010D9617D305
:10133000BE016F5F7F4FCE01079641D6BE01635F4E
:101340007F4FCE0107968DD26CE576E073D2BE0159
:101350006D5E7F4F86D2BC01CE01019657D3CE0180
:10136000079610D6CE010D960DD6CE0143960AD61D
:101370001EC063E373E0CE01079629D6BE01695F04
:101380007F4FCE014F9631D28C01CE010796FAD510
:1013900017FD08C068EE78E0CE01439610D663E0F2
:1013A00070E0C3CF67E373E0CE010196C3D2BE0104
:1013B0006F5F7F4F88E199E029D36DCF67E573E0D8
:1013C000CE01019604D6BE016F5F7F4FCE014F96CE
:1013D0000CD28C01CE010196D5D517FD32C066ED39
:1013E00073E0CE010796F3D566ED73E0CE0101966A
:1013F000EED58AE0F6D9019741F469E673E0CE01B3
:10140000079698D260E673E007C069E873E0CE0102
:10141000079690D263E673E0CE0101968BD2BE01AF
:101420006F5F7F4FCE010D96CAD5CE010D96EAD3E0
:10143000CE010D96A7D5CE010196A4D5CE01079673
:101440007CC066E673E0CE010196C1D5BE016F5F38
:101450007F4FCE014F96C9D18C01CE01019692D516
:1014600017FD13C06DE673E0CE010196B0D563E8B9
:1014700073E0CE010796ABD5CE010796C3D3CE015C
:10148000079680D584E090E023C066E873E0CE0143
:1014900001969DD5BE016F5F7F4FCE014F96A5D1BE
:1014A0008C01CE0101966ED517FD17C06DE873E073
:1014B000CE0101968CD563EA73E0CE01079687D5FD
:1014C000CE0107969FD3CE0107965CD585E090E0CC
:1014D0009093DA068093D9062EC066EA73E0CE01B7
:1014E000019675D5BE016F5F7F4FCE014F967DD1BE
:1014F0008C01CE01019646D517FD20C06CEA73E041
:10150000CE01019664D562EC73E0CE0107965FD5FB
:10151000CE01079677D3CE01079634D51092DA061E
:101520001092D9061092D7061092D80660E08AE091
:1015300080D988E056D9CE01019624D5CE014F96A8
:1015400021D5CE0149961ED5A4960FB6F894DEBFDC
:101550000FBECDBFDF91CF911F910F91FF90EF9004
:10156000DF90CF900895CF93DF93FC0144815581A4
:101570006081718184E597E0A2D4EC0164ED73E0B1
:1015800084E597E038D58C0F9D1FDF91CF910895AA
:101590000F931F930FDA60935C0770935D0780933E
:1015A0005E0790935F0784E597E00E94570197FFDD
:1015B0001EC000DA00915C0710915D0720915E0764
:1015C00030915F07DC01CB01801B910BA20BB30BA9
:1015D000009158071091590720915A0730915B07E5
:1015E00080179107A207B307F0F28FEF9FEF1F91CB
:1015F0000F910895FC0124813581232B31F421E0E2
:1016000061157105A1F0FB0108C0FC018081918189
:101610006115710531F421E0FC018081882339F0E6
:1016200005C00E94B31E21E0892B09F020E0822F23
:101630000895EF92FF920F931F93CF93DF9361155D
:10164000710511F480E01BC041155105B9F07B0113
:10165000EC018C819D818A01080F191FB801CE0110
:1016600058D4882379F3288139818C819D81B701F1
:10167000820F931F0E94BC1E1D830C8381E0DF91AB
:10168000CF911F910F91FF90EF900895CF92DF922D
:10169000EF92FF92CF93DF93EC016A017B01E8891F
:1016A000F98982E080834115514E61057105B1F0E1
:1016B00060E079E08DE390E0A70196010E940E1CA6
:1016C000DA01C9010197A109B109B695A7959795C6
:1016D00087959C01211580E13807A8F0E889F989F0
:1016E000108260E874E88EE190E0A70196010E9404
:1016F0000E1CDA01C9010197A109B109B695A79598
:10170000979587959C01EC85FD853083EE85FF8557
:101710002083188EEC89FD8986E08083EA89FB8925
:10172000808180618083EA89FB89808188608083F1
:10173000EA89FB89808180688083EA89FB898081CE
:101740008F7D8083DF91CF91FF90EF90DF90CF90DE
:101750000895CF92DF92EF92FF920F931F93CF9352
:10176000DF938C017B016A01EC01EC16FD06F4F0BD
:10177000CE01801B910BF6012481358182179307DE
:1017800050F4208131812115310529F0F901E80F4C
:10179000F91F608101C060E0CE010E94001C64E17D
:1017A00070E080E090E0CED82196DFCFDF91CF913E
:1017B0001F910F91FF90EF90DF90CF900895CF93FE
:1017C000DF93EB01682F81EF97E00E94B9014C8114
:1017D0005D816881798181EF97E071D368ED73E075
:1017E00081EF97E0DF91CF9106C4CF93DF93FC01A7
:1017F00024813581232B71F0FB01DC01CD91DC913B
:1018000060817181CE010E94C31E009719F08C1B6C
:101810009D0B02C08FEF9FEFDF91CF910895FC01E8
:1018200080819181009711F00C94421A60E070E081
:10183000CB010895CF93DF93EC016115710559F049
:10184000FB0101900020E9F73197AF01461B570BD0
:10185000F0DE811102C0CE0183D3CE01DF91CF91A2
:101860000895CF93DF93EC01FB01448155816081A2
:101870007181DFDE811102C0CE0172D3CE01DF9112
:10188000CF9108950F931F93CF93DF938C01EB01BA
:10189000FC01808191810097B1F0688179816115A7
:1018A000710579F0428153812C813D8142175307A4
:1018B00040F00E94BC1E8C819D81F8019583848339
:1018C00013C00E94B91988819981F801918380839E
:1018D0008A819B81938382838C819D81958384837C
:1018E000198218821B821A821D821C82DF91CF917D
:1018F0001F910F910895EF92FF920F931F93CF9333
:10190000DF93EC017B018A01BA0103D3811103C08B
:10191000CE0126D307C01D830C83B701888199812E
:101920000E94BC1ECE01DF91CF911F910F91FF90BD
:10193000EF900895CF93DF93EC016115710551F09D
:10194000FB0101900020E9F73197AF01461B570BCF
:10195000D2DF01C005D3CE01DF91CF9108950F935F
:101960001F93CF93DF93CDB7DEB762970FB6F8948E
:10197000DEBF0FBECDBF8C01CB01F80111821082FA
:1019800013821282158214824AE0BE016F5F7F4F7C
:101990000E94681ABE016F5F7F4FC801CBDF62965D
:1019A0000FB6F894DEBF0FBECDBFDF91CF911F9170
:1019B0000F9108950F931F93CF93DF93CDB7DEB7A9
:1019C000A1970FB6F894DEBF0FBECDBF8C01CB013F
:1019D000BA01F801118210821382128215821482D8
:1019E0002AE0AE014F5F5F4F0E94951ABE016F5F04
:1019F0007F4FC8019FDFA1960FB6F894DEBF0FBEE0
:101A0000CDBFDF91CF911F910F910895CF93DF93B9
:101A1000EC01FB018617970751F060817181611518
:101A2000710521F04481558166DF01C099D2CE0154
:101A3000DF91CF9108950F931F93CF93DF931F9260
:101A40001F92CDB7DEB78C0166ED73E0C0D2A0DD8A
:101A500097FD0AC089831A8241E050E0BE016F5FA2
:101A60007F4FC801E6DDF3CFC8010F900F90DF91E3
:101A7000CF911F910F910895AF92BF92CF92DF92B5
:101A8000EF92FF920F931F93CF93DF936C015B0153
:101A90008A0179012417350720F4812F8901E42E6A
:101AA000F82E66ED73E0C60192D2D5011496CD9161
:101AB000DC9115970C171D07C0F4EC16FD0608F411
:101AC000E701D501ED91FC911197EC0FFD1FF0801E
:101AD00010826D917C91600F711FC6012BDFF501A3
:101AE00080819181C80FD91FF882C601DF91CF9103
:101AF0001F910F91FF90EF90DF90CF90BF90AF902C
:101B000008950F931F93CF93DF93CDB7DEB72C9734
:101B10000FB6F894DEBF0FBECDBF8C0166E176E054
:101B2000CE01079654D2B801CE0107969ADE68E23C
:101B300076E080DEBC01CE01019641D2BE016F5F2E
:101B40007F4F8AE63CDECE0101961CD2CE0107967D
:101B500019D261E089E00E94190468EE73E080E028
:101B600090E00E94A20460E089E00E94190468E805
:101B700073E180E090E00E94A20463E376E0CE018E
:101B8000079625D2B801CE0107966BDE68E276E0B3
:101B900051DEBC01CE01019612D2BE016F5F7F4FB4
:101BA0008AE60DDECE010196EDD1CE010796EAD18F
:101BB000CE01019640DFBE016F5F7F4F8CED98E054
:101BC00061DECE010196DED16CED78E0CE010196AA
:101BD000F6D1BE016F5F7F4F89E6F1DDCE01019640
:101BE000D1D16AE070E080E090E00E94A2042C96DF
:101BF0000FB6F894DEBF0FBECDBFDF91CF911F911E
:101C00000F9108950F931F93CF93DF93CDB7DEB756
:101C10006E970FB6F894DEBF0FBECDBF8C0166ED98
:101C200073E0CE014996D3D162E476E0CE014996C5
:101C300081DEBE01675E7F4FCE010196C0D1BE013D
:101C40006F5F7F4F8AE6BBDDCE0101969BD16FE4CB
:101C500076E0CE014396BBD161E576E0CE010D96EC
:101C6000B6D1BE01635F7F4FCE010196A8D1BE0100
:101C70006D5E7F4FCE010196F4DD64EF78E0F1DD1B
:101C8000BE016D5E7F4FEDDDBC01CE01079697D1A1
:101C9000CE01019677D16BE674E084E597E0ABD195
:101CA00064E670E080E090E00E94A204CE01079616
:101CB0005ADC64E670E080E090E00E94A20460E5F7
:101CC00072E0C80197DC882319F082E499E008C02B
:101CD0006FE672E0C8018EDC882369F08CE399E03E
:101CE00042DC60910902CE01019651D1BE016F5FC5
:101CF0007F4F8DE68AC069E974E0C8017BDC8823E8
:101D000031F086E399E02FDC66E379E077C063E8A1
:101D100073E0C8016FDC882331F080E399E023DCB5
:101D200060E379E06BC063EA73E0C80163DC882399
:101D300031F08AE299E017DC6AE279E05FC066EA96
:101D400074E0C80157DC882331F084E299E00BDCB1
:101D500064E279E053C06EE576E0C8014BDC88238D
:101D600031F08EE199E0FFDB6EE179E047C068E891
:101D700072E0C8013FDC882331F088E199E0F3DBB1
:101D800068E179E03BC060E673E0C80133DC88239A
:101D900031F082E199E0E7DB62E179E02FC063E6B0
:101DA00073E0C80127DC882331F08CE099E0DBDBAD
:101DB0006CE079E023C062EC73E0C8011BDC88238F
:101DC00031F086E099E0CFDB66E079E017C069E8A2
:101DD00074E0C8010FDC882331F080E099E0C3DBB8
:101DE00060E079E00BC06CE874E0C80103DC882394
:101DF00081F08AEF98E0B7DB6AEF78E0CE010196D8
:101E0000DED0BE016F5F7F4F8AE6D9DCCE0101963E
:101E1000B9D064E670E080E090E00E94A2046AE13C
:101E200084E597E00E94B90164ED73E084E597E0F2
:101E3000E2D064E670E080E090E00E94A20464EDED
:101E400073E084E597E0D7D068E873E180E090E044
:101E50000E94A204CE01079695D0CE010D9692D095
:101E6000CE0143968FD0CE0149968CD06E960FB698
:101E7000F894DEBF0FBECDBFDF91CF911F910F91C0
:101E80000895CF93DF9300D000D0CDB7DEB7209177
:101E90000902213351F4BC01CE01019690D0CE014C
:101EA0000196B0DECE0101966DD026960FB6F8945D
:101EB000DEBF0FBECDBFDF91CF9108950895CF92C1
:101EC000DF92EF92FF920F931F93CF93DF936C01FA
:101ED0007A018B01C0E0D0E0CE15DF0581F0D8019A
:101EE0006D918D01D601ED91FC910190F081E02D75
:101EF000C6011995892B11F02196EECF7E01C701FD
:101F0000DF91CF911F910F91FF90EF90DF90CF90D5
:101F100008950F931F93CF93DF93EC0188819981EC
:101F2000009729F02A813B812617370788F48B0117
:101F30006F5F7F4F0E94C61D009761F09983888371
:101F40001B830A832C813D81232B11F4FC01108219
:101F500081E001C080E0DF91CF911F910F91089542
:101F6000CF93DF93EC0188819981009711F00E9453
:101F7000B919198218821D821C821B821A82DF9174
:101F8000CF910895FC01808191810C94B919CF9370
:101F9000DF931F921F92CDB7DEB7FC011182108232
:101FA000138212821582148269831A82BE016F5FC6
:101FB0007F4FC0DC0F900F90DF91CF910895FC010F
:101FC0001182108213821282158214821FCDFC01AD
:101FD000118210821382128215821482611571059A
:101FE00049F0FB0101900020E9F73197AF01461B52
:101FF000570B81CC08956115710579F0FB010190B3
:102000000020E9F73197AF01461B570BDC01ED913A
:10201000FC910280F381E02D199480E090E0089516
:1020200086ED98E0AFDF8CED98E0ACDF82EE98E0D3
:10203000A9DF88EE98E0A6DF8EEE98E0A3DF84EFBC
:1020400098E0A0DF8AEF98E09DDF80E099E09ADFDA
:1020500086E099E097DF8CE099E094DF82E199E0F7
:1020600091DF88E199E08EDF8EE199E08BDF84E2F9
:1020700099E088DF8AE299E085DF80E399E082DFFA
:1020800086E399E07FDF8CE399E07CDF82E499E0EE
:1020900079CFCF93DF93CDB7DEB7E4970FB6F8943F
:1020A000DEBF0FBECDBF789484B5826084BD84B599
:1020B000816084BD85B5826085BD85B5816085BD43
:1020C00080916E00816080936E00109281008091FB
:1020D0008100826080938100809181008160809383
:1020E0008100809180008160809380008091B100A8
:1020F00084608093B1008091B00081608093B000D3
:102100008091910082608093910080919100816024
:1021100080939100809190008160809390008091E5
:10212000A10082608093A1008091A10081608093D2
:10213000A1008091A00081608093A0008091210186
:10214000826080932101809121018160809321012F
:102150008091200181608093200180917A008460C9
:1021600080937A0080917A00826080937A008091D7
:102170007A00816080937A0080917A0080688093F1
:102180007A001092C1001092D2081092D3081092D7
:10219000D4081092D50810929008109291081092CD
:1021A0009208109293080E94DA046B017C014B01A3
:1021B0005C0128EB820E2BE0921EA11CB11C0E9438
:1021C000DA046C157D058E059F0528F086169706A6
:1021D000A806B906A0F781EF97E09093D108809305
:1021E000D00840E855E260E070E050DA0E94DA047E
:1021F000609390087093910880939208909393084D
:1022000065EC73E08091D0089091D108F4DE0E94D3
:10221000DA046B017C014B015C013AE0830E911CF6
:10222000A11CB11C0E94DA046C157D058E059F056A
:1022300028F086169706A806B906A0F781E08093D5
:10224000A40860E083E00E94470461E08AE00E9405
:10225000470460E08AE00E94190462E08BE00E947B
:10226000470488E00E94F10382E090E09093F50635
:102270008093F4068FE892E4AAE6B3E48093F8062C
:102280009093F906A093FA06B093FB068AE999E9C0
:10229000A9EDBFE38093000790930107A093020785
:1022A000B093030780E090E0A0E0B4E480931407CB
:1022B00090931507A0931607B093170740E855E2CF
:1022C00060E070E081EF97E0E1D940E05BE460E03E
:1022D00070E084E597E0DAD90E94DA046B017C01B2
:1022E00081EF97E00E9479018C010E94DA04DC0101
:1022F000CB018C199D09AE09BF0981319742A10517
:10230000B10578F41016110664F067ED73E081EF03
:1023100097E071DE6CE271E080E090E00E94A20440
:10232000DFCF66ED78E0CE01019649DEBE016F5F3A
:102330007F4F8BE644DACE01019624DE62EE78E030
:10234000CE0101963CDECE010196DBDBCE0101968B
:1023500019DE6AED73E0CE01019639DEBE016F5FD2
:102360007F4F8CED98E041DA8C01CE0101960ADEB8
:1023700017FD1DC06FED73E0CE01019628DEBE0192
:102380006F5F7F4F8AE61BDACE010196FBDD64E0CA
:1023900074E082EE98E0CEDA62EE78E0CE0101964B
:1023A0000EDECE010196ADDBCE010196EBDD6DE0D8
:1023B00074E0CE0101960BDEBE016F5F7F4F8AE6AF
:1023C000FED9CE010196DEDD60E27EE480E090E0A1
:1023D0000E94A20463E274E0CE010196F8DDBE0122
:1023E0006F5F7F4F8AE6EBD9CE010196CBDD67E3C5
:1023F00074E086ED98E09EDA66ED78E0CE01019615
:10240000DEDDBE016F5F7F4F8BE6D9D9CE0101962D
:10241000B9DD6DE474E0CE010196D9DDBE016F5FD8
:102420007F4F8AE6CCD9CE010196ACDD6BE674E035
:1024300084E597E0E0DD64E670E080E090E00E94F3
:10244000A20466E774E084E597E0D5DD64E670E019
:1024500080E090E00E94A204CE010196ECDABE0179
:102460006F5F7F4F8CED98E00DDACE0101968ADD2B
:102470006CED78E0CE010196A2DDBE016F5F7F4F6B
:1024800089E69DD9CE0101967DDD6AE070E080E0AD
:1024900090E00E94A20480E090E00E94F81B8093EC
:1024A000090266ED73E084EF98E044DA4AE050E018
:1024B00061E070E0CE0101960E945D06BE016F5F93
:1024C0007F4F84EF98E0DED9CE0101965BDD4EE0D0
:1024D00050E06BE070E0CE0101960E945D06CE01F7
:1024E00001969DD99B01AC01A8EEB3E00E94301C7F
:1024F0006093040270930502809306029093070292
:10250000CE0101963FDD42E150E06FE070E0CE0188
:1025100001960E945D06CE01019681D99B01AC0116
:10252000A8EEB3E00E94301C609300027093010299
:102530008093020290930302CE01019623DD409125
:102540000002509101026091020270910302CE01DB
:10255000019630DABE016F5F7F4F83E630D9CE013E
:10256000019610DD4CE150E063E170E0CE01019690
:102570000E945D06BE016F5F7F4F8EEE98E082D9AC
:10258000CE010196FFDC46E250E06DE170E0CE0145
:1025900001960E945D06BE016F5F7F4F88EE98E056
:1025A00071D9CE010196EEDC60910902CE0101964F
:1025B000EEDCBE016F5F7F4F8DE601D9CE01019643
:1025C000E1DC64EF78E0CE010196F9DCBE016F5FDB
:1025D0007F4F8EE6F4D8CE010196D4DC6EEE78E023
:1025E000CE010196ECDCBE016F5F7F4F8FE6E7D82E
:1025F000CE010196C7DC68EE78E0CE010196DFDC03
:10260000BE016F5F7F4F80E7DAD8CE010196BADC5A
:102610005EE550937C0080917B00877F80937B00F8
:1026200062E070E080E090E00E94A20480917A0075
:10263000806480937A0080917A0086FDFCCF80913F
:1026400078002091790030E0322F2227A901330F42
:10265000660B770B9A01AB01282B60E070E381E1F8
:1026600090E00E94A21D29AB3AAB4BAB5CAB0E9441
:10267000DA044B015C018091F4060E94830490937C
:10268000390780933807BC01990F880B990B9DD7A8
:102690006B017C012DEC3CEC4CE054E490D787FFBF
:1026A00015C026E636E646EE53E4C701B6010E94A1
:1026B000471D18165CF40E94DA046DA77EA78FA749
:1026C00098AB212C312C00E010E042C10E94DA04CA
:1026D000DC01CB0188199909AA09BB09813D974002
:1026E000A105B10540F2E7CF5FEF251A350A8091C9
:1026F0000C0790910D07A0910E07B0910F078093E2
:10270000080790930907A0930A07B0930B078091DD
:10271000F4060E9483049093050780930407809138
:10272000F6060E9483043C019093070780930607F6
:1027300080910407909105079AA789A7BC01990F7A
:10274000880B990B42D76B017C0180901407909005
:102750001507A0901607B0901707A50194010E94D5
:10276000491C20E030E040E85AE38ED7A5019401EF
:102770000E944A1C9B01AC016093140770931507DB
:102780008093160790931707C701B6010E94491C52
:102790004B015C0160930C0770930D0780930E074B
:1027A00090930F07B301770C880B990B0ED76B0131
:1027B0007C01409018075090190760901A0770909C
:1027C0001B07A30192010E94491C20E030E040E871
:1027D0005AE35AD7A30192010E944A1C9B01AC0103
:1027E000609318077093190780931A0790931B073B
:1027F000C701B6010E94491C6B017C016093100760
:10280000709311078093120790931307A501940109
:10281000C501B40139D79B01AC01609320077093C7
:1028200021078093220790932307609124077091DA
:10283000250780912607909127070E944A1C6093E4
:102840002407709325078093260790932707A701F5
:102850009601C701B60118D79B01AC016093280708
:102860007093290780932A0790932B0760912C0778
:1028700070912D0780912E0790912F070E944A1C7E
:1028800060932C0770932D0780932E0790932F074A
:10289000409008075090090760900A0770900B0756
:1028A000A3019201C501B401F4D720910007309132
:1028B00001074091020750910307E6D6A301920158
:1028C000E9D79B01AC0160931C0770931D078093AF
:1028D0001E0790931F07C701B601D6D69B01AC0116
:1028E00060933007709331078093320790933307DA
:1028F00060913407709135078091360790913707C2
:10290000C9D7609334077093350780933607909347
:10291000370780913B0780933A0780913807909161
:102920003907A9A5BAA58A179B072CF541E0409362
:102930003B0780913B0751E02516310411F4809349
:102940003A0790913A07981319C004311105C8F459
:102950000E94DA04DC01CB012DA53EA54FA558A9A4
:10296000821B930BA40BB50B803D9740A105B105CD
:1029700008F4BACE06C010923B07DBCF0F5F1F4FA3
:10298000E4CF29A93AA9B901330F880B990B1DD6B9
:1029900020E030E04AE754E4E1D720E030E040E8CE
:1029A0005AE372D64B015C012091F8063091F9068A
:1029B0004091FA065091FB0667D669A77AA78BA7C4
:1029C0009CA7B10180E090E0FED52B013C019B016A
:1029D000AC016091240770912507809126079091A2
:1029E0002707BCD70E944F1D9B01AC0169A57AA5A2
:1029F0008BA59CA549D66B017C016093EC06709376
:102A0000ED068093EE069093EF062091FC06309140
:102A1000FD064091FE065091FF06C501B40134D673
:102A20006DA77EA78FA798ABA301920160912C0799
:102A300070912D0780912E0790912F078FD70E94BC
:102A40004F1D9B01AC016DA57EA58FA598A91CD635
:102A50004B015C016093F0067093F1068093F206DF
:102A60009093F3062DA53EA54FA558A969A57AA573
:102A70008BA59CA509D6209134073091350740914C
:102A800036075091370700D6A301920167D72B0173
:102A90003C016093E0067093E1068093E206909318
:102AA000E306A5019401C701B601EED59B01AC0177
:102AB0006093E4067093E5068093E6069093E7063C
:102AC000C301B2014BD76093E8067093E906809387
:102AD000EA069093EB0610922407109225071092B5
:102AE00026071092270710922C0710922D0710929C
:102AF0002E0710922F07109234071092350710926C
:102B000036071092370720E030E040E450E4C70178
:102B1000B601BFD66B017C0120E030E0A9014FD5A2
:102B200087FF03C0C12CD12C7601C701B6017ED727
:102B30006093DC067093DD068093DE069093DF06DB
:102B40001CA21BA21EA21DA218A61FA22AE0AE0153
:102B50004F5F5F4FC7D4BE016F5F7F4FCE0183963B
:102B60000E949A0CBE016D5D7F4F81E70E94DF0BD2
:102B7000CE01839607DA4091DC065091DD06609124
:102B8000DE067091DF068091DB0645305105610558
:102B9000710544F4811115C081E08093DB0669E87A
:102BA00074E006C0882369F01092DB066CE874E0DC
:102BB000CE0101960CDACE01019663D9CE010196C1
:102BC000E1D98091DB06882319F061E572E002C04B
:102BD00064EA73E0CE010196FAD9BE016F5F7F4FC0
:102BE00082E70E94DF0BCE010196CCD90E94AB0692
:102BF00088E00E94F1037C0181E0E114F10409F412
:102C000080E08093D8068091D706882309F444C0D9
:102C1000E114F10449F0109248071092490710920C
:102C20004A0710924B076AC0809048079090490766
:102C3000A0904A07B0904B0781149104A104B104FD
:102C400059F40E94DA04609348077093490780930F
:102C50004A0790934B0752C00E94DA04DC01CB0173
:102C600088199909AA09BB098093440790934507DD
:102C7000A0934607B0934707C0900002D09001028E
:102C8000E0900202F0900302C816D906EA06FB069D
:102C9000D0F51092D70637C0E114F10409F4BBCF88
:102CA0008090480790904907A0904A07B0904B0742
:102CB00081149104A104B10421F20E94DA04DC0120
:102CC000CB0188199909AA09BB09809344079093FD
:102CD0004507A0934607B0934707C0900002D090E5
:102CE0000102E0900202F0900302C816D906EA063B
:102CF000FB0630F491E09093D70602C0EF2819F05C
:102D00006FE874E002C064E974E0CE0101965FD917
:102D1000BE016F5F7F4F82E60E94DF0BCE010196FE
:102D200031D94091000250910102609102027091EC
:102D30000302CE0101960E94DA0CBE016F5F7F4F45
:102D400083E60E94DF0BCE0101961CD94091440717
:102D5000509145076091460770914707CE01019653
:102D60000E94DA0CBE016F5F7F4F8CE60E94DF0B82
:102D7000CE01019607D98091D706882309F44AC06D
:102D80006FE874E0CE01019622D9BE016F5F7F4FDC
:102D900088E60E94DF0BCE010196F4D80E94DA0487
:102DA000C0904007D0904107E0904207F090430761
:102DB000DC01CB018C199D09AE09BF09C0903C070D
:102DC000D0903D07E0903E07F0903F07C816D90627
:102DD000EA06FB0668F50E94DA04609340077093E8
:102DE0004107809342079093430720E437E74BE184
:102DF00050E020933C0730933D0740933E075093AB
:102E00003F0769E974E0CE010196E1D8CE01019651
:102E100038D80BC064E974E0CE010196D8D8BE0161
:102E20006F5F7F4F88E60E94DF0BCE010196AAD824
:102E30008BE00E94F103019731F431E030930802F6
:102E40006CE974E004C01092080262EA74E0CE01FA
:102E50000196BDD8BE016F5F7F4F87E60E94DF0BF2
:102E6000CE0101968FD88091D9069091DA068230F2
:102E7000910551F184F40097C1F0019709F09AC0CF
:102E800060E08AE00E94190482E090E09093DA0604
:102E90008093D9068FC08430910509F487C054F11E
:102EA000059709F087C060E082C041E050E0509390
:102EB000DA064093D90610925007109251071092EB
:102EC00052071092530776C080910802882309F4B4
:102ED00071C0A3E0B0E0B093DA06A093D9060E94D7
:102EE000DA0460934C0770934D0780934E079093DC
:102EF0004F0760C080910802811117C010924C07E3
:102F000010924D0710924E0710924F0710925007E3
:102F100010925107109252071092530722E030E0AE
:102F20003093DA062093D90645C00E94DA04C09097
:102F30004C07D0904D07E0904E07F0904F07DC0112
:102F4000CB018C199D09AE09BF098093500790935E
:102F50005107A0935207B0935307C0900402D0903A
:102F60000502E0900602F0900702C816D906EA06AC
:102F7000FB0600F510924C0710924D0710924E0779
:102F800010924F0744E050E05093DA064093D90680
:102F900066EA74E0CE0101961AD8CE0101960E942D
:102FA000410FCE0101960E94C20F04C061E08AE089
:102FB0000E9419048AE00E94F103BC01CE0101962F
:102FC0000E94AF0CBE016F5F7F4F81E60E94DF0B56
:102FD000CE0101960E94C20F6091D9067091DA0667
:102FE000CE0101960E94AF0CBE016F5F7F4F84E659
:102FF0000E94DF0BCE0101960E94C20F4091500744
:10300000509151076091520770915307CE0101967C
:103010000E94DA0CBE016F5F7F4F85E60E94DF0BD6
:10302000CE0101960E94C20F409104025091050208
:103030006091060270910702CE0101960E94DA0C9F
:10304000BE016F5F7F4F86E60E94DF0BCE010196C7
:103050000E94C20F83E00E94F103BC01CE010196E1
:103060000E94AF0CBE016F5F7F4F83E70E94DF0BB2
:10307000CE0101960E94C20F0E942602C9CAE4E551
:10308000F7E01382128288EE93E0A0E0B0E0848340
:103090009583A683B78324E132E0318320834DEC0E
:1030A00050E0558744874CEC50E05787468748EC02
:1030B00050E0518B408B49EC50E0538B428B4AECF3
:1030C00050E0558B448B4EEC50E0578B468B118E65
:1030D000128E138E148EE1EFF7E013821282848336
:1030E0009583A683B7833183208325EC30E0358731
:1030F000248724EC30E03787268720EC30E0318BC2
:10310000208B21EC30E0338B228B22EC30E0358BAE
:10311000248B26EC30E0378B268B118E128E138E8B
:10312000148EEEE8F8E01682178210861186128659
:1031300013861486158616861786108A118A128AB7
:10314000138A148A158AE8E4F9E0138212828483D0
:103150009583A683B78386E292E09183808369EAB0
:1031600074E082E499E00E94E70F6BEB74E08CE37B
:1031700099E00E94E70F6DEC74E086E399E00E940D
:10318000E70F6BEF74E080E399E00E94E70F6EE0D9
:1031900075E08AE299E00E94E70F61E275E084E25F
:1031A00099E00E94E70F62E675E08EE199E00E94E7
:1031B000E70F66ED73E088E199E00E94E70F6FE7A3
:1031C00075E082E199E00E94E70F62E975E08CE02A
:1031D00099E00E94E70F65EA75E086E099E00E94B9
:1031E000E70F60EC75E080E099E00E94E70F64EE85
:1031F00075E08AEF98E00E94E70F66ED73E084EFD8
:1032000098E00E94E70F66ED73E08EEE98E00E9472
:10321000E70F66ED73E088EE98E00E94E70F66ED39
:1032200073E082EE98E00E94E70F66ED73E08CEDAC
:1032300098E00E94E70F67E076E086ED98E00C9456
:10324000E70F0F931F93CF93DF938230910510F414
:1032500082E090E0E0915609F091570920E030E0DB
:10326000A0E0B0E0309719F14081518102811381D3
:1032700048175907C8F08417950769F4109731F07B
:1032800012960C93129713961C9327C0009356091D
:103290001093570922C02115310519F04217530721
:1032A00018F49A01BD01EF01DF01F801DBCF211510
:1032B0003105F9F0281B390B2430310580F48A815F
:1032C0009B816115710521F0FB019383828304C00A
:1032D0009093570980935609FE01329644C0FE012F
:1032E000E20FF31F81939193225031093983288390
:1032F0003AC02091540930915509232B41F4209173
:103300000C0230910D0230935509209354092091FD
:103310000A0230910B022115310541F42DB73EB759
:1033200040910E0250910F02241B350BE09154097D
:10333000F0915509E217F307A0F42E1B3F0B281755
:10334000390778F0AC014E5F5F4F2417350748F01E
:103350004E0F5F1F509355094093540981939193E9
:1033600002C0E0E0F0E0CF01DF91CF911F910F911B
:103370000895CF93DF93009709F481C0FC01329741
:1033800013821282A0915609B0915709109781F4C7
:1033900020813181820F931F20915409309155096A
:1033A0002817390751F5F0935509E093540967C080
:1033B000ED0120E030E0CE17DF0740F44A815B8169
:1033C0009E0141155105F1F0EA01F5CFD383C28387
:1033D00040815181840F951FC817D90759F48881FE
:1033E0009981840F951F0296918380838A819B81A6
:1033F000938382832115310529F4F0935709E093D3
:1034000056093DC0E901FB83EA8349915991C40FF4
:10341000D51FEC17FD0761F480819181840F951F02
:103420000296E90199838883828193819B838A83B1
:10343000E0E0F0E012968D919C911397009719F0BF
:10344000FD01DC01F7CF8D919C9111979D012E5FBD
:103450003F4F820F931F209154093091550928172F
:10346000390769F4309729F41092570910925609D8
:1034700002C013821282B0935509A0935409DF91C0
:10348000CF9108951F93FC0199278827BC01E894E8
:1034900011911032E9F3193010F01E30C8F31B32CD
:1034A00049F01D3241F4689405C02AD0610F711DA6
:1034B000811D911D119110531A30B8F33EF490956F
:1034C0008095709561957F4F8F4F9F4F1F91089505
:1034D000BB274A3031F4992322F4BDE290958195BF
:1034E0009F4F45C0BB272A3051F4992342F4BDE2D7
:1034F00090958095709561957F4F8F4F9F4F16C027
:10350000592F482F372F262F660F771F881F991F97
:10351000660F771F881F991F620F731F841F951FE7
:10352000660F771F881F991F0895BB27FA01A62FE2
:103530006217710581059105330B30FB66F0AA27F0
:10354000660F771F881F991FAA1FA21710F0A21BD2
:1035500063953850A9F7A05DAA3308F0A95DA1933F
:1035600036F7B111B1931082CA0119C0BB27FB0114
:103570005527AA27880F991FAA1FA41710F0A41B6C
:1035800083955051B9F7A05DAA3308F0A95DA193C6
:10359000009779F7B111B1931192CB0100C0DC0112
:1035A000FC01672F71917723E1F7329704C07C917A
:1035B0006D9370836291AE17BF07C8F3089540D032
:1035C00008F481E00895E89409C097FB3EF49095D3
:1035D0008095709561957F4F8F4F9F4F9923A9F0EC
:1035E000F92F96E9BB279395F6958795779567957B
:1035F000B795F111F8CFFAF4BB0F11F460FF1BC0BF
:103600006F5F7F4F8F4F9F4F16C0882311F096E951
:1036100011C0772321F09EE8872F762F05C06623FF
:1036200071F096E8862F70E060E02AF09A95660FB8
:10363000771F881FDAF7880F9695879597F9089571
:10364000990F0008550FAA0BE0E8FEEF16161706B3
:10365000E807F907C0F012161306E407F50798F01B
:10366000621B730B840B950B39F40A2661F0232B34
:10367000242B252B21F408950A2609F4A140A695B0
:103680008FEF811D811D08950BD078C069D028F07F
:103690006ED018F0952309F05AC05FC01124A2C063
:1036A0007ED0A0F3959FD1F3950F50E0551F629FF8
:1036B000F001729FBB27F00DB11D639FAA27F00D8B
:1036C000B11DAA1F649F6627B00DA11D661F829FB2
:1036D0002227B00DA11D621F739FB00DA11D621F97
:1036E000839FA00D611D221F749F3327A00D611DB4
:1036F000231F849F600D211D822F762F6A2F112496
:103700009F5750408AF0E1F088234AF0EE0FFF1FE8
:10371000BB1F661F771F881F91505040A9F79E3F1F
:10372000510570F014C05EC05F3FECF3983EDCF3CF
:10373000869577956795B795F795E7959F5FC1F75C
:10374000FE2B880F911D9695879597F9089597F907
:103750009F6780E870E060E008959FEF80EC089537
:1037600000240A9416161706180609060895002460
:103770000A9412161306140605060895092E0394DA
:10378000000C11F4882352F0BB0F40F4BF2B11F44E
:1037900060FF04C06F5F7F4F8F4F9F4F089557FDAD
:1037A0009058440F551F59F05F3F71F04795880FAF
:1037B00097FB991F61F09F3F79F087950895121646
:1037C00013061406551FF2CF4695F1DF08C01616F2
:1037D00017061806991FF1CF8695710561050894A3
:1037E0000895E894BB2766277727CB0197F90895BA
:1037F000F999FECF92BD81BDF89A992780B50895B9
:10380000262FF999FECF1FBA92BD81BD20BD0FB6FC
:10381000F894FA9AF99A0FBE01960895A1E21A2E29
:10382000AA1BBB1BFD010DC0AA1FBB1FEE1FFF1F64
:10383000A217B307E407F50720F0A21BB30BE40BB4
:10384000F50B661F771F881F991F1A9469F76095FB
:103850007095809590959B01AC01BD01CF010895B5
:1038600009D0A59F900DB49F900DA49F800D911D30
:1038700011240895A29FB001B39FC001A39F700DB2
:10388000811D1124911DB29F700D811D1124911D68
:1038900008955058BB27AA270ED070CF61DF30F0B3
:1038A00066DF20F031F49F3F11F41EF456CF0EF482
:1038B000E095E7FB4CCFE92F72DF80F3BA17620780
:1038C00073078407950718F071F49EF58ACF0EF4FC
:1038D000E0950B2EBA2FA02D0B01B90190010C0120
:1038E000CA01A0011124FF27591B99F0593F50F438
:1038F000503E68F11A16F040A22F232F342F442790
:10390000585FF3CF469537952795A795F040539587
:10391000C9F77EF41F16BA0B620B730B840BBAF057
:103920009150A1F0FF0FBB1F661F771F881FC2F7C2
:103930000EC0BA0F621F731F841F48F487957795D6
:103940006795B795F7959E3F08F0B3CF9395880F8D
:1039500008F09927EE0F9795879508950CD00ECF14
:1039600006DF40F0FDDE30F021F45F3F19F0EFCECE
:10397000511138CFF2CE13DF98F39923C9F35523B1
:10398000B1F3951B550BBB27AA2762177307840752
:1039900038F09F5F5F4F220F331F441FAA1FA9F308
:1039A00033D00E2E3AF0E0E830D091505040E695FA
:1039B000001CCAF729D0FE2F27D0660F771F881F5B
:1039C000BB1F261737074807AB07B0E809F0BB0B4A
:1039D000802DBF01FF2793585F4F2AF09E3F51056E
:1039E00068F0B5CEFFCE5F3FECF3983EDCF38695F2
:1039F00077956795B795F7959F5FC9F7880F911DE4
:103A00009695879597F90895E1E0660F771F881FCF
:103A1000BB1F621773078407BA0720F0621B730B82
:103A2000840BBA0BEE1F88F7E095089504D06894D4
:103A3000B111D8CE0895BBDE88F09F5790F0B92F12
:103A40009927B751A0F0D1F0660F771F881F991FF3
:103A50001AF0BA95C9F712C0B13081F0C2DEB1E0F8
:103A60000895BFCE672F782F8827B85F39F0B93F08
:103A7000CCF3869577956795B395D9F73EF49095F5
:103A80008095709561957F4F8F4F9F4F0895D8DD3A
:103A900008F48FEF089511F40EF45FCE3EC087DE78
:103AA000D0F39923D9F3CEF39F57550B87FF43D01B
:103AB0000024A0E640EA900180585695979528F496
:103AC000805C660F771F881F20F02617370748078E
:103AD00030F4621B730B840B202931294A2BA695E5
:103AE00017940794202531254A2758F7660F771F2A
:103AF000881F20F026173707480730F4620B730B36
:103B0000840B200D311D411DA09581F7B901842F33
:103B10009158880F9695879508959F3F31F0915061
:103B200020F4879577956795B795880F911D9695A1
:103B3000879597F9089591505040660F771F881F19
:103B4000D2F70895052E97FB16F400940FD057FD79
:103B500005D064DE07FC02D046F408C050954095BD
:103B6000309521953F4F4F4F5F4F08959095809529
:103B7000709561957F4F8F4F9F4F0895EE0FFF1FF8
:103B8000881F8BBF0790F691E02D19946F927F925A
:103B90008F929F92AF92BF92CF92DF92EF92FF925D
:103BA0000F931F93CF93DF93009781F4CB01DF91A5
:103BB000CF911F910F91FF90EF90DF90CF90BF902A
:103BC000AF909F908F907F906F903BCBFC01E60F62
:103BD000F71F9C0122503109E217F30708F4A5C032
:103BE000EC01D9010D911C91119706171707A8F048
:103BF0000530110508F497C0C80104978617970788
:103C000008F491C002501109061B170B0193119380
:103C10006D937C93CF01ADDB86C05B01A01AB10A26
:103C20004C01800E911EA0915609B0915709612C4C
:103C3000712CE12CF12C109709F446C08D919C91C8
:103C40001197A815B905B1F56C0142E0C40ED11C5D
:103C5000CA14DB0478F14C018A189B08640142E025
:103C6000C40ED11C1296BC9012971396AC91B5E07D
:103C7000CB16D10440F0B282A38391828082D90115
:103C80006D937C9309C00E5F1F4F800F911FF90148
:103C900091838083EB2DFA2FE114F10431F0D701E9
:103CA0001396FC93EE9312973EC0F0935709E0935E
:103CB000560939C06816790608F43C017D01129650
:103CC0000D90BC91A02DB7CF8091540990915509CA
:103CD00088169906E1F466167706C8F480910A0200
:103CE00090910B02009741F48DB79EB740910E0260
:103CF00050910F02841B950BE817F907B0F4F0936D
:103D00005509E0935409F901718360830CC0CB011C
:103D100098DA7C01009749F0A801BE011BD0CE01C2
:103D200028DBC70104C0CE0102C080E090E0DF9133
:103D3000CF911F910F91FF90EF90DF90CF90BF90A8
:103D4000AF909F908F907F906F90089581E090E06A
:103D5000F89433C0FB01DC0102C001900D92415088
:103D60005040D8F70895FB01DC018D910190801936
:103D70000110D9F3990B0895FB01DC0101900D921C
:103D80000020E1F70895FB0151915523A9F0BF01EF
:103D9000DC014D9145174111E1F759F4CD01019036
:103DA000002049F04D9140154111C9F3FB0141112B
:103DB000EFCF81E090E00197089511E0C5E1D1E0F7
:103DC00000E005C0802FFE01D9DE2196011DC6311D
:0C3DD000D10780E00807B1F7F894FFCF9E
:103DDC001027000080FC0A00013100005809800007
:103DEC0000000000B9015F0F48010502790157017D
:103DFC006B01000000001E0314032E0306030D03C9
:103E0C000A030703536D732061616E00534D5320F9
:103E1C00776F7264742041414E2067657A65740037
:103E2C00303100536D732075697400534D532077F6
:103E3C006F726474205549542067657A657400303C
:103E4C00320044726F6F6700466F757469657665F2
:103E5C0020696E766F65720031330064726F6F6724
:103E6C0074696A64206973206E7520007365636FD2
:103E7C006E64656E00566C6F74746572006C616173
:103E8C006777617465722064656C61792069732051
:103E9C006E75200054313D0074656C65666F6F6EF5
:103EAC006E756D6D65722031206973206E75200002
:103EBC0054323D0074656C65666F6F6E6E756D6D1A
:103ECC0065722032206973206E75200054333D00DA
:103EDC0074656C65666F6F6E6E756D6D6572203393
:103EEC00206973206E7520003F740054656C656604
:103EFC006F6F6E6E756D6D657220003F7431003F93
:103F0C007432003F743300666F757420696E2061E3
:103F1C00616E76726161672074656C65666F6F6E39
:103F2C006E756D6D657200537461747573703200CB
:103F3C0031340031350050322061616E00506F6DAC
:103F4C00703220776F7264742041414E2067657A1D
:103F5C0065740030390050322075697400506F6DF3
:103F6C00703220776F726474205549542067657ADB
:103F7C00657400313000526573657400417264756C
:103F8C00696E6F20776F72647420676572657365F4
:103F9C007400313600564D4450565F317C315F56BB
:103FAC004D4450560D0A00412300444F574E006DAE
:103FBC006F64656D2069732075697467657A6574C3
:103FCC002E204F706E69657577206F7073746172F7
:103FDC0074656E006F706E6965757720004750527E
:103FEC0053206D6F64656D206C6F6774206F6E2E3F
:103FFC002E2E0047505253206D6F64656D207265F4
:10400C006164792E2E2E00766572626F6E64656E19
:10401C00206D6574206E65747765726B006D6F64CE
:10402C00656D20776F72647420696E20534D532038
:10403C006D6F64652067657A65740041542B434D40
:10404C0047463D310D0041542B434E4D493D322CDA
:10405C00322C302C302C300D003137003138004CE4
:10406C0041414700484F4F470030380044524F4FB2
:10407C0047004E415400313100534D53206B6F6457
:10408C00652061616E67657A657400534D53206BD2
:10409C006F64652075697467657A65740044652082
:1040AC0062616B2076616E206465206F6E74776F31
:1040BC007274656C646520626F6F6D206973206C1F
:1040CC006565672E2048454C502100506F6D70324D
:1040DC002069732041414E2067657A657400506FEA
:1040EC006D7032206973205549542067657A657468
:1040FC000057617465722073656E736F7220647201
:10410C006F6F673B20506F6D7020322076616E2090
:10411C006F6E74776F7274656C646520626F6F6D0F
:10412C0020697320696E6765736368616B656C6485
:10413C0021005465737462657269636874204F6EF4
:10414C0074776F7274656C646520626F6F6D005369
:10415C00746174757320706F6D7032203D20414115
:10416C004E0053746174757320706F6D7032203D06
:10417C00205549540041726475696E6F20424F4F4F
:10418C004D20776F72647420676572657365740077
:10419C004E65747370616E6E696E672077656767C4
:1041AC006576616C6C656E2062696A20646520625C
:1041BC006F6F6D004E65747370616E6E696E672003
:1041CC00776565722074657275672062696A206410
:1041DC006520626F6F6D006E696574207665726222
:1041EC006F6E64656E0047505253206D6F64656D41
:1041FC0020776F7264742000676573746172742E1B
:10420C002E2E0047505253206D6F64656D206973DC
:10421C00200041726475696E6F2062656C740022B7
:10422C00004154202B20434D4753203D2000313278
:02423C00000080
:020000023000CC
:10E000000D9489F10D94B2F10D94B2F10D94B2F129
:10E010000D94B2F10D94B2F10D94B2F10D94B2F1F0
:10E020000D94B2F10D94B2F10D94B2F10D94B2F1E0
:10E030000D94B2F10D94B2F10D94B2F10D94B2F1D0
:10E040000D94B2F10D94B2F10D94B2F10D94B2F1C0
:10E050000D94B2F10D94B2F10D94B2F10D94B2F1B0
:10E060000D94B2F10D94B2F10D94B2F10D94B2F1A0
:10E070000D94B2F10D94B2F10D94B2F10D94B2F190
:10E080000D94B2F10D94B2F10D94B2F10D94B2F180
:10E090000D94B2F10D94B2F10D94B2F10D94B2F170
:10E0A0000D94B2F10D94B2F10D94B2F10D94B2F160
:10E0B0000D94B2F10D94B2F10D94B2F10D94B2F150
:10E0C0000D94B2F10D94B2F10D94B2F10D94B2F140
:10E0D0000D94B2F10D94B2F10D94B2F10D94B2F130
:10E0E0000D94B2F141546D656761323536300041AF
:10E0F000726475696E6F206578706C6F72657220DE
:10E1000073746B3530305632206279204D4C530099
:10E11000426F6F746C6F616465723E004875683F52
:10E1200000436F6D70696C6564206F6E203D200048
:10E130004350552054797065202020203D20005FF9
:10E140005F4156525F415243485F5F3D2000415658
:10E1500052204C696243205665723D20004743437C
:10E160002056657273696F6E203D20004350552024
:10E1700049442020202020203D20004C6F7720663D
:10E18000757365202020203D20004869676820665F
:10E190007573652020203D200045787420667573D6
:10E1A00065202020203D20004C6F636B2066757336
:10E1B000652020203D20004D617220203720323024
:10E1C000313300312E362E3800342E332E350056A2
:10E1D00023202020414444522020206F7020636F70
:10E1E00064652020202020696E73747275637469E1
:10E1F0006F6E2061646472202020496E74657272B3
:10E20000757074006E6F20766563746F7200726A49
:10E210006D702020006A6D70200057686174207056
:10E220006F72743A00506F7274206E6F7420737541
:10E2300070706F72746564004D7573742062652030
:10E2400061206C6574746572002000577269747483
:10E25000696E672045450052656164696E672045B7
:10E26000450045452065727220636E743D00504F35
:10E27000525400303D5A65726F2061646472003FF1
:10E280003D43505520737461747300403D454550C3
:10E29000524F4D207465737400423D426C696E6B41
:10E2A000204C454400453D44756D70204545505215
:10E2B0004F4D00463D44756D7020464C415348001B
:10E2C000483D48656C70004C3D4C69737420492F83
:10E2D0004F20506F72747300513D51756974005234
:10E2E0003D44756D702052414D00563D73686F7707
:10E2F00020696E7465727275707420566563746FF0
:10E30000727300593D506F727420626C696E6B00BD
:10E310002A0011241FBECFEFD1E2DEBFCDBF01E046
:10E320000CBF12E0A0E0B2E0EEE1FDEF03E00BBFB6
:10E3300002C007900D92A030B107D9F712E0A0E01B
:10E34000B2E001C01D92AE30B107E1F70F9460F367
:10E350000D948DFE01E20EBF0FEF0DBF11241FBE05
:10E360000D9460F30D9400F020E030E040ED57E0B4
:10E3700005C0FA013197F1F72F5F3F4F2817390792
:10E38000C0F308959C01260F311DC901A0E0B0E043
:10E390002F5F3F4FABBFFC018791882361F08093D3
:10E3A000C6008091C00086FFFCCF8091C0008064D1
:10E3B0008093C000EACF08958DE08093C6008091DD
:10E3C000C00086FFFCCF8091C00080648093C000B5
:10E3D0008AE08093C6008091C00086FFFCCF8091C8
:10E3E000C00080648093C00008950F94C2F10F9420
:10E3F000DCF10895FC019081992359F09093C600B7
:10E400008091C00086FFFCCF8091C0008064809323
:10E41000C0003196992379F70895282F982F929567
:10E420009F70892F805D8A3308F0895F8093C600D2
:10E430008091C00086FFFCCF8091C00080648093F3
:10E44000C000822F8F70982F905D9A3308F0995FEB
:10E450009093C6008091C00086FFFCCF8091C000E1
:10E4600080648093C00008959C01FB01853691056E
:10E470001CF46330710594F0C90164E670E00F94F8
:10E480002EFE605D7F4F6093C6008091C00086FFC6
:10E49000FCCF8091C00080648093C0002B30310598
:10E4A00014F43297B4F0C90164E670E00F942EFEC4
:10E4B0006AE070E00F942EFE605D7F4F6093C600AF
:10E4C0008091C00086FFFCCF8091C0008064809363
:10E4D000C000C9016AE070E00F942EFEC0968093E0
:10E4E000C6008091C00086FFFCCF8091C000806490
:10E4F0008093C00008951F93182F8EE692EE60E07F
:10E500000F94C2F11093C6008091C00086FFFCCF2B
:10E510008091C00080648093C0000F94DCF11F9153
:10E5200008952F923F924F925F926F927F928F92B7
:10E530009F92AF92BF92CF92DF92EF92FF920F9392
:10E540001F93DF93CF93CDB7DEB762970FB6F894E2
:10E55000DEBF0FBECDBF382E622ECA01DB015C01CB
:10E560006D01772420E2222E2E010894411C511CBB
:10E570008BC081E0A81680E0B80681E0C80680E084
:10E58000D80628F0C601AA27BB270F940DF2BB2797
:10E59000AD2D9C2D8B2D0F940DF28A2D0F940DF225
:10E5A0002092C6008091C00086FFFCCF8091C00001
:10E5B00080648093C0009DE29093C6008091C0006B
:10E5C00086FFFCCF8091C00080648093C0002092C1
:10E5D000C6008091C00086FFFCCF8091C00080649F
:10E5E0008093C00019828601750188249924A1E0D6
:10E5F0003A1651F03A1620F0B2E03B1661F409C029
:10E600000BBFF701779007C0C7010F9477FE782EF4
:10E6100002C0F7017080872D0F940DF22092C60082
:10E620008091C00086FFFCCF8091C0008064809301
:10E63000C000872D8052F401EF70F0708F3520F408
:10E64000E40DF51D708204C0E40DF51D8EE280839B
:10E650000894E11CF11C011D111D0894811C911CE2
:10E6600090E18916910409F0C2CF80E190E0A0E02A
:10E67000B0E0A80EB91ECA1EDB1E198AC2010F9493
:10E68000FAF10F94DCF16A94662009F072CF629679
:10E690000FB6F894DEBF0FBECDBFCF91DF911F91B3
:10E6A0000F91FF90EF90DF90CF90BF90AF909F9031
:10E6B0008F907F906F905F904F903F902F90089534
:10E6C0002F923F924F925F926F927F928F929F9282
:10E6D000AF92BF92CF92DF92EF92FF920F931F9370
:10E6E000DF93CF93CDB7DEB7CD53D1400FB6F894BB
:10E6F000DEBF0FBECDBF01E20EBF0FEF0DBF94B75F
:10E70000F894A89514BE80916000886180936000A1
:10E7100010926000789493FF05C0E0910002F091A0
:10E7200001021995279A2F9A8091C00082608093E8
:10E73000C00080E18093C40088E18093C1000000A4
:10E74000EE24FF24870144E0A42EB12CCC24DD2448
:10E7500024C0C5010197F1F70894E11CF11C011DCB
:10E76000111D21E2E2162EE4F20620E0020720E06D
:10E77000120718F031E0C32ED12CC801B70127ECE5
:10E780003BE140E050E00F9441FE611571058105C9
:10E79000910519F485B1805885B98091C00087FD35
:10E7A00003C0C114D104A9F2A6014F5F5F4FC25E3E
:10E7B000DE4F59834883CE51D140C25EDE4F8881FF
:10E7C0009981CE51D140019711F00D9410FEC05D9A
:10E7D000DE4F19821882C053D14060E0C15DDE4F28
:10E7E0001882CF52D14088249924C35DDE4F19820C
:10E7F0001882CD52D140C05EDE4F188219821A8233
:10E800001B82C052D140CE5CDE4F188219821A8220
:10E810001B82C253D140EE24FF2487010BBFF701B6
:10E8200007911691C45CDE4F19830883CC53D14005
:10E830000D940BFEC25EDE4F28813981CE51D1404E
:10E840002130310509F52091C600C25EDE4F1982E4
:10E850001882CE51D14022C02F5F3F4F4F4F5F4FA4
:10E86000213082E138078AE7480780E0580780F0C6
:10E87000C45CDE4FE881F981CC53D140EF5FFF4F9C
:10E8800019F0EE27FF27099420E030E040E050E047
:10E890008091C00087FFE0CF2091C600C35DDE4FAE
:10E8A00048815981CD52D1404F5F5F4FC35DDE4FEC
:10E8B00059834883CD52D140213209F063C64A3092
:10E8C000510508F05FC60894811C911C53E0851621
:10E8D000910409F059C600E010E018C081E280936D
:10E8E000C6008091C00086FFFCCF8091C00080648C
:10E8F0008093C0002F5F3F4F2931310579F70F9486
:10E90000DCF10F5F1F4F0530110519F020E030E0FA
:10E91000E5CF10920A0210920B0210920C02109294
:10E920000D02109206021092070210920802109235
:10E930000902109202021092030210920402109235
:10E9400005028FEE90EE60E00F94F5F180E191EE1C
:10E9500060E00F94C2F18091C00087FFFCCF9091DE
:10E96000C600903608F09F759032B8F09093C600BC
:10E970008091C00086FFFCCF8091C00080648093AE
:10E98000C000A0E2A093C6008091C00086FFFCCF2B
:10E990008091C00080648093C000983409F4D7C18E
:10E9A0009934B8F4923409F459C1933458F490333B
:10E9B00019F1903308F4E3C59F33A1F1903409F0C5
:10E9C000DEC5BDC0953409F470C1963409F0D7C5D1
:10E9D00098C1923509F42BC2933538F49C3409F46C
:10E9E000F5C1913509F0CBC518C2963509F445C279
:10E9F000993509F0C4C567C483E792EE62E00F94CD
:10EA0000F5F110920602109207021092080210927D
:10EA1000090210920A0210920B0210920C0210923C
:10EA20000D0213C18FE792EE62E00F94F5F18FEEC5
:10EA300090EE60E00F94F5F181E291EE60E00F94CA
:10EA4000C2F187EB91EE60E00F94F5F180E391EE77
:10EA500060E00F94C2F184EE90EE60E00F94F5F167
:10EA60008FE391EE60E00F94C2F186E090E061E008
:10EA700070E00F9434F20F94DCF18DE591EE60E0DC
:10EA80000F94C2F189EC91EE60E00F94F5F18EE401
:10EA900091EE60E00F94C2F183EC91EE60E00F9490
:10EAA000F5F18CE691EE60E00F94C2F18EE10F94E7
:10EAB0000DF288E90F940DF281E00F940DF20F949E
:10EAC000DCF18BE791EE60E00F94C2F119E0E0E039
:10EAD000F0E010935700E4918E2F0F940DF20F94F5
:10EAE000DCF18AE891EE60E00F94C2F1E3E0F0E03F
:10EAF00010935700E4918E2F0F940DF20F94DCF1D8
:10EB000089E991EE60E00F94C2F1E2E0F0E0109349
:10EB10005700E4918E2F0F940DF20F94DCF188EAE8
:10EB200091EE60E00F94C2F1E1E0F0E01093570045
:10EB30001491812F0F940DF20F94DCF107CF8BE825
:10EB400092EE62E00F94F5F18BE492EE60E00F94A8
:10EB5000F5F10F94DCF100E010E019C0C8016F2D51
:10EB60000F947FFEFF2031F489E492EE60E00F9471
:10EB7000C2F10BC0F092C6008091C00086FFFCCFAE
:10EB80008091C00080648093C0000F5F1F4FC80158
:10EB900081519F41A0E0B0E0ABBFFC01F790BAE229
:10EBA000FB1621F0E2E000301E07C1F60F94DCF105
:10EBB0000F94DCF187E592EE60E00F94F5F10F948D
:10EBC000DCF1CC24DD2400E010E01EC0C8010F946D
:10EBD00077FEF82E882331F489E492EE60E00F94FA
:10EBE000C2F10BC08093C6008091C00086FFFCCFAD
:10EBF0008091C00080648093C000FE1419F00894D6
:10EC0000C11CD11C0F5F1F4FC80181519F41A0E063
:10EC1000B0E0ABBFFC01E790FAE2EF1621F022E092
:10EC20000030120799F60F94DCF10F94DCF182E6C4
:10EC300092EE60E00F94C2F1C60161E070E00F94C3
:10EC400034F20F94DCF10F94DCF110920202109276
:10EC50000302109204021092050278CE89E992EE26
:10EC600062E00F94F5F1279A2F9A16C02F9880E052
:10EC700090E0E0EDF7E03197F1F7019684369105E9
:10EC8000C1F72F9A80E090E0E0EDF7E03197F1F7DF
:10EC9000019684369105C1F78091C00087FFE6CFC9
:10ECA0008091C00087FFFCCF64C485EA92EE62E0E9
:10ECB0000F94F5F140910202509103026091040219
:10ECC0007091050281E020E10F9491F2809102029F
:10ECD00090910302A0910402B091050280509F4FD1
:10ECE000AF4FBF4F8093020290930302A0930402A0
:10ECF000B093050280509041A040B04008F426CE69
:10ED0000A4CF83EB92EE62E00F94F5F140910602FE
:10ED100050910702609108027091090280E020E1A1
:10ED20000F9491F28091060290910702A09108023F
:10ED3000B091090280509F4FAF4FBF4F80930602A2
:10ED400090930702A0930802B0930902FFCD80ECD4
:10ED500092EE62E00F94F5F183E792EE60E00F949B
:10ED6000F5F18FE792EE60E00F94F5F18BE892EE0B
:10ED700060E00F94F5F189E992EE60E00F94F5F10F
:10ED800085EA92EE60E00F94F5F183EB92EE60E09D
:10ED90000F94F5F180EC92EE60E00F94F5F187ECC2
:10EDA00092EE60E00F94F5F188ED92EE60E00F9442
:10EDB000F5F18FED92EE60E00F94F5F18AEE92EEB0
:10EDC00060E00F94F5F183E093EEBDCD87EC92EE19
:10EDD00062E00F94F5F181E40F947BF282E40F94EA
:10EDE0007BF283E40F947BF284E40F947BF285E45E
:10EDF0000F947BF286E40F947BF287E40F947BF20E
:10EE000088E40F947BF28AE40F947BF28BE40F94F6
:10EE10007BF28CE40F947BF299CD88ED92EE62E068
:10EE20000F94F5F1772473948824992409C48FED05
:10EE300092EE62E00F94F5F140910A0250910B02BC
:10EE400060910C0270910D0282E020E10F9491F22A
:10EE500080910A0290910B02A0910C02B0910D02D8
:10EE600080509F4FAF4FBF4F80930A0290930B0289
:10EE7000A0930C02B0930D0269CD8AEE92EE62E08F
:10EE80000F94F5F184EE90EE60E00F94F5F18FECC5
:10EE900091EE60E00F94F5F1662477244301CC5D98
:10EEA000DE4F19821882C452D140D401C301B695F5
:10EEB000A79597958795CA5DDE4F88839983AA8326
:10EEC000BB83C652D140CC5DDE4FA881B981C4520C
:10EED000D1401196CC5DDE4FB983A883C452D14096
:10EEE000CD0162E070E00F9434F2B0E2B093C6005E
:10EEF0008091C00086FFFCCF8091C0008064809329
:10EF0000C000EDE2E093C6008091C00086FFFCCF18
:10EF10008091C00080648093C000F0E2F093C6004E
:10EF20008091C00086FFFCCF8091C00080648093F8
:10EF3000C000CA5DDE4FE880F9800A811B81C6529D
:10EF4000D140BB27A12F902F8F2D0F940DF2CA5DBA
:10EF5000DE4F8881C652D1400F940DF2B0E2FB2EF5
:10EF6000F092C6008091C00086FFFCCF8091C00067
:10EF700080648093C0000DE30093C6008091C000C0
:10EF800086FFFCCF8091C00080648093C00010E2B7
:10EF90001093C6008091C00086FFFCCF8091C00016
:10EFA00080648093C0008BBEF3012791C65DDE4F65
:10EFB0002883CA52D140A22EBB24CC24DD2408943D
:10EFC000611C711C811C911C8BBEF3018791282E42
:10EFD0003324442455240894611C711C811C911C09
:10EFE0008BBEF3013791C55DDE4F3883CB52D140E4
:10EFF0000894611C711C811C911C8BBEF30147910C
:10F00000C45DDE4F4883CC52D140ADEFEA2EAFEF66
:10F01000FA2EAFEF0A2FAFEF1A2F6E0C7F1C801E57
:10F02000911E142D032DF22CEE24EA0CFB1C0C1D5A
:10F030001D1D0F940DF220E22093C6008091C000A8
:10F0400086FFFCCF8091C00080648093C000C65DC5
:10F05000DE4F8881CA52D1400F940DF230E23093D6
:10F06000C6008091C00086FFFCCF8091C000806404
:10F070008093C000C45DDE4F8881CC52D1400F9494
:10F080000DF240E24093C6008091C00086FFFCCFA5
:10F090008091C00080648093C000C55DDE4F888190
:10F0A000CB52D1400F940DF250E25093C6008091A4
:10F0B000C00086FFFCCF8091C00080648093C000B8
:10F0C0008FEFE8168FEFF80680E0080780E018075A
:10F0D00031F484E092EE60E00F94C2F1DFC0D80119
:10F0E000C7018070907CA070B0708050904CA040A0
:10F0F000B040D1F52FEF3FE340E050E0E222F322B1
:10F1000004231523CA5DDE4FA880B980CA80DB8046
:10F11000C652D140AE0CBF1CC01ED11EAA0CBB1CD7
:10F12000CC1CDD1C8EE092EE60E00F94C2F1BB2798
:10F13000A12F902F8F2D0F940DF28E2D0F940DF285
:10F1400030E23093C6008091C00086FFFCCF8091F2
:10F15000C00080648093C0004EE34093C60080915D
:10F16000C00086FFFCCF87C08EE09EEFA0E0B0E03D
:10F17000E822F9220A231B239CE0E91694E9F90608
:10F1800090E0090790E0190709F088C0C45DDE4FE0
:10F19000A881CC52D140EA2EFF2400E010E0102FCD
:10F1A0000F2DFE2CEE24C55DDE4FB881CB52D14031
:10F1B000EB0EF11C011D111DD601C501817090706F
:10F1C000A070B070DC0199278827E80EF91E0A1F8D
:10F1D0001B1F20EF30E040E050E0A222B322C42207
:10F1E000D52241E1AA0CBB1CCC1CDD1C4A95D1F7F1
:10F1F000EA0CFB1C0C1D1D1D81E090E0A0E0B0E0BE
:10F20000282239224A225B2235E1220C331C441C7D
:10F21000551C3A95D1F7E20CF31C041D151D57013E
:10F220006801AA0CBB1CCC1CDD1C85E192EE60E0E1
:10F230000F94C2F1C801AA27BB270F940DF2BB2778
:10F24000A12F902F8F2D0F940DF28E2D0F940DF274
:10F2500090E29093C6008091C00086FFFCCF809121
:10F26000C00080648093C000AEE3A093C60080918C
:10F27000C00086FFFCCF8091C00080648093C000F6
:10F28000C601AA27BB270F940DF2BB27AD2D9C2DDD
:10F290008B2D0F940DF28A2D0F940DF20F94DCF14B
:10F2A000CC5DDE4FE881F981C452D140F99709F471
:10F2B0004DCBF4E0EF2EF12C012D112D6E0C7F1CA7
:10F2C000801E911EF2CD83E093EE62E00F94F5F183
:10F2D0008AE192EE60E00F94C2F18091C00087FF56
:10F2E000FCCF1091C6001F751093C6008091C0001E
:10F2F00086FFFCCF8091C00080648093C0000F9493
:10F30000DCF1812F81548A3108F036C1163409F4BA
:10F3100095C0173490F4133409F44EC0143430F40B
:10F320001134F1F0123409F01DC130C0143409F465
:10F3300059C0153409F016C16BC01A3409F4C4C0A1
:10F340001B3438F4173409F48FC0183409F00AC19B
:10F35000A1C01B3409F4D2C01C3409F003C1E8C0B9
:10F360008FEF81B90DC082B1809582B980E090E0C5
:10F37000E0EDF7E03197F1F70196883C9105C1F790
:10F380008091C00087FFEFCF12B8EFC08FEF84B934
:10F390000DC085B1809585B980E090E0E0EDF7E0A3
:10F3A0003197F1F70196883C9105C1F78091C00033
:10F3B00087FFEFCF15B8D9C08FEF87B90DC088B1DF
:10F3C000809588B980E090E0E0EDF7E03197F1F7C3
:10F3D0000196883C9105C1F78091C00087FFEFCF6F
:10F3E00018B8C3C08FEF8AB90DC08BB180958BB9A7
:10F3F00080E090E0E0EDF7E03197F1F70196883C8E
:10F400009105C1F78091C00087FFEFCF1BB8ADC059
:10F410008FEF8DB90DC08EB180958EB980E090E0F0
:10F42000E0EDF7E03197F1F70196883C9105C1F7DF
:10F430008091C00087FFEFCF1EB897C08FEF80BBD1
:10F440000DC081B3809581BB80E090E0E0EDF7E0F6
:10F450003197F1F70196883C9105C1F78091C00082
:10F4600087FFEFCF11BA81C08FEF83BB0DC084B38C
:10F47000809584BB80E090E0E0EDF7E03197F1F714
:10F480000196883C9105C1F78091C00087FFEFCFBE
:10F4900014BA6BC08FEF809301010FC080910201FD
:10F4A00080958093020180E090E0E0EDF7E03197F5
:10F4B000F1F70196883C9105C1F78091C00087FF64
:10F4C000EDCF1092020151C08FEF809304010FC065
:10F4D0008091050180958093050180E090E0E0ED4A
:10F4E000F7E03197F1F70196883C9105C1F78091DB
:10F4F000C00087FFEDCF1092050137C08FEF8093DA
:10F5000007010FC08091080180958093080180E079
:10F5100090E0E0EDF7E03197F1F70196883C910536
:10F52000C1F78091C00087FFEDCF109208011DC088
:10F530008FEF80930A010FC080910B01809580931B
:10F540000B0180E090E0E0EDF7E03197F1F70196F4
:10F55000883C9105C1F78091C00087FFEDCF1092E4
:10F560000B0103C085E292EEEEC98091C00087FFD7
:10F57000FCCF8091C600EAC988E392EEE4C98CE131
:10F5800091EEE1C988249924933011F1943028F444
:10F59000913089F09230B8F408C0953061F195301F
:10F5A000F0F0963009F048C043C02B3109F042C951
:10F5B00091E06BE13FC96227C15DDE4F2883CF52E6
:10F5C000D14092E037C9B22FA0E0622793E032C960
:10F5D000822F90E0A82BB92B622794E02BC92E3004
:10F5E00009F039C3622795E0C05DDE4F19821882A9
:10F5F000C053D1401FC9E1E0F0E0EC0FFD1FC05D3A
:10F60000DE4F08811981C053D140E00FF11F2083E4
:10F610000F5F1F4FC05DDE4F19830883C053D14079
:10F6200062270A171B0709F005C9D80196E002C92D
:10F63000261709F010C303C0973009F0FBC87724E0
:10F640009981933109F412C19431C8F4963009F4C8
:10F65000D8C0973050F4923009F406C1933009F4C1
:10F660006DC0913009F059C253C0913109F477C08F
:10F67000923108F0BBC0903109F04FC2F5C098310B
:10F6800009F487C0993150F4953109F4EFC09531F0
:10F6900008F4C6C1963109F040C2C2C19A3109F4DA
:10F6A0006CC09A3108F491C09B3109F45BC09D3164
:10F6B00009F033C29D81903359F48F81882311F46E
:10F6C0009EE11CC0813011F091E018C098E916C08D
:10F6D000892F807591F0903539F4E0E0F0E089E011
:10F6E0008093570094910AC0983539F4E3E0F0E034
:10F6F00089E080935700949101C090E01A821B82A8
:10F700008D818C831D829E831F8227E030E009C299
:10F710001A8288E08B8381E48C8386E58D8382E581
:10F720008E8389E48F8383E5888780E589878FE5E9
:10F730008A8782E38B872BE030E0F3C18A818139AD
:10F7400041F0823941F0803911F48FE005C080E04A
:10F7500003C082E001C08AE01A828B8344C0772410
:10F76000739482C08D81882311F48EE12CC0813086
:10F7700011F081E028C088E926C01A82E1E0F0E0BB
:10F7800089E08093570084918B831C8224E030E0D1
:10F79000C8C18B81803589F48C81883039F4E2E0EE
:10F7A000F0E089E08093570084910DC0E0E0F0E044
:10F7B00089E080935700849106C0E3E0F0E089E09F
:10F7C0008093570084911A82DFCF8D81836C99E0FA
:10F7D000E1E0F0E0082E90935700E89507B600FCB2
:10F7E000FDCF1A821B8223E030E09BC180EC8A832C
:10F7F000CE5CDE4F188219821A821B82C253D1401E
:10F800008EC18A8190E0A0E0B0E0582F44273327D2
:10F8100022278B8190E0A0E0B0E0DC0199278827C7
:10F82000282B392B4A2B5B2B8D8190E0A0E0B0E098
:10F83000282B392B4A2B5B2B8C8190E0A0E0B0E089
:10F84000BA2FA92F982F8827282B392B4A2B5B2BCF
:10F85000220F331F441F551FC05EDE4F288339839C
:10F860004A835B83C052D1401A8259C13A81C95C34
:10F87000DE4F3883C753D140CA5CDE4F1882C6536F
:10F88000D1408B81C82EDD24CA5CDE4F488159816E
:10F89000C653D140C42AD52A933109F082C0CE5C28
